:020000040800F2
:10000000C80800200D020008330D00081D08000874
:10001000250D0008B90400086B2600080000000048
:10002000000000000000000000000000B513000800
:10003000BD04000800000000210E00086115000842
:1000400027020008270200082702000805110008FF
:1000500027020008270200082702000827020008DC
:1000600027020008270200082702000827020008CC
:1000700027020008270200082702000827020008BC
:1000800027020008270200082702000827020008AC
:10009000270200082702000827020008270200089C
:1000A000270200082702000827020008270200088C
:1000B000270200082702000827020008270200087C
:1000C000270200082702000827020008270200086C
:1000D00027020008852500082702000827020008DB
:1000E000270200082702000827020008270200084C
:1000F000270200082702000827020008270200083C
:10010000270200082702000827020008270200082B
:10011000270200082702000827020008270200081B
:10012000270200082702000827020008270200080B
:1001300000F002F800F05AF80AA090E8000C82449F
:100140008344AAF10107DA4501D100F04FF8AFF27C
:10015000090EBAE80F0013F0010F18BFFB1A43F0A5
:1001600001031847D0980000F09800000A444FF0AF
:10017000000C10F8013B13F0070408BF10F8014B06
:100180001D1108BF10F8015B641E05D010F8016B4B
:10019000641E01F8016BF9D113F0080F1EBF10F8AF
:1001A000014BAD1C0C1B09D16D1E58BF01F801CBD2
:1001B000FAD505E014F8016B01F8016B6D1EF9D555
:1001C0009142D6D37047000000230024002500266A
:1001D000103A28BF78C1FBD8520728BF30C148BFAA
:1001E0000B6070471FB51FBD10B510BD00F098F82B
:1001F0001146FFF7F7FF04F01DF800F0B6F803B45E
:10020000FFF7F2FF03BC02F064FA000009488047E0
:1002100009480047FEE7FEE7FEE7FEE7FEE7FEE7E8
:10022000FEE7FEE7FEE7FEE704480549054A064B00
:10023000704700006515000831010008C802002061
:10024000C8080020C8040020C8040020704710B56A
:10025000431C02E010F8011B71B18107FAD14FF085
:10026000013202C88C1A8C4314EAC211F9D0C01AA8
:100270000A0603D0C01E10BDC01A10BD0A0401D06A
:10028000801E10BD0902FCD0401E10BD10B5203AE2
:10029000C0F00B80B1E81850203AA0E81850B1E83F
:1002A0001850A0E81850BFF4F5AF5FEA027C24BFF5
:1002B000B1E81850A0E8185044BF18C918C0BDE8EC
:1002C00010405FEA827C24BF51F8043B40F8043BB5
:1002D00008BF7047D20728BF31F8023B48BF11F86A
:1002E000012B28BF20F8023B48BF00F8012B7047C4
:1002F000704770477047704710B500F009F8006804
:1003000010BD10B5044600F003F8046010BD0000F5
:1003100000487047640200200048704764020020D3
:100320007546FFF7F9FFAE4605006946534620F0D3
:100330000700854618B020B5FFF776FFBDE82040DE
:100340004FF000064FF000074FF000084FF0000B91
:1003500021F00701AC46ACE8C009ACE8C009ACE844
:10036000C009ACE8C0098D4670470446AFF3008071
:100370002046FFF744FF10B500F07AFA10BD70B5C3
:1003800006460C46154608E03046721C96B200F050
:1003900007F804F8010B681E85B2002DF4D170BD7A
:1003A00070B50446002500F017FB40F2FF7094FB87
:1003B000F0F0A02101EB4000C6B2304600F0D2FAC6
:1003C00000F056FB40F2FF7094FBF0F100FB11408F
:1003D000C6B2304600F0C6FA00F04AFB00F0FCFA64
:1003E000A12000F0BFFA00F043FB002000F082FAE9
:1003F000054600F017FB284670BD70B505460C4653
:10040000164606E02178284600F009F8681C85B2F7
:10041000641C3000A6F101018EB2F3D170BD70B53D
:1004200004460D4600F0D8FA40F2FF7094FBF0F05D
:10043000A02101EB4000C6B2304600F093FA00F074
:1004400017FB40F2FF7094FBF0F100FB1140C6B2C5
:10045000304600F087FA00F00BFB284600F082FAE5
:1004600000F006FB00F0DEFA0A2002F0C7FB70BDC8
:1004700010B5012000F006FD002000F003FD10BDC6
:1004800008B50146002000900348009000980844F9
:1004900000900098008808BD006C004008B500225C
:1004A0000092044A0092009A02440092009A11605D
:1004B00008BD0000006C004000BFFEE77047000070
:1004C00001490860704700001404014000212349DD
:1004D0008279002A3AD00A46126803689A430B468A
:1004E0001A600A1D126803689A430B1D1A6002798C
:1004F00011440A6803681A430A60184A08321268ED
:1005000003689A43154B08331A601A1D1268036872
:100510009A43124B0C331A604279102A0ED11A1FDB
:10052000126803681A430D4B08331A601A1D1268CB
:1005300003681A43094B0C331A600DE007494279EE
:1005400011440A6803681A430A6005E002791144FD
:100550000A6803689A430A6070470000000401407B
:1005600051B18200A2F1C042126842F00103820040
:10057000A2F1C042136009E08200A2F1C0421268F9
:10058000034B1A408300A3F1C0431A607047000078
:10059000FEFF0F00D0E901121143C2681143026946
:1005A00011434269114382691143C2691143026ACE
:1005B0001143426A1143826A1143C26A1143026BBA
:1005C000114302689200A2F1C042116081680829BB
:1005D0000BD101688900A1F1C041096841F04002D6
:1005E00001688900A1F1C0410A60416B0968426B52
:1005F000526841EA0211426B926841EA0221426B61
:10060000928941EA0241426B128A41EA0251426BED
:10061000127D41EA0261426B926911430268521CE9
:100620009200A2F1C0421160C16AB1F5804F1BD1A6
:10063000816B0968826B526841EA0211826B926891
:1006400041EA0221826B128A41EA0251826B127DD9
:1006500041EA0261826B9269114302689200A2F141
:10066000C042C2F8041107E06FF0704201688900CF
:10067000A1F1C041C1F8042170472DE9F84F0546AA
:100680000E4617461C46DDF828A023463A4631465A
:10069000284600F091FB301980B20090684600F0C7
:1006A00043FBBDF80010202000F032FB294621203A
:1006B00000F02EFB222000F023FB4FF0000910E099
:1006C0004FF0000806E0504600F012FB08F1010070
:1006D00000F0FF08601C8045F5DB09F1010000F027
:1006E000FF09781C8145EBDBBDE8F88F2DE9F0416F
:1006F000024600250026002000230024002791F850
:1007000003C00CF00F0591F803C00CF0100CBCF105
:10071000000F03D091F802C04CEA050591F800C023
:10072000BCF1000F31D0146800202BE04FF0010C19
:100730000CFA00F3B1F800C00CEA03069E4220D187
:1007400083004FF00F0C0CFA03F7BC4305FA03FCCF
:100750004CEA040491F803C0BCF1280F06D14FF015
:10076000010C0CFA00FCC2F814C00AE091F803C0B6
:10077000BCF1480F05D14FF0010C0CFA00FCC2F897
:1007800010C0401C0828D1D31460B1F800C0BCF1DF
:10079000FF0F34DD546800202EE000F1080C4FF00C
:1007A000010808FA0CF3B1F800C00CEA03069E42F7
:1007B00021D183004FF00F0C0CFA03F7BC4305FA6C
:1007C00003FC4CEA040491F803C0BCF1280F05D1E6
:1007D00000F1080C08FA0CF8C2F8148091F803C074
:1007E000BCF1480F07D100F1080C4FF0010808FADE
:1007F0000CF8C2F81080401C0828CED35460BDE825
:10080000F08102460020D3680B400BB1012000E0CC
:1008100000207047416170470161704700BFFEE7EB
:1008200010B500200F4908600F48006820F07040A4
:100830000D4908600846006840F0405008600020FC
:100840000A49C1F89C01022002F0FEF90120054985
:100850000860022002F0F8F900200449C1F898016C
:1008600010BD000098812142000C0140008021420F
:1008700008B50121082000F0F5FAC020ADF800000D
:1008800010208DF8030003208DF80200694604480B
:10089000FFF72CFFC0210248FFF7BEFF08BD000094
:1008A000000C014010B500200F4908600F48006897
:1008B00020F070400D4908600846006840F0405044
:1008C000086001200A49C1F89C01022002F0BCF92D
:1008D000012005490860022002F0B6F90020044911
:1008E000C1F8980110BD000098812142000C014020
:1008F0000080214270B5054600241748006820F0AA
:100900007040154908600846006840F000400860E3
:10091000002616E0002011490860022002F094F938
:1009200001200F49C1F898016006040E0B487C387D
:10093000006808B1601CC4B2012002F085F9701C87
:10094000C6B2082EE6DB15B9FFF7ACFF01E0FFF7F2
:1009500067FF204670BD0000000C014098812142D5
:100960000080214270B504461848006820F07040AD
:10097000164908600846006840F0405008600020B2
:100980001349086000251EE0E00920B1012010494C
:10099000091D086003E000200D49091D086060067C
:1009A000040E022002F050F90120094908600220DB
:1009B00002F04AF900200749C1F89801022002F02C
:1009C00043F9681CC5B2082DDEDB70BD000C014088
:1009D000988121420080214210B50F48006820F024
:1009E00070400D4908600846006840F040500860BB
:1009F00001200A4908600A49C1F89801042002F060
:100A000023F9002005490860042002F01DF90020A8
:100A10000349C1F8980110BD000C01409C8121429E
:100A20000080214210B50F48006820F070400D4949
:100A300008600846006840F04050086000200A49FD
:100A400008600A49C1F89C01042002F0FDF8012069
:100A5000054908600549C1F89C01042002F0F4F83A
:100A600010BD0000000C014098812142008021420D
:100A700010B500241448006820F070401249086046
:100A80000846006840F00040086001200F490860F7
:100A900002F0DAF801200E49C1F8980102F0D4F80A
:100AA00007E0601CC4B2FA2C03DDFFF7BBFF012096
:100AB00010BD0648803800680028F2D10349091F9C
:100AC000086000BFF4E70000000C01409C81214257
:100AD000008021421FB51448807A134989798842E1
:100AE0001FD112490868804704204FF6FF711F226A
:100AF0000FA3CDE90032CDE902100C481E23462297
:100B0000002144680A20A0470AA00BA114220092E9
:100B1000CDE901210390054832234121C4680846EC
:100B2000A04703F007FB1FBD0C010020C000002000
:100B300049500000310000004950204144445245D2
:100B4000535300000146CA1701EB92729210A1EBB9
:100B5000820292B9642091FBF0F200FB121050B9AE
:100B60004FF4C87091FBF0F200FB121008B901209D
:100B700070470020FCE70120FAE70020F8E738B5CD
:100B80000446B023DC22002108460094FFF775FDDF
:100B900038BD2DE9FF4F85B081468A46002003907D
:100BA00083460798A0EB09050898A0EB0A06CDF844
:100BB0000890CDF804A0002D01DD012705E00DB956
:100BC000002702E04FF0FF376D42002E02DD4FF0AC
:100BD000010806E016B94FF0000802E04FF0FF38B8
:100BE0007642B54201DD2C4600E0344600200490F8
:100BF0001EE0019A91B2029A90B2129A00F0E2FCC1
:100C0000039828440390B3440398A04205DD039859
:100C1000001B0390029838440290A34504DDABEB1F
:100C2000040B0198404401900498401C80B2049049
:100C3000611C04988842DCDD09B0BDE8F08F2DE925
:100C4000F84F07460D4690461E46DDF828B00B9833
:100C5000042825D1701B00EBD07105EB61011FFA50
:100C600081F9002415E009EB040C1FFA8CF3A8EBC2
:100C7000040C1FFA8CF209EB040C1FFA8CF107EB41
:100C8000040C1FFA8CF0CDF800B0FFF782FF601C57
:100C9000C4B2701B00EBD071B4EB610FE3DB24E056
:100CA0000B98012821D1A8EB070000EBD07107EBCE
:100CB000610101F0FF0A002411E0A6EB040C1FFA09
:100CC0008CF30AEB040205EB040C1FFA8CF10AEB1F
:100CD0000400CDF800B0FFF75CFF601CC4B2701BCD
:100CE00000EBD071B4EB610FE7DBBDE8F88F0000DB
:100CF0000112024A1170107070470000000001607C
:100D00000112024A1170107070470000FFFF00606E
:100D100010B504460B462046FFF7F2FF1846FFF7D2
:100D2000E7FF10BD00BFFEE70188C1F1B0010180FF
:100D30007047704770B5002100230F22C47804B3B8
:100D4000154C246804F4E064C4F5E064210AC1F1A0
:100D50000403CA40447804FA03F184781440214320
:100D600009010E4C0678A155047804F01F050124F2
:100D7000AC4005786D11AD0005F1E025C5F80041E6
:100D800009E0047804F01F050124AC40044D067806
:100D9000761145F8264070BD0CED00E000E400E05F
:100DA00080E100E002490143024A116070470000FF
:100DB0000000FA050CED00E02DE9FC4105460C466B
:100DC00017461E46A01980B2009001946846FFF7AE
:100DD000ABFF01A8FFF7A8FF3620FFF791FFBDF892
:100DE0000400FFF785FF3720FFF78AFFBDF80000FA
:100DF000FFF77EFF3820FFF783FFE91988B2FFF77E
:100E000077FF3920FFF77CFF2846FFF771FFBDE829
:100E1000FC810000014908627047000000000E429A
:100E20007047000029B1064A52690243044B5A61D7
:100E300004E0034A52698243014B5A617047000043
:100E40000010024029B1064AD2690243044BDA611C
:100E500004E0034AD2698243014BDA617047000023
:100E60000010024029B1064A92690243044B9A617C
:100E700004E0034A92698243014B9A617047000083
:100E800000100240014908607047000040044242DF
:100E900010B501460022002300204A11012A02D188
:100EA000094C236806E0022A02D1074C236A01E0BC
:100EB000054C636A01F01F02012494401C400CB1F0
:100EC000012000E0002010BD0010024000210B4A6C
:100ED00011700A4A203A82F82010012802D0042812
:100EE00008D103E00121054A117004E00521034AFD
:100EF000117000E000BF00BF7047000020100240EA
:100F000001490860704700003C0442420249096AF6
:100F10000143014A116270470010024002490988EA
:100F20008143014A1180704704280040034800882B
:100F300040F010000149088070470000042800407C
:100F4000034800884FF6EF71084001490880704758
:100F50000428004070B500260024002500F07AF82F
:100F600006463848B6FBF0F437480088A0423CD02B
:100F700035490C8040F2B27510E02846FFF7E2FDDB
:100F800040B1B4F5B77F02D3A4F5B77404E0681C90
:100F900085B206E0A4F26D14681C85B2B4F5B67F84
:100FA000EBD800BF29488580002516E027498888AE
:100FB000FFF7C8FD30B1012D04D11D2C01D31D3C1C
:100FC00009E00CE02248405DA04203D82048405D83
:100FD000241A00E003E0681C85B21C2CE6D200BF96
:100FE000681C1A498871601CC8711648B6FBF0F17C
:100FF00000FB11644FF46160B4FBF0F0134908701A
:101000004FF46160B4FBF0F100FB11403C21B0FBF8
:10101000F1F00E4948704FF46160B4FBF0F100FB51
:1010200011403C21B0FBF1F201FB1200074988702E
:101030000B46DA799979988800F028F80349087204
:10104000002070BD805101004200002058020020A5
:10105000BA990008002103480188001F008841EA6E
:10106000004070471C28004001460020064A1288B4
:101070000A40D0B2044A121F12880A4012B108B1C5
:10108000012000E00020704704280040F0B503462E
:101090000C461546642093FBF0F0C6B2642093FB27
:1010A000F0F700FB1730C1B2132E02DD01F164002E
:1010B000C1B20846CF1701EB977701EBA707BAB289
:1010C000072092FBF0F700FB172082B25719601E31
:1010D000DFF82CC01CF80000384482B2CF1701EBB7
:1010E0009777BF10A1EB87071FB9032C01DA501EB9
:1010F00082B2072092FBF0F700FB1720C0B2F0BDD0
:10110000AE99000810B50120FFF7AEFF30B10648D8
:101110000078401C04490870FFF71CFF0520FFF70A
:10112000FDFE00F02BF910BD4000002029B1064A59
:1011300012880243044B1A8004E0034A1288824357
:10114000014B1A8070470000002800401CB50024A5
:1011500001214FF0C050FFF775FE0120FFF75AFE46
:101160000420FFF78DF9B0F5A04F44D0FFF780F9C8
:101170000120FFF7ABFE04E0601CC4B20A2001F0BE
:101180003DFD4120FFF784FE08B9FA2CF4DBFA2C70
:1011900001DB01201CBD4FF48070FFF7B7FE01207A
:1011A000FFF7AEFE00F0EAF800F0F2F80121084681
:1011B000FFF7BCFF01210220FFF7B8FF00F0DEF8C7
:1011C000FFF7B4FE47F6FF7000F0C8F800F0D6F85D
:1011D000002025210A231C22CDE90010042140F221
:1011E000E27000F049F8FFF7ABFE4FF4A041042095
:1011F000FFF754F907E000F0CBF801210846FFF7AC
:1012000095FF00F0BBF800F004F8FFF7A3FE002004
:10121000C0E70EB503208DF8080002208DF8090004
:1012200001208DF80A008DF80B0002A8FFF782FD5F
:1012300029208DF8080001208DF8090002208DF882
:101240000A0001208DF80B0002A8FFF773FD4FF490
:101250000030FFF735F900208DF804004FF400301E
:10126000009008208DF8050001208DF806006846E2
:10127000FFF72CF90EBD00002DE9F05F06460F4682
:1012800090469946DDE90AAB002440F2B2708642EE
:1012900003DB40F63300864202DD0120BDE8F09F0B
:1012A00040F2B2750AE02846FFF74CFC10B1204826
:1012B000044401E01F480444681C85B2B542F2DBD7
:1012C000781EC7B2002510E01B48405D40F2A32104
:1012D000484304EBC0143046FFF734FC18B1012D2D
:1012E00001D116480444681C85B2BD42ECDBA8F16C
:1012F000010040F2A321484304EBC014C9EB49109C
:10130000C0EB092004EB0014CAEB0A1004EB8004C4
:101310005C4401214FF0C050FFF794FD0120FFF71E
:1013200079FD204600F00CF800F028F80020B5E721
:101330000085E2018033E101BA9900088051010083
:1013400000B50246FFF7F2FD100C03490880091DA5
:101350000A80FFF7F5FD00BD1828004000B50246E1
:10136000FFF7E4FDC2F3034003490880091D0A802A
:10137000FFF7E6FD00BD00000828004000BF03485D
:10138000008800F020000028F9D0704704280040B1
:10139000074800884FF6F77108400549088000BFEC
:1013A0000348008800F008000028F9D070470000CA
:1013B00004280040704710B500F002F810BD00008E
:1013C0000CB50020019000903348006840F4803054
:1013D0003149086000BF3048006800F400300090D8
:1013E0000198401C0190009818B90198B0F5A06FC1
:1013F000F1D12948006800F4003010B101200090BC
:1014000001E0002000900098012843D123480068A3
:1014100040F01000214908600846006820F00300F1
:1014200008600846006840F0020008601A484068FA
:10143000194948600846406848600846406840F4DA
:10144000806048600846406820F47C104860084688
:10145000406840F4E81048600846006840F080703A
:10146000086000BF0C48006800F000700028F9D048
:101470000948406820F00300074948600846406872
:1014800040F00200486000BF0348406800F00C00D4
:101490000828F9D10CBD00000010024000200240D5
:1014A00030B58DB004461422204908A8FEF7EEFEA0
:1014B00014221E49143103A8FEF7E8FE012C1ED1A8
:1014C000002000901A486C2351222021C56A002078
:1014D000A847052008A9CDE900101548142350227B
:1014E000202105690020A84701200021CDE9001036
:1014F000104887234B227D2185694120A8479CB94C
:10150000002000900A486C2347223221C56A5520EA
:10151000A847052003A9CDE9001005481423462259
:10152000322105695520A8470DB030BDC899000883
:10153000C000002020000020042808D14FF0E02146
:10154000096941F004014FF0E022116107E04FF01A
:10155000E021096921F004014FF0E0221161704798
:101560007047000010B51348006840F001001149B1
:10157000086008464068104908400E49486008461F
:1015800000680E4908400B4908600846006820F4CE
:10159000802008600846406820F4FE0048604FF450
:1015A0001F008860FFF707FF4FF0006004490860E4
:1015B00010BD0000001002400000FFF8FFFFF6FE23
:1015C00008ED00E037B50446154601231A46BDF87C
:1015D00004102046FFF7F0FB01A8FFF7A5FBBDF8BC
:1015E00004102020FFF794FB21462120FFF790FBF9
:1015F0002220FFF785FB2846FFF77AFB3EBD00005F
:101600002DE9FF4F81B082468B461C460026012003
:10161000009003982038C7B2102C05D1374800EB52
:10162000071010F8068014E0182C07D107EBC7004C
:10163000334901EB800010F806800AE0202C05D128
:10164000304800EB871010F8068002E005B0BDE8D6
:10165000F08F4FF0000949E00AEB0900DC2800DBBD
:10166000F4E700253CE0E91705EB5171C910A5EB43
:10167000C10101BB0098D0B9701CC6B2102C05D1B5
:101680001E4800EB071010F8068010E0182C07D158
:1016900007EBC7001A4901EB800010F8068006E04E
:1016A000202C04D1174800EB871010F80680009812
:1016B00008B1002000900BEB0500B02800DBC5E767
:1016C00008F0010040B10BEB050291B20AEB0902F0
:1016D00090B20E9AFFF776FF4FEA6808681CC5B211
:1016E000A542C0DB09F1010000F0FF0904EBD47151
:1016F000B9EB610FB0DB00BFA8E70000366C000853
:1017000026720008827F000800B597B00121080208
:10171000FFF788FB01216020FFF7A4FB4CF6B30024
:10172000ADF8580018208DF85B0003208DF85A00A2
:1017300016A92E48FEF7DAFF4FF4F060ADF8580016
:1017400018208DF85B0003208DF85A0016A9284850
:10175000FEF7CCFF0120ADF8580010208DF85B009B
:1017600003208DF85A0016A92148FEF7BFFF4FF459
:101770000050ADF8580010208DF85B0003208DF864
:101780005A0016A91948FEF7B1FF0120194908604F
:101790000520009000200190052002900020039079
:1017A000049005904FF0805006900020079008901C
:1017B0000820099000200A900B900D900E900F9039
:1017C0004FF48050109000201190129013900C90C4
:1017D000CDF850D0CDF854D007A8FEF7DBFE01219C
:1017E0000020FEF7BDFE17B000BD00000014014050
:1017F00000180140B48122422DE9FF4F85B0804698
:1018000014461F46DDF848903A4894FBF0F0C0B209
:101810008DF80C00374894FBF0F100FB114042F2C8
:10182000107190FBF1F0C0B28DF80D00084694FBEA
:10183000F0F100FB11404FF47A7190FBF1F0C0B26F
:101840008DF80E00084694FBF0F100FB1140642176
:1018500090FBF1F0C0B28DF80F00642094FBF0F122
:1018600000FB11400A2190FBF1F0C0B28DF810008E
:101870000A2094FBF0F100FB1140C0B28DF811007A
:1018800000250AE003A8405D10B94FF0000B02E00C
:101890004FF0010B03E0681CC5B2062DF2DB00BF60
:1018A000AA46BBF1010F1AD1002613E007EBD7714E
:1018B000491006FB018188B2A91903ABCDF800904D
:1018C0000297595C3031CAB23B460699FFF798FE41
:1018D000701CC6B2CAF10600B042E7DC07E03B4626
:1018E0003022CDF8009040460699FFF789FE09B0F6
:1018F000BDE8F08FA08601002DE9F84306460F46AB
:1019000014461D46DDF820800EE0CDF800802278D8
:101910002B4639463046FFF773FE284605EBD0715B
:1019200006EB61018EB2641C20787E2802DC2078F0
:101930002028EADABDE8F8832DE9F05F06460F4675
:10194000904699464FF0000A002521E000241BE054
:10195000E11704EB5171C910A4EBC10131B90B9827
:1019600010F80AB00AF101001FFA80FA0BF001002A
:1019700030B13A1991B2721990B20A9AFFF722FE69
:101980004FEA6B0B601C84B24C45E1DB681C85B2EE
:101990004545DBDBBDE8F09F10B5FFF7B5FE322013
:1019A00001F02CF901205D490860642001F026F95E
:1019B00000205B49C1F880014FF4967001F01EF9D8
:1019C000012056490860642001F018F94FF48E7127
:1019D0000120FFF79DF94FF480710220FFF798F97D
:1019E0004FF481510320FFF793F940F608010820D6
:1019F000FFF78EF900210C20FFF78AF940F601016C
:101A00000F20FFF785F900212020FFF781F9002141
:101A10002120FFF77DF9052001F0F0F84FF4206157
:101A20001020FFF775F941F23B011120FFF770F923
:101A3000052001F0E3F846F221111220FFF768F9C2
:101A40006F211320FFF764F943F245711420FFF76B
:101A50005FF900213020FFF75BF9DB213120FFF730
:101A600057F900213220FFF753F900213320FFF707
:101A70004FF9DB213420FFF74BF900213520FFF728
:101A800047F9AF213620FFF743F900213720FFF750
:101A90003FF9DB213820FFF73BF900213920FFF720
:101AA00037F94FF480615020FFF732F940F60B010F
:101AB0005120FFF72DF940F60C615220FFF728F96D
:101AC00040F203115320FFF723F940F60E41542052
:101AD000FFF71EF940F608315520FFF719F90421E8
:101AE0005620FFF715F940F201315720FFF710F9A2
:101AF0004FF460615820FFF70BF90E215920FFF7D2
:101B000007F9052001F07AF841F217010720FFF7E5
:101B1000FFF8142001F072F810BD0000800123428C
:101B2000000023422DE9F04F89B04FF0000800205B
:101B3000049000BF1F20FE4908804FF6FF70FD494A
:101B40000880FFF71CF84FF47840F94908804FF6F9
:101B5000FF70FFF714F80020F54908804FF4784231
:101B60001421084600F09CFA0020F34981F8200077
:101B7000486282E2F048416801208847EE4890F8C8
:101B8000200000F0C000402879D100200490EA48ED
:101B900090F8200020F04000E74981F82000084636
:101BA000808905A921F82800E348C08A01EB880153
:101BB000488008F1010000F0FF08B8F1010F09D0DA
:101BC000B8F1020F13D0B8F1030F1DD0B8F1040F14
:101BD0000CD126E04FF6FF721421084600F060FA9F
:101BE0004FF478421421C82000F05AFA35E24FF63B
:101BF000FF721421C82000F053FA4FF478429C2160
:101C0000142000F04DFA28E24FF6FF729C211420B8
:101C100000F046FA4FF478429C21C82000F040FAC8
:101C20001BE2BDF81410BDF81820881A002801DB4B
:101C3000014600E041420C46BDF81620BDF81A10DE
:101C4000501A002801DB014600E041420D46644382
:101C50006D43601904F02DFBCDE9000103F00EFC8B
:101C6000CDE9020104F0F8FA1FFA80FABDF81C1061
:101C7000BDF82020881A002802DB014601E0EDE1D2
:101C800041420C46BDF81E20BDF82210501A002813
:101C900001DB014600E041420D4664436D4360199B
:101CA00004F007FBCDE9000103F0E8FBCDE90201F8
:101CB00004F0D2FA1FFA80FB584604F05DFE039050
:101CC000504604F059FE0290039904F03FFD81460E
:101CD00004F0AEFC06460F464FF06632974B304696
:101CE000394604F0F9FA0CD3954A964B30463946FA
:101CF00004F082FB05D3BAF1000F02D0BBF1000F54
:101D00000ED14FF000084FF6FF729C21C82000F062
:101D1000C7F94FF478421421084600F0C1F9ACE14C
:101D2000BDF81410BDF81C20881A002801DB0146FC
:101D300000E041420C46BDF81620BDF81E10501AB6
:101D4000002801DB014600E041420D4664436D433B
:101D5000601904F0AEFACDE9000103F08FFBCDE984
:101D6000020104F079FA1FFA80FABDF81810BDF8E4
:101D70002020881A002801DB014600E041420C4681
:101D8000BDF81A20BDF82210501A002801DB0146C8
:101D900000E041420D4664436D43601904F089FA46
:101DA000CDE9000103F06AFBCDE9020104F054FA29
:101DB0001FFA80FB584604F0DFFD0390504604F004
:101DC000DBFD0290039904F0C1FC814604F030FC75
:101DD00006460F464FF06632584B3046394604F0FF
:101DE0007BFA06D3564A574B3046394604F004FB7B
:101DF0000ED24FF000084FF6FF729C21C82000F071
:101E00004FF94FF478421421084600F049F934E1C3
:101E1000BDF81810BDF81C20881A002801DB014607
:101E200000E041420C46BDF81A20BDF81E10501AC1
:101E3000002801DB014600E041420D4664436D434A
:101E4000601904F036FACDE9000103F017FBCDE983
:101E5000020104F001FA1FFA80FABDF81410BDF86F
:101E60002020881A002801DB014600E041420C4690
:101E7000BDF81620BDF82210501A002801DB0146DB
:101E800000E041420D4664436D43601904F011FACD
:101E9000CDE9000103F0F2FACDE9020104F0DCF92A
:101EA0001FFA80FB584604F067FD0390504604F08B
:101EB00063FD0290039904F049FC814604F0B8FBED
:101EC00006460F464FF066321C4B3046394604F04A
:101ED00003FA06D31A4A1B4B3046394604F08CFAF3
:101EE0000ED24FF000084FF6FF729C21C82000F080
:101EF000D7F84FF478421421084600F0D1F8BCE03E
:101F0000BDF81810BDF81420881A04F01DFD814694
:101F100049460D4804F01AFC07494862BDF81810FC
:101F2000BDF81420881804F00FFD019002480DE060
:101F30005400002056000020580000206666EE3F46
:101F4000CDCCCCCCCCCCF03F00003443416A0198DE
:101F500004F026FD4B49029004F0EEFD4FF0804165
:101F6000039004F0F3FB814604F0B2FC00B2464952
:101F70008885BDF81E10BDF81620881A04F0E4FC10
:101F800081464946414804F0E1FB3F498862BDF87B
:101F90001E10BDF81620881804F0D6FC01903A48AF
:101FA000816A019804F0FCFC3949029004F0C4FDF8
:101FB00081464FF0804104F0C9FB039004F088FC97
:101FC00000B23149C885486A04F082FC03900028B9
:101FD00001DB039801E00398404202280CDC2A4907
:101FE000886A04F075FCB0F1000901DB484601E0A5
:101FF000C9F1000002281DDD4FF000084FF6FF7206
:102000009C21C82000F04CF84FF478421421084677
:1020100000F046F81C4890F8300008B9012000E0B4
:102020000020194981F8300090201A490870D0200A
:10203000194908701F20194908804FF6FF70FEF7F4
:102040009EFD4FF47A7000F0D9FD00F0DFF900201A
:10205000FEF795FD09B0BDE8F08F00BF0A2000F043
:10206000CDFD0498401C80B204900498B0F57A7FAE
:1020700002DD00F059F801E000BF7BE500BF00BFC2
:10208000E8E7000000005C4358000020000008431F
:10209000000030438C0000208D0000205400002000
:1020A000F8B504460D4616461E48068004F10D019B
:1020B0008AB2193988B22B4629460096FEF769FD87
:1020C00005F10D0083B2193881B2224620460096F0
:1020D000FEF75FFD6A1C91B2621C90B2114A128831
:1020E000FFF770FA6A1C91B2621E90B20D4A128814
:1020F000FFF768FA6A1E91B2621C90B2094A128810
:10210000FFF760FA6A1E91B2621E90B2054A128809
:10211000FFF758FA334602222946204600F0A5FF71
:10212000F8BD00005400002010B50E20FEF738F96D
:1021300004460A2C0CD10E2206490020FEF71FF996
:10214000902005490870D02004490870012010BD76
:102150000020FCE77C0000208C0000208D00002087
:1021600008B501214020FEF77DFE1020ADF80000EB
:102170008DF8030003208DF8020069462348FEF71E
:10218000B5FA10212148FEF747FB2020ADF80000EA
:1021900048208DF8030069461C48FEF7A7FA202165
:1021A0001A48FEF739FB4820ADF8000010208DF8E2
:1021B000030003208DF8020069461448FEF796FAE2
:1021C00048211248FEF728FB0420ADF80000482003
:1021D0008DF8030069460D48FEF788FA04210B4884
:1021E000FEF71AFB0A49A1F10A0000F097F8FEF782
:1021F000C2F8FFF799FF08B1002008BD4FF6FF7045
:10220000FEF7BDFCFFF78EFC0120F6E70018014049
:102210006E00002070B506460025002400201F49EE
:1022200008601F49C1F898011C49091F0860304621
:1022300000F082F9062000F007FD00201849C1F8DF
:102240009001012000F000FD01201449086000F019
:10225000FBFC00201249C1F8900100BF15E04FF6C9
:10226000FF7000EA440400200C490860012000F0DF
:10227000EBFC01200A49C1F8900108487C3800684D
:1022800008B1601C84B2681CC5B2102DE7DB2411B4
:1022900001200249091F0860204670BD90012342B9
:1022A000000023422DE9FE4380460027002406E07B
:1022B0004046FFF7AFFF2DF81400601C84B2052CD8
:1022C000F6DB002416E0601C85B20FE03DF8140038
:1022D0003DF81510884207DD3DF814603DF8150003
:1022E0002DF814002DF81560681C85B2052DEDDB66
:1022F000601C84B2042CE6DB0027012405E03DF8D5
:102300001400384487B2601C84B2042CF7DB03202D
:1023100097FBF0F086B23046BDE8FE832DE9F04130
:1023200004460D4607480078FFF7BCFF06460648FE
:102330000078FFF7B7FF074626802F800120BDE811
:10234000F08100008D0000208C0000207FB5044645
:102350000D4602A903A8FFF7E1FF064616B90020C3
:1023600004B070BD694601A8FFF7D8FF06460EB954
:102370000020F5E7BDF80400BDF80C10884206DC2B
:10238000BDF80C10BDF80400323081420CDBBDF802
:102390000C00BDF80410884236DCBDF80410BDF80E
:1023A0000C00323081422FDABDF80000BDF8081071
:1023B000884206DCBDF80810BDF8000032308142CA
:1023C0000CDBBDF80800BDF8001088421CDCBDF82D
:1023D0000010BDF808003230814215DABDF80C104B
:1023E000BDF80420881800EBD071C1F34F012180A3
:1023F000BDF80810BDF80020881800EBD071C1F3BB
:102400004F0129800120ABE70020A9E710B50E227B
:1024100004490020FDF7F1FF0A210E20FDF7FFFF20
:1024200010BD00007C0000202DE9F041044640482A
:102430000068002856D12CB13E49A1F10A00FFF7EF
:1024400085FF3DE03B49A1F10A00FFF77FFFB8B3EC
:1024500038491639B1F92C0004F076FA07463549A7
:102460001639888904F088FA804632481638416A5D
:10247000404604F095FA0646394604F005F905464B
:1024800004F042FA2B4916398881B1F92E0004F084
:102490005BFA074627491639C88A04F06DFA804668
:1024A00024481638816A404604F07AFA06463946CE
:1024B00004F0EAF8054604F027FA1E491639C882E6
:1024C0001C48163890F8200000F0800038BBC0206F
:1024D0001849163981F82000084681898182C18A0D
:1024E000C1831CE01348163890F8200000F08000EB
:1024F00050B11048163890F8200020F080000D49A7
:10250000163981F820000AE000210A481638818235
:10251000C1834FF6FF70074916398881C882054884
:10252000163890F8200000F08000BDE8F08100002F
:10253000080123426E00002070B50446002500BF4C
:1025400018E004F0800018B101200C49086002E096
:1025500000200A4908606006040E00200749083977
:102560000860012000F070FB01200549C1F89001CE
:10257000681CC5B2082DE4DB70BD00009801234241
:102580000000234210B540F225511D4800F03EF8EE
:1025900010B31B4800F064F8C4B21A48008800F475
:1025A0000040C8B91748008800F4804060B10A2C88
:1025B00003D000201349088020E01248008840F42E
:1025C00000401049088019E00D2C06D10D48008804
:1025D00040F480400B49088010E00A480088C0F3AE
:1025E0000D0009490C5407480088401C0549088023
:1025F00008460088C72801DD0020088010BD0000C3
:10260000003801401C0000209001002070B50246F7
:10261000002400230025002040F66A16B14200D1B4
:1026200000BFC1F3421501F01F03012606FA03F3B0
:10263000012D02D19689334006E0022D02D1168A7F
:10264000334001E0968A33400C12012606FA04F466
:102650001688344013B10CB1012000E0002070BD99
:1026600001468888C0F30800704700BFFEE72DE9E7
:10267000FF5F05460E4617469846DDE90F9A0E9C09
:102680004846FDF7E4FD00F0FF0B204604EBD07157
:10269000491001FB0BF189B20391A8EB0601081B5D
:1026A00000EBD07106EB610189B201917A1B0399AD
:1026B000501A00EBD07105EB610189B202912346FB
:1026C0004A46CDF800A0DDE90110FFF715F9BDE895
:1026D000FF9F014600BF704710B501E000F00AF807
:1026E0000348807A0249097A8842F7D010BD000079
:1026F0000C0100207FB500F0CDFA044601200090C7
:1027000027481E234622002105690A20A8470128E0
:1027100002D1244908700624012C1BD0022C02D0BF
:10272000062C3AD12DE01F48007890B901201D49B0
:102730000870042040F21D511F221BA3CDE9003276
:10274000CDE9021019481E234622002145680A20BF
:10275000A84722E01348007890B901201149087079
:10276000042040F21D511F220FA3CDE90032CDE914
:1027700002100E481E234622002145680A20A84761
:102780000BE008480078012806D10548407A044942
:10279000887200200349087000BF00BF7FBD0000A1
:1027A0000C0100204C01002041555A00C0000020BF
:1027B0001FB51C48807A1B49097A88422FD11A49D3
:1027C0000868804704204FF6FF711F2217A3CDE948
:1027D0000032CDE9021014481E234622002144682D
:1027E0000A20A0474FF6FF7042F6123110A2CDE941
:1027F000002102900C4814235022552144691E20C8
:10280000A04700204FF6FF710CA2CDE900210290F5
:10281000054814235022552144696E20A047FFF734
:102820005BFF1FBD0C010020C000002041555A0075
:1028300041555A20434F4445000000002A202A20D9
:102840002A202A002DE9F84304460D4616461F4665
:10285000DDF820803B46324629462046CDF80080F0
:10286000FDF70BFFBDE8F88308B500209123DC22BB
:102870001F210090FDF701FF08BD08B50020B0231F
:10288000DC2201460090FDF7F8FE08BD10B50446B5
:1028900036480078A04209D13549886880473549D3
:1028A000086880473349C86880475EE02F48407811
:1028B000A04206D12E49886880472F490868804782
:1028C00053E02A488078A04206D129498868804789
:1028D0002A490868804748E024480079A04206D188
:1028E0002349886880472649086880473DE01F489B
:1028F000C078A04206D11E498868804721490868EF
:10290000804732E019484079A04206D118498868CA
:1029100080471D490868804727E014488079A04215
:1029200006D11349886880471849086880471CE029
:102930000E48007AA04206D10D49886880471449A4
:102940000868804711E00948C079A04206D10849CB
:10295000886880470F490868804706E00348407A46
:10296000A04202D10C490868804710BD0C0100202C
:10297000C0000020AC000020F4000020FC0000207B
:1029800020010020040100202C010020380100203B
:1029900044010020500100205C0100207FB500F0C0
:1029A00079F904460120009027481E234622002181
:1029B00005690A20A847012802D124490870062485
:1029C000012C1BD0022C02D0062C3AD12DE01F483E
:1029D000007890B9042040F21D511F221CA3CDE9BC
:1029E0000032CDE902101C481E2346220021456812
:1029F0000A20A84701201549087022E013480078F2
:102A000090B9042040F21D511F2211A3CDE90032DC
:102A1000CDE9021010481E234622002145680A20F5
:102A2000A8470120094908700BE0084800780128F0
:102A300006D10548407A044988720020034908708D
:102A400000BF00BF7FBD00000C010020F800002087
:102A500044454C4159000000C000002010B501E081
:102A6000FFF79CFF0348807A024949788842F7D0F3
:102A700010BD00000C0100201FB53D48807A3C4984
:102A80004978884270D13B490868804704204FF656
:102A9000FF711F2238A3CDE90032CDE9021035487D
:102AA0001E234622002144680A20A04704204FF636
:102AB000FF711F2232A3CDE90032CDE902102D486B
:102AC0001E235022002144688220A0472EA02FA15F
:102AD00014220092CDE901210390264832231E21C1
:102AE000C4680520A0472AA02AA114220092CDE99B
:102AF000012103901F4832231E21C4687320A04780
:102B000025A026A114220092CDE9012103901948A5
:102B100032234621C4680520A04721A021A1142208
:102B20000092CDE901210390124832234621C46866
:102B30007320A0471CA01DA114220092CDE9012101
:102B400003900C4832236E21C4680520A04718A0CA
:102B500018A114220092CDE90121039005483223E7
:102B60006E21C4687320A047FFF778FF1FBD0000E7
:102B70000C010020C000002044454C4159000000D9
:102B80004F50454E312F3200310000004348310094
:102B90003200000043483200330000004348330055
:102BA000340000004348340035000000434835003D
:102BB000360000004348360010B56FF00400FEF701
:102BC000BBFC0A4800680A49B0FBF1F009490870EB
:102BD0000846007800EB4001C1EBC0104FF6FF71D2
:102BE00001EAC0000449088010BD00000000002078
:102BF00000127A0014000020160000200146114A3D
:102C000012884A434FF0E0235A6100229A611A4623
:102C1000126942F001021A6100BF4FF0E022106910
:102C200000F001021AB100F48032002AF5D04FF012
:102C3000E022126922F001024FF0E0231A61002223
:102C40009A617047160000200146114A12784A43E3
:102C50004FF0E0235A6100229A611A46126942F04D
:102C600001021A6100BF4FF0E022106900F001027A
:102C70001AB100F48032002AF5D04FF0E022126938
:102C800022F001024FF0E0231A6100229A6170479E
:102C90001400002010B522480068224909788842B3
:102CA0003BD0C820FFF7D0FF1D4800681D490978B8
:102CB000884232D01B48007801280BD11848001DEB
:102CC0000068012802D11849087022E00120174944
:102CD00008701EE014480078012808D11048001D33
:102CE000006888B9002010490870012010BD0F4805
:102CF0000078012808D10A48001D006820B1002092
:102D00000A4908700220F1E70020084908700649C6
:102D10000870034800680349087000F009F8E5E707
:102D2000388121424900002048000020470000204F
:102D300010B50C48007868B10B48006850B96420A1
:102D4000FFF75CFF0020074908700748006838B9A2
:102D5000062010BD04480068012801D1014908700F
:102D60000320F6E74C000020308121422DE9FC478A
:102D700004460D4616461F46DDE90A893B463246A3
:102D800029462046CDE9008900F019F8A8F1010094
:102D900080B2A7F1010C1FFA8CF3A6F1010C1FFA07
:102DA0008CF205F1010C1FFA8CF104F1010CCDE954
:102DB00000091FFA8CF000F002F8BDE8FC872DE94D
:102DC000F04385B005460E4617469846DDE90C49A6
:102DD000391B8AB2291988B233463146CDF80090A2
:102DE000FDF7D7FEA8EB040083B2301981B22A4662
:102DF0002846CDF80090FDF7CCFEA8EB040083B286
:102E0000301981B23A463846CDF80090FDF7C1FE40
:102E1000391B8AB2291988B243464146CDF8009041
:102E2000FDF7B7FE0021301980B2CDE902490491C7
:102E30000190281980B20090301983B2281982B20B
:102E40003146284600F03DF80021301980B2CDE926
:102E5000024904910190381B80B231198BB2391BA1
:102E6000009088B23A46314600F02BF80021A8EBDA
:102E7000040080B2CDE9024904910190281980B282
:102E80000090281982B2A8EB040081B2434628467C
:102E900000F017F80021A8EB040080B2CDE9024948
:102EA00004910190381B80B2A8EB040291B23A1B46
:102EB000009090B243463A4600F003F805B0BDE8F2
:102EC000F0832DE9FF4F85B0DDE914ABDDE9128910
:102ED000002455460320A0EB4A0725E0169870B160
:102EE000264609E0CDE9036BCDE90089029405A8E7
:102EF0000FC800F01EF8761CAE42F3DD08E0CDE905
:102F0000035BCDE90089029405A80FC800F011F811
:102F1000641C002F03DAA000801D074404E0601B3E
:102F200080000A3007446D1EAC42D7DD09B0BDE811
:102F3000F08F2DE9FF4F83B081468A46934610AC4F
:102F400094E8F001E81B80B2A11989B2CDE901082B
:102F500000915A4651464846069B00F05EF8A81B71
:102F600080B2E11989B2CDE9010800915A46514673
:102F70004846069B00F051F8A81980B2E11989B2C1
:102F8000CDE9010800915A4651464846069B00F09B
:102F900044F8E81980B2A11989B2CDE9010800917D
:102FA0005A4651464846069B00F037F8E81980B269
:102FB000A11B89B2CDE9010800915A465146484605
:102FC000069B00F02AF8A81980B2E11B89B2CDE96E
:102FD000010800915A4651464846069B00F01DF8EC
:102FE000A81B80B2E11B89B2CDE9010800915A46C5
:102FF00051464846069B00F010F8E81B80B2A11B22
:1030000089B2CDE9010800915A4651464846069BCF
:1030100000F003F807B0BDE8F08F2DE9F047064651
:103020000F4690469946DDE9095A089C44450ADC5A
:10303000B44208DB4D4506DCBD4204DB524629465E
:103040002046FEF7BFFABDE8F087F8B506460F4602
:1030500014461D4604B9F8BD0123224639463046C0
:103060000095FDF70AFB00BFF5E72DE9F05F074685
:10307000884616469A4640F2C32070434FF47A7150
:10308000B0FBF1F000F1010906FB06F000EB560B76
:10309000344671040A0CB91B88B253464146FFF707
:1030A000D4FF012535E005FB05F004FB040058457D
:1030B0001AD94C4517D96B1E5B041A0C08EB040394
:1030C00099B27B1B5B1C98B25346FFF7BEFF6B1E89
:1030D0005B041A0CA8EB040399B27B1B5B1C98B22F
:1030E0005346FFF7B2FF641E63041A0C08EB050396
:1030F00099B23B1B98B25346FFF7A7FF63041A0C23
:10310000A8EB050399B23B1B98B25346FFF79DFF0E
:103110006D1C4D45C7D9BDE8F09F000010B501E01A
:1031200000F00AF80348807A024909788842F7D00B
:1031300010BD00000C01002010B586B0FFF7AAFDFD
:10314000059001200090FC4800691E2346220021C2
:1031500004900A20049CA047012803D1F749087075
:103160000620059002200090F348006928231A46A3
:103170005A2104900520049CA047022803D1EF495E
:1031800008700620059003200090EB480069282372
:103190001A465A2104903D20049CA047032803D1DD
:1031A000E64908700620059004200090E248006976
:1031B00028231A465A2104907520049CA04704280D
:1031C00003D1DE4908700620059005200090DA48FA
:1031D000006928231A465A210490AD20049CA04778
:1031E000052803D1D54908700620059006200090D7
:1031F000D148006928231A46872104900520049CA1
:10320000A047062802D1CD490870059007200090FC
:10321000C948006928231A46872104903D20049C50
:10322000A047072803D1C54908700620059008204B
:103230000090C148006928231A4687210490752010
:10324000049CA047082803D1BC49087006200590BB
:1032500009200090B848006928231A468721049065
:10326000AD20049CA047092803D1B449087006206A
:103270000590059801287CD0022802D0062879D133
:10328000FAE33220FFF7BAFCAC480078A8B9042072
:1032900040F21D511F22AAA3CDE90032CDE9021050
:1032A000A94840681E234622002104900A20049C5D
:1032B000A0470120A149087021E2A0480078012818
:1032C00027D104204FF6FF711F229DA3CDE90032C4
:1032D000CDE902109C4840681E234622002104903C
:1032E0000A20049CA047182040F21D51012297A3F8
:1032F000CDE90032CDE902109348406A28231A46EE
:103300005A2104900520049CA04702208B49087094
:10331000F5E18A480078022842D101218C48FDF766
:1033200070FA90B118204FF47841012287A3CDE9BB
:103330000032CDE902108448406A28231A465A21F7
:1033400004900520049CA04711E018204FF4784118
:1033500000227EA3CDE90032CDE902107A48406A0E
:1033600028231A465A2104900520049CA0471820BF
:1033700001E0C5E1FDE340F21D51012275A3CDE955
:103380000032CDE902107048406A28231A465A21BB
:1033900004903D20049CA047032068490870AEE1DA
:1033A0006648007803283FD102216948FDF729FAD1
:1033B00090B118204FF47841012266A3CDE9003284
:1033C000CDE902106048406A28231A465A21049029
:1033D0003D20049CA04711E018204FF478410022C2
:1033E0005CA3CDE90032CDE902105748406A28239A
:1033F0001A465A2104903D20049CA047182040F210
:103400001D51012254A3CDE90032CDE902104E48EE
:10341000406A28231A465A2104907520049CA0472C
:103420000420464908706AE14448007804283FD1E6
:1034300004214748FDF7E5F990B118204FF4784191
:10344000012245A3CDE90032CDE902103E48406A91
:1034500028231A465A2104907520049CA04711E0A5
:1034600018204FF4784100223BA3CDE90032CDE98A
:1034700002103548406A28231A465A2104907520C4
:10348000049CA047182040F21D51012233A3CDE92E
:103490000032CDE902102C48406A28231A465A21EE
:1034A0000490AD20049CA04705202449087026E123
:1034B00022480078052855D108212548FDF7A1F9B3
:1034C00090B118204FF47841012224A3CDE90032B5
:1034D000CDE902101C48406A28231A465A2104905C
:1034E000AD20049CA04711E018204FF47841002241
:1034F0001AA3CDE90032CDE902101348406A28230F
:103500001A465A210490AD20049CA047182040F28E
:103510001D51012212A3CDE90032CDE902100A4863
:10352000406A28231A46872104900520049CA0475E
:10353000062002490870E2E00C010020BD000020D6
:10354000484F4D4500000000C00000203100000041
:103550000010014032000000330000003400000081
:1035600035000000F7480078062841D11021F648C0
:10357000FDF747F998B118204FF478410122AFF2D6
:103580002003CDE90032CDE90210F048406A28233B
:103590001A46872104900520049CA04712E01820B9
:1035A0004FF478410022AFF24803CDE90032CDE973
:1035B0000210E648406A28231A4687210490052015
:1035C000049CA047182040F21D510122E0A3CDE940
:1035D0000032CDE90210DD48406A28231A468721CF
:1035E00004903D20049CA0470720D649087086E03F
:1035F000D448007807283FD12021D348FDF701F9AE
:1036000090B118204FF478410122D1A3CDE90032C6
:10361000CDE90210CD48406A28231A46872104903C
:103620003D20049CA04711E018204FF4784100226F
:10363000C7A3CDE90032CDE90210C448406A28236F
:103640001A46872104903D20049CA047182040F290
:103650001D510122BFA3CDE90032CDE90210BB48C4
:10366000406A28231A46872104907520049CA047AD
:103670000820B449087042E0B248007808283ED1DA
:103680004021B148FDF7BDF890B118204FF47841C2
:103690000122B0A3CDE90032CDE90210AB48406A67
:1036A00028231A46872104907520049CA04711E026
:1036B00018204FF478410022A6A3CDE90032CDE9CD
:1036C0000210A248406A28231A46872104907520D8
:1036D000049CA047182040F21D5101229EA3CDE971
:1036E0000032CDE902109948406A28231A46872102
:1036F0000490AD20049CA04709209249087038E24C
:103700003220FFF77BFA8F480078B0B9042040F2EE
:103710001D511F22AFF2D813CDE90032CDE90210BE
:103720008A4840681E234622002104900A20049CF7
:10373000A04701208349087045E2824800780228AA
:1037400042D1042040F21D511F22AFF20C23CDE9DB
:103750000032CDE902107D4840681E234622002138
:1037600004900A20049CA04701217748FDF749F8FE
:1037700098B118204FF478410122AFF23023CDE9FF
:103780000032CDE902107148406A28231A465A21B6
:1037900004900520049CA04712E018204FF47841C3
:1037A0000022AFF25823CDE90032CDE9021067487C
:1037B000406A28231A465A2104900520049CA047F9
:1037C000012060490870FEE15E480078032842D17C
:1037D00002215D48FDF715F898B118204FF47841A3
:1037E0000122AFF29023CDE90032CDE90210574813
:1037F000406A28231A465A2104903D20049CA04781
:1038000012E018204FF478410022AFF2B823CDE93E
:103810000032CDE902104D48406A28231A465A2149
:1038200004903D20049CA047182040F21D51012225
:10383000AFF2E823CDE90032CDE902104348406AF7
:1038400028231A465A2104900520049CA0470220F0
:103850003C490870B7E13B480078042842D1182061
:1038600040F21D510122AFF21433CDE90032CDE90F
:1038700002103648406A28231A465A2104903D20F7
:10388000049CA04704213048FCF7BBFF98B11820E6
:103890004FF478410122AFF24033CDE90032CDE957
:1038A00002102A48406A28231A465A21049075209B
:1038B000049CA04712E018204FF478410022AFF298
:1038C0006833CDE90032CDE902102048406A282350
:1038D0001A465A2104907520049CA04703201949D8
:1038E000087070E11748007805284ED1182040F282
:1038F0001D510122AFF2A033CDE90032CDE9021013
:103900001248406A28231A465A2104907520049CC4
:10391000A04708210C48FCF774FFF8B118204FF4B9
:1039200078410122AFF2CC33CDE90032CDE902106B
:103930000648406A28231A465A210490AD20049C68
:10394000A0471EE0BD00002000100140C000002084
:1039500036000000370000003800000018204FF447
:1039600078410022AFF20C43CDE90032CDE90210DC
:10397000FA48406A28231A465A210490AD20049C34
:10398000A0470420F64908701DE1F5480078062894
:1039900042D1182040F21D510122AFF24043CDE93F
:1039A0000032CDE90210ED48406A28231A465A2118
:1039B0000490AD20049CA0471021EA48FCF721FFA9
:1039C00098B118204FF478410122AFF26C43CDE951
:1039D0000032CDE90210E148406A28231A468721C7
:1039E00004900520049CA04712E018204FF4784171
:1039F0000022AFF29443CDE90032CDE90210D7485E
:103A0000406A28231A46872104900520049CA04779
:103A10000520D3490870D6E0D1480078072843D163
:103A2000182040F21D510122AFF2CC43CDE9003203
:103A3000CDE90210C948406A28231A46872104901C
:103A40000520049CA0472021C648FCF7DAFEA0B15F
:103A500018204FF478410122AFF20C13CDE9003267
:103A6000CDE90210BD48406A28231A4687210490F8
:103A70003D20049CA04713E0A6E018204FF47841B5
:103A80000022AFF23413CDE90032CDE90210B34881
:103A9000406A28231A46872104903D20049CA047B1
:103AA0000620AF4908708EE0AD480078082842D162
:103AB000182040F21D510122AFF26C13CDE9003203
:103AC000CDE90210A548406A28231A4687210490B0
:103AD0003D20049CA0474021A248FCF792FE98B1EB
:103AE00018204FF478410122AFF29813CDE900324B
:103AF000CDE902109948406A28231A46872104908C
:103B00007520049CA04712E018204FF47841002251
:103B1000AFF2C013CDE90032CDE902108F48406A00
:103B200028231A46872104907520049CA04707206B
:103B30008B49087047E08A480078092843D118204B
:103B400040F21D510122AFF2F413CDE90032CDE96C
:103B500002108248406A28231A4687210490752063
:103B6000049CA04780217F48FCF74BFEA8B1182099
:103B700000E036E24FF478410122AFF22423CDE990
:103B80000032CDE902107548406A28231A46872181
:103B90000490AD20049CA04712E018204FF4784117
:103BA0000022AFF24C23CDE90032CDE902106B4880
:103BB000406A28231A4687210490AD20049CA04720
:103BC0000820674908700CE265480078012807D191
:103BD0006548407A64498872002061490870FFE1B5
:103BE0005F48007802283AD101215E48FCF709FEBF
:103BF00020B101215B48FCF70DFE03E0012159488B
:103C0000FCF70AFE01215748FCF7FBFD98B118208C
:103C10004FF478410122AFF2CC63CDE90032CDE917
:103C200002104E48406A28231A465A210490052063
:103C3000049CA047D4E118204FF478410022AFF251
:103C4000F463CDE90032CDE902104448406A2823EC
:103C50001A465A2104900520049CA047C0E1404820
:103C6000007803283AD102213E48FCF7CAFD20B172
:103C700002213C48FCF7CEFD03E002213948FCF765
:103C8000CBFD02213748FCF7BCFD98B118204FF45A
:103C900078410122AFF24473CDE90032CDE9021040
:103CA0002E48406A28231A465A2104903D20049C3D
:103CB000A04795E118204FF478410022AFF26C73D1
:103CC000CDE90032CDE902102448406A28231A4683
:103CD0005A2104903D20049CA04781E120480078AF
:103CE000042843D104211F48FCF78BFD20B1042197
:103CF0001C48FCF78FFD03E004211A48FCF78CFDFB
:103D000004211848FCF77DFD98B118204FF4784144
:103D10000122AFF2BC73CDE90032CDE902100F48A9
:103D2000406A28231A465A2104907520049CA04713
:103D300056E118204FF478410022AFF2E473CDE948
:103D40000032CDE902100548406A28231A465A215C
:103D500004907520049CA04742E10000C0000020B0
:103D6000BD000020001001400C010020A348007895
:103D700005283AD10821A248FCF743FD20B10821CB
:103D80009F48FCF747FD03E008219D48FCF744FDF0
:103D900008219B48FCF735FD98B118204FF4784175
:103DA0000122AFF64803CDE90032CDE90210954873
:103DB000406A28231A465A210490AD20049CA0474B
:103DC0000EE118204FF478410022AFF67003CDE9E0
:103DD0000032CDE902108B48406A28231A465A2146
:103DE0000490AD20049CA047FAE08448007806289F
:103DF0003AD110218248FCF704FD20B110218048FF
:103E0000FCF708FD03E010217D48FCF705FD1021BB
:103E10007B48FCF7F6FC98B118204FF4784101225A
:103E2000AFF6C403CDE90032CDE902107548406A0F
:103E300028231A46872104900520049CA047CFE040
:103E400018204FF478410022AFF6EC03CDE90032A0
:103E5000CDE902106B48406A28231A468721049056
:103E60000520049CA047BBE06448007807283AD1AD
:103E700020216348FCF7C5FC20B120216048FCF7F5
:103E8000C9FC03E020215E48FCF7C6FC20215C4809
:103E9000FCF7B7FC98B118204FF478410122AFF23B
:103EA0005053CDE90032CDE902105648406A28232C
:103EB0001A46872104903D20049CA04790E01820DA
:103EC0004FF478410022AFF27853CDE90032CDE9CA
:103ED00002104C48406A28231A46872104903D204E
:103EE000049CA0477CE04548007808283AD140214E
:103EF0004348FCF786FC20B140214148FCF78AFC8E
:103F000003E040213E48FCF787FC40213C48FCF799
:103F100078FC98B118204FF478410122AFF2CC53CD
:103F2000CDE90032CDE902103648406A28231A460E
:103F3000872104907520049CA04751E018204FF47D
:103F400078410022AFF2F453CDE90032CDE90210FE
:103F50002C48406A28231A46872104907520049C27
:103F6000A0473DE025480078092839D18021244820
:103F7000FCF747FC20B180212148FCF74BFC03E013
:103F800080211F48FCF748FC80211D48FCF739FCC4
:103F900098B118204FF478410122AFF24463CDE983
:103FA0000032CDE902101748406A28231A468721BB
:103FB0000490AD20049CA04712E018204FF47841F3
:103FC0000022AFF26C63CDE90032CDE902100D485A
:103FD000406A28231A4687210490AD20049CA047FC
:103FE00000BF00BF084800780A2804DB002006490B
:103FF000087000F0A9FD06B010BD0000BD00002053
:1040000000100140C0000020400000202DE9FE4FBC
:1040100005460F4614461E46DDE90E9BDDE90C8A77
:1040200042F612300090601F82B24B463946284655
:10403000FCF723FB40F21D50009028194B463246F6
:104040003946FCF71AFB4FF6FF70291931440090EE
:10405000881C4B4642463946FCF70FFB40F21D5088
:104060002919314441440090081D4B4652463946B7
:10407000FCF703FB4FF6FF7021A1102207EB0903A9
:10408000CDE900210290A9190A1928193946FEF72D
:10409000EEFA4FF6FF701BA1102207EB0903CDE9E2
:1040A00000210290A9194144091D51440A192919F6
:1040B00031444144081D3946FEF7D9FA0021102247
:1040C000109807EB0903CDE900200291A91941449A
:1040D0000A19291988193946FEF7C9FA4FF6FF70EF
:1040E000102107EB0903CDE9001B02902819401F9E
:1040F00082B239462846FEF7BAFABDE8FE8F0000C4
:104100002D0000002B00000008B501211020FCF755
:10411000A9FEFF20ADF8000010208DF80300032059
:104120008DF8020069460248FCF7E0FA08BD00007D
:104130000010014010B501E000F00AF80348807A51
:10414000024989798842F7D010BD00000C01002097
:104150007FB5FEF79FFD04460120009027481E23EF
:104160004622002105690A20A847012802D12449D6
:1041700008700624012C1BD0022C02D0062C3AD148
:104180002DE01F48007890B901201D4908700420D7
:1041900040F21D511F221BA3CDE90032CDE90210D0
:1041A00019481E234622002145680A20A84722E01C
:1041B0001348007890B9012011490870042040F29A
:1041C0001D511F220FA3CDE90032CDE902100E4888
:1041D0001E234622002145680A20A8470BE0084814
:1041E0000078012806D10548407A044988720020E9
:1041F0000349087000BF00BF7FBD00000C01002014
:104200004001002049500000C000002008B50121F5
:104210000820FCF727FE4FF47040ADF8000048205E
:104220008DF8030069460248FCF760FA08BD0000FB
:10423000000C0140FEF7C0FCFDF7AEFB0E4988689C
:1042400080470E4908688047FCF780FFFFF7DEFFD4
:104250000B49086880474FF4A060FCF7A3FD0949AB
:1042600048688047084800780749887203E0064A92
:10427000907AD1688847FAE7C000002058000020F3
:1042800050000020AC0000200C0100201CB50020D4
:10429000B023DC2201460090FCF7EFF9214849F6F3
:1042A000DD611E239B22CDE9001049212120FDF76D
:1042B00043FB4FF47A70FEF7A1FC1A4840F21D51FF
:1042C0001E239B22CDE9001049212120FDF734FB5C
:1042D0004FF47A70FEF792FC124843F639211E2300
:1042E0009B22CDE9001049212120FDF725FB4FF449
:1042F0007A70FEF783FC0B481F211E239B22CDE919
:10430000001049212120FDF717FB4FF47A70FEF7CA
:1043100075FC0020B023DC2201460090FCF7ADF9CB
:104320001CBD0000429700081FB5B148807AB04913
:10433000097888427DD1AF490868804704204FF64C
:10434000FF711F22ACA3CDE90032CDE90210A948CC
:104350001E234622002144680A20A0474FF6FF7022
:104360001823A7A2302100900A20FDF7C5FA4FF6C6
:10437000FF7005215523D722CDE900102321052008
:10438000FEF7F4FC0121A248FCF73BFA80B11820AB
:104390004FF4784101229FA3CDE90032CDE902100C
:1043A000944828231A465A21446A0520A0470FE062
:1043B00018204FF47841002296A3CDE90032CDE9D0
:1043C00002108C4828231A465A21446A0520A04727
:1043D00010218F48FCF715FA80B118204FF478416E
:1043E00001228DA3CDE90032CDE9021081482823B6
:1043F0001A468721446A0520A0470FE018204FF491
:104400007841002284A3CDE90032CDE90210794839
:1044100028231A468721446A0520A04702217C48A8
:10442000FCF7EFF990B118204FF4784101227BA3FB
:1044300000E0D9E0CDE90032CDE902106D48282333
:104440001A465A21446A3D20A0470FE018204FF435
:104450007841002271A3CDE90032CDE90210654810
:1044600028231A465A21446A3D20A0472021684843
:10447000FCF7C7F980B118204FF47841012268A3F6
:10448000CDE90032CDE902105A4828231A46872187
:10449000446A3D20A0470FE018204FF478410022E5
:1044A0005FA3CDE90032CDE90210524828231A4615
:1044B0008721446A3D20A04704215548FCF7A1F913
:1044C00080B118204FF47841012256A3CDE9003283
:1044D000CDE90210474828231A465A21446A75201C
:1044E000A0470FE018204FF4784100224DA3CDE9FA
:1044F0000032CDE902103F4828231A465A21446A67
:104500007520A04740214248FCF77BF980B1182074
:104510004FF47841012244A3CDE90032CDE90210E5
:10452000344828231A468721446A7520A0470FE0A3
:1045300018204FF4784100223BA3CDE90032CDE9A9
:1045400002102C4828231A468721446A7520A04768
:1045500008212F48FCF755F980B118204FF4784115
:10456000012232A3CDE90032CDE9021021482823EF
:104570001A465A21446AAD20A0470FE018204FF494
:104580007841002229A3CDE90032CDE90210194873
:1045900028231A465A21446AAD20A04780211C488E
:1045A000FCF72FF980B118204FF47841012220A3A5
:1045B000CDE90032CDE902100E4828231A468721A2
:1045C000446AAD20A0470FE018204FF47841002244
:1045D00017A3CDE90032CDE90210064828231A4678
:1045E0008721446AAD20A0471249C86880471FBD93
:1045F0000C010020C0000020484F4D450000000085
:10460000564F4C543A2020202020202056000000F5
:1046100000100140310000003500000032000000B1
:1046200036000000330000003700000034000000B6
:1046300038000000AC0000202DE9FE4F04460D4676
:1046400016461F46DDE90D9ADDF830803B463246BE
:1046500029462046CDF80090FCF70FF81020EB1902
:10466000A21929468DE801052046FEF700F8BDE8AD
:10467000FE8F2DE9FE4304460D4616461F46DDE932
:104680000A890220EB19A2192946CDE90008204623
:10469000FEF76CFB4FF6FF701021EB19A219CDE964
:1046A0000019029029462046FDF7E1FFBDE8FE8390
:1046B0002DE9F04F85B006460F4614461D46DDF83D
:1046C00038B001220023A04604EBD870C0F34F009D
:1046D000A94605EBD97107EB610189B2A246CDE984
:1046E0000332CDE9011004EBDA7006EB600080B212
:1046F0007B193219009019483946D0F810C030465D
:10470000E04704EBD872C2F34F0205EBD97307EB15
:1047100063039BB2DDE90F01CDE90132CDE903105E
:1047200004EBDA7006EB600080B27B19321900905E
:104730000A483946D0F810C03046E0474FF6FF71BE
:1047400011987B193219CDE901B1009039463046F4
:10475000FDF78DFF05B0BDE8F08F000020000020C0
:104760002DE9FC5F06460C4617461D46DDE90DB8EF
:104770002B463A4621463046CDF800B0FBF77DFF88
:104780000F98A5F10A0909EBD97C04EB6C0C0CF12C
:104790000A0C1FFA8CF3CA460AEBDA7C04EB6C0CA9
:1047A0001FFA8CF106EB070C1FFA8CF206EB070CD4
:1047B000ACF10A0CCDE900801FFA8CF0FCF73FFA4F
:1047C000A5F1100909EBD97004EB600081B2102348
:1047D000CDF8008030460C9AFDF78EF8BDE8FC9FBE
:1047E00010B50648807A0549497A884203D10448C1
:1047F000016A0120884700F005F810BD0C01002077
:10480000C000002010B501E000F01AFA0348807AD9
:104810000249497A8842F7D010BD00000C010020FF
:104820002DE9FE4F07460E4690461C46DDE90C9AE0
:10483000002500200090A01C4FF6FF7101EA8003C4
:10484000424631463846FBF718FF00BF24E049F6E0
:10485000DD600090A01C00FB056081B2234642464B
:104860003846FBF70AFF002159F82500102206EB15
:10487000040CCDE900200291A01C00FB05C083B20E
:1048800007EB080082B2A01C00FB056081B238462D
:10489000FDF7EDFE681CC5B25545D8DBBDE8FE8FBF
:1048A0002DE9FE4F04460E4615461F46DDE90D9ADA
:1048B000DDF8308017488DE800073B462A46314630
:1048C000D0F814C02046E04700204FF6FF7112A236
:1048D000CDE9002102906119491DC8B20D49142388
:1048E0001E22D1F814C03146E0474FF6FF7040F267
:1048F0001D510AA2CDE90021029061192331C8B2ED
:10490000044914231E22D1F814C03146E047BDE803
:10491000FE8F0000C00000204F4E00004F464600B2
:1049200010B501E000F00AF80348807A024949799D
:104930008842F7D010BD00000C0100207FB5FEF7C3
:10494000A9F904460120009027481E234622002191
:1049500005690A20A847012802D1244908700624C5
:10496000012C1BD0022C02D0062C3AD12DE01F487E
:10497000007890B901201D490870042040F21D51B3
:104980001F221BA3CDE90032CDE9021019481E23D6
:104990004622002145680A20A84722E013480078F3
:1049A00090B9012011490870042040F21D511F22C6
:1049B0000FA3CDE90032CDE902100E481E23462296
:1049C000002145680A20A8470BE008480078012824
:1049D00006D10548407A04498872002003490870CE
:1049E00000BF00BF7FBD00000C010020340100208B
:1049F00050574400C00000201FB52B48807A2A4938
:104A0000497988424ED129490868804704204FF6E9
:104A1000FF711F2226A3CDE90032CDE90210234801
:104A20001E234622002144680A20A0474FF6FF704B
:104A300042F612311FA2CDE9002102901B48142337
:104A40003C22412144692820A0474FF6FF7042F6DE
:104A500012311AA2CDE900210290144814233C22FD
:104A60005A2144692820A04700204FF6FF7115A263
:104A7000CDE9002102900D481423502241214469C0
:104A80006420A04700204FF6FF710EA2CDE900215F
:104A900002900648142350225A2144696420A047FA
:104AA000FFF73EFF1FBD00000C010020C0000020EA
:104AB000505744004F4C4420505744004E45572017
:104AC000505744002A202A202A202A002DE9FE4F90
:104AD00007460E4690461C46DDE90D5ADDF830903B
:104AE000A01C00FB056081B2234642463846CDF843
:104AF00000A0FBF7C2FD002159F82500102206EBAB
:104B0000040CCDE900200291A01C00FB05C083B27B
:104B100007EB0802A01C00FB056081B23846FDF7D8
:104B2000A6FD042D0BD101200021CDE90010054880
:104B300087234B227D21D0F818C04120E047BDE8F3
:104B4000FE8F00002000002008B50020192332222B
:104B5000302100906420FBF790FD4FF6FF7000902D
:104B60001C481D490978425C182330216E20FCF74F
:104B700043FE1F201E232D2200210090AF20FBF7B3
:104B80007CFD4FF6FF7000901448027810230D2131
:104B9000AF20FCF731FE4FF6FF7000900F484278CF
:104BA00010230D21C620FCF727FE4FF6FF701023BF
:104BB0000BA20D210090BE20FCF79EFE0648007857
:104BC000401C05490870084600781C2801D10020C7
:104BD000087008BD90000020BC0000205802002092
:104BE0003A0000002DE9FE4F07460D4690461C4650
:104BF000DDE90D6ADDF83090A01C00FB065081B2A3
:104C0000234642463846CDF800A0FBF736FD00218A
:104C100059F82600102205EB040CCDE90020029182
:104C2000A01C00FB06C083B207EB0802A01C00FB1F
:104C3000065081B23846FDF71AFDBDE8FE8F000030
:104C40001FB5FEF727F8039001200090F84800698F
:104C500014235022202102900020029CA04701280A
:104C600003D1F44908700620039002200090F04818
:104C7000006914235022362102900020029CA04794
:104C8000022803D1EB49087006200390032000900E
:104C9000E7480069142350224C2102900020029C16
:104CA000A047032803D1E34908700620039004209D
:104CB0000090DF48006914235022622102900020F6
:104CC000029CA047042803D1DA490870062003900B
:104CD00005200090D64800691423502278210290C4
:104CE0000020029CA047052803D1D2490870062065
:104CF000039006200090CE480069142346223221FA
:104D000002905520029CA047062807D1CA48007887
:104D1000012803D10620C74908700390072000909E
:104D2000C348006914234622482102905520029C62
:104D3000A047072808D1C0480078012804D10720DF
:104D4000BC4908700620039008200090B84800690C
:104D5000142346225E2102905520029CA047082879
:104D600008D1B5480078012804D10820B14908705D
:104D70000620039009200090AD48006914234622C4
:104D8000742102905520029CA047092808D1AA4806
:104D90000078012804D10920A64908700620039054
:104DA0000A200090A248006914234622882102901C
:104DB0005520029CA0470A2808D19F480078012866
:104DC00004D10A209B49087006200390039801280B
:104DD0007ED0022802D006287BD19BE2954800783D
:104DE00080B901209349087040F21D500021934A78
:104DF0001423CDE900210290502220210020FFF74A
:104E000065FE40E18B48007801281DD102208949C8
:104E1000087049F6DD600021884A1423CDE900219D
:104E20000290502220210020FFF750FE40F21D503A
:104E30000121824A1423CDE9002102905022202131
:104E40000020FFF743FE1EE17A48007802281DD1BA
:104E500003207849087049F6DD600121774A142360
:104E6000CDE900210290502220210020FFF72EFEE4
:104E700040F21D500221714A1423CDE90021029015
:104E8000502220210020FFF721FEFCE06948007835
:104E900003281FD104206749087049F6DD6002210C
:104EA000664A1423CDE900210290502220210020DF
:104EB000FFF70CFE40F21D500321604A1423CDE998
:104EC00000210290502220210020FFF7FFFDDAE0B0
:104ED000DAE01EE25748007804281DD10520554924
:104EE000087049F6DD600321544A1423CDE90021FE
:104EF0000290502220210020FFF7E8FD40F21D50D3
:104F000004214E4A1423CDE9002102905022202191
:104F10000020FFF7DBFDB6E046480078052821D1E8
:104F20004548007801281DD140F21D500021444A17
:104F30001423CDE900210290462232215520FFF7AB
:104F400051FE49F6DD6004213C4A1423CDE90021DD
:104F50000290502220210020FFF7B8FD062035499D
:104F6000087090E03348007806281DD107203149A9
:104F7000087049F6DD600021314A1423CDE9002193
:104F80000290462232215520FFF72CFE40F21D50A0
:104F900001212B4A1423CDE900210290462232211F
:104FA0005520FFF71FFE6EE02248007807281DD12C
:104FB00008202049087049F6DD600121204A1423A9
:104FC000CDE900210290462232215520FFF70AFE4A
:104FD00040F21D5002211A4A1423CDE9002102900B
:104FE000462232215520FFF7FDFD4CE011480078A4
:104FF000082827D109200F49087049F6DD600221F1
:105000000F4A1423CDE90021029046223221552077
:10501000FFF7E8FD40F21D500321094A1423CDE9B2
:1050200000210290462232215520FFF7DBFD2AE0C5
:105030000C0100208C0100208D010020780100204F
:1050400064010020FC48007809281CD10A20FA4994
:10505000087049F6DD600321F84A1423CDE90021E8
:105060000290462232215520FFF7BCFD40F21D5030
:105070000421F24A1423CDE9002102904622322174
:105080005520FFF7AFFDF1E1EB48007880B9012032
:10509000E949087040F21D500021E94A1423CDE986
:1050A00000210290502220210020FFF70FFD30E167
:1050B000E148007802281DD10120DF49087040F244
:1050C0001D500021DE4A1423CDE900210290502218
:1050D00020210020FFF7FAFC49F6DD600121D84AC3
:1050E0001423CDE900210290502220210020FFF757
:1050F000EDFC0EE1D048007803281DD10220CE49F6
:10510000087049F6DD600221CD4A1423CDE9002163
:105110000290502220210020FFF7D8FC40F21D50C1
:105120000121C74A1423CDE90021029050222021F9
:105130000020FFF7CBFCECE0BF48007804281DD12D
:105140000320BD49087049F6DD600321BC4A1423E1
:10515000CDE900210290502220210020FFF7B6FC6B
:1051600040F21D500221B64A1423CDE900210290DD
:10517000502220210020FFF7A9FCCAE0AE480078A9
:1051800005281DD149F6DD600421AD4A1423CDE97F
:1051900000210290502220210020FFF797FC40F2CE
:1051A0001D500321A64A1423CDE90021029050226C
:1051B00020210020FFF78AFC04209F490870A8E006
:1051C0009D48007806281DD149F6DD6000219B4AE4
:1051D0001423CDE900210290462232215520FFF709
:1051E00001FD40F21D500421954A1423CDE9002110
:1051F0000290502220210020FFF768FC05208E49F4
:10520000087086E08C48007807281DD149F6DD60DB
:1052100001218A4A1423CDE900210290462232213D
:105220005520FFF7DFFC40F21D500021834A142374
:10523000CDE900210290462232215520FFF7D2FC11
:1052400006207D49087064E07B48007808281DD15D
:1052500049F6DD600221794A1423CDE9002102904C
:10526000462232215520FFF7BDFC40F21D5001219E
:10527000724A1423CDE900210290462232215520A2
:10528000FFF7B0FC07206C49087042E06A480078DC
:1052900009281DD149F6DD600321684A1423CDE9B0
:1052A00000210290462232215520FFF79BFC40F25C
:1052B0001D500221614A1423CDE9002102904622AB
:1052C00032215520FFF78EFC08205B49087020E052
:1052D000594800780A281CD149F6DD600421574A54
:1052E0001423CDE900210290462232215520FFF7F8
:1052F00079FC40F21D500321504A1423CDE90021CE
:105300000290462232215520FFF76CFC09204A49C1
:105310000870ABE048480078012809D14948007876
:1053200048498872002044490870474908709CE049
:1053300041480078022809D14248407841498872A2
:1053400000203D490870404908708EE03A480078D6
:10535000032809D13B4880783A49887200203649B1
:1053600008703949087080E033480078042809D172
:105370003448C0783349887200202F490870324978
:10538000087072E02C48007805281DD149F6DD60D0
:1053900004212B4A1423CDE9002102905022202120
:1053A0000020FFF793FB2948006A02900020029931
:1053B000884701202449087006201F4908704FF4CF
:1053C000C870FDF71BFC50E01B480078062809D187
:1053D0001C4800791B4988720020174908701A4937
:1053E000087042E014480078072809D11548407930
:1053F000144988720020104908701349087034E07D
:105400000D480078082809D10E48C0790D498872E6
:105410000020094908700C49087026E00648007809
:10542000092815D107488079064988720020024969
:1054300008700549087018E08C0100206401002004
:10544000780100200C0100208D010020C000002008
:10545000074800780A2808D10648007A054988726A
:105460000020034908700449087000BF00BF1FBD39
:105470008C0100200C0100208D0100202DE9F0415D
:1054800006460F4600F0EEFF04000D4618BF01204F
:10549000284320F00040C0F17F6000F1E040C00FE1
:1054A0000ED0301C18BF0120384320F00040C0F15E
:1054B0007F6000F1E040C00F04BF0120FAF721FF38
:1054C00020462946BDE8F08110B501E000F00AF859
:1054D0000348807A024989788842F7D010BD0000DD
:1054E0000C0100207FB5FDF7D5FB0446012000909C
:1054F00027481E234622002105690A20A8470128C3
:1055000002D1244908700624012C1BD0022C02D0A1
:10551000062C3AD12DE01F48007890B901201D4992
:105520000870042040F21D511F221BA3CDE9003258
:10553000CDE902101A481E234622002145680A20A0
:10554000A84722E01348007890B90120114908705B
:10555000042040F21D511F220FA3CDE90032CDE9F6
:1055600002100F481E234622002145680A20A84742
:105570000BE008480078012806D10548407A044924
:10558000887200200349087000BF00BF7FBD000083
:105590000C010020000100205357495443480000EB
:1055A000C00000201FB54E48807A4D498978884256
:1055B0007ED14C490868804704204FF6FF711F22B6
:1055C00049A3CDE90032CDE9021046481E23462208
:1055D000002144680A20A0474FF6FF701F2144A213
:1055E000CDE9002102903F4814231E222D21C469D9
:1055F0000A20A0474FF6FF701F213EA2CDE90021EF
:105600000290384814231E222D21C4697320A0471C
:105610004FF6FF701F2138A2CDE9002102903148DA
:1056200014231E224621C4690A20A0474FF6FF70AA
:105630001F2132A2CDE9002102902A4814231E2204
:105640004621C4697320A0474FF6FF701F212CA28A
:10565000CDE900210290234814231E225F21C46952
:105660000A20A0474FF6FF701F2126A2CDE9002196
:1056700002901C4814231E225F21C4697320A04796
:105680004FF6FF701F2120A2CDE90021029015489E
:1056900014231E227821C4690A20A0474FF6FF7008
:1056A0001F211AA2CDE9002102900E48142300E028
:1056B00012E01E227821C4697320A0474FF6FF70C4
:1056C0001F2113A2CDE900210290064814232822AD
:1056D00096214469AA20A047FFF7F6FE1FBD0000EF
:1056E0000C010020C00000205357495443480000DB
:1056F00043483100434832004348330043483400B4
:105700004348350043483600434837004348380093
:10571000534156450000000010B501E000F00AF8C2
:105720000348807A024909798842F7D010BD000009
:105730000C0100207FB5FDF7ADFA04460120009072
:1057400027481E234622002105690A20A847012870
:1057500002D1244908700624012C1BD0022C02D04F
:10576000062C3AD12DE01F48007890B901201D4940
:105770000870042040F21D511F221BA3CDE9003206
:10578000CDE902101A481E234622002145680A204E
:10579000A84722E01348007890B901201149087009
:1057A000042040F21D511F220FA3CDE90032CDE9A4
:1057B00002100F481E234622002145680A20A847F0
:1057C0000BE008480078012806D10548407A0449D2
:1057D000887200200349087000BF00BF7FBD000031
:1057E0000C0100202801002054494D450000000014
:1057F000C00000201FB56D48807A6C490979884245
:105800007DD16B490868804704204FF6FF711F2245
:1058100068A3CDE90032CDE9021065481E23462277
:10582000002144680A20A0474FF6FF7042F612316B
:1058300062A2CDE9002102905D4814232822412173
:1058400044690520A0474FF6FF7042F612315DA271
:10585000CDE9002102905648142328225A21446998
:105860000520A0474FF6FF7042F6123156A2CDE94F
:10587000002102904E4814232822732144690520F8
:10588000A04700204FF6FF7150A2CDE90021029001
:10589000474814233C22412144692D20A047002081
:1058A0004FF6FF714BA2CDE900210290404814232E
:1058B0003C225A2144692D20A04700204FF6FF7159
:1058C00045A2CDE900210290394814233C227321DE
:1058D00044692D20A0474FF6FF7042F612313FA2D7
:1058E000CDE9002102903248142328224121446945
:1058F0007320A0474FF6FF7042F6123100E054E0EB
:1059000037A2CDE9002102902948142328225A21E8
:1059100044697320A0474FF6FF7042F6123132A25D
:10592000CDE90021029022481423282273214469E2
:105930000846A04700204FF6FF712CA2CDE90021B8
:1059400002901B4814233C22412144699B20A0471C
:1059500000204FF6FF711FA2CDE9002102901448EC
:1059600014233C225A2144699B20A04700204FF673
:10597000FF711EA2CDE9002102900D4814233C22A4
:10598000732144699B20A0474FF6FF7042F6123105
:1059900017A2CDE900210290054814232822962160
:1059A0004469AA20A047FFF7B7FE1FBD0C010020E5
:1059B000C000002054494D450000000059454152A7
:1059C00000000000444159004D494E00323031374B
:1059D0000000000032000000380000004D4F4E0073
:1059E000484F555200000000534543003500000069
:1059F000534156450000000010B501E000F010FAD8
:105A00000348807A0249C9788842F7D010BD000067
:105A10000C01002010B586B0E048807ADF49C978D3
:105A200088427DD1DE4800680590804704204FF60B
:105A3000FF711F22DBA3CDE90032CDE90210D84867
:105A400040681E234622002105900A20059CA0479D
:105A500004204FF6FF711F22D4A3CDE90032CDE917
:105A60000210CF4840681E234B22002105908C2055
:105A7000059CA0474FF6FF7042F61231CDA2CDE94A
:105A800000210290C6484069142328222321059052
:105A90000520059CA047042000214FF6FF72C7A3F4
:105AA000CDE90032CDE90210BD48406814235522EB
:105AB000232105903220059CA047042000214FF6A9
:105AC000FF72C0A3CDE90032CDE90210B4484068AE
:105AD00014234B22232105908C20059CA0474FF6D0
