:020000040800F2
:1000000010080020CD01000863080008D70600088A
:100010005508000861030008D3160008000000001E
:10002000000000000000000000000000E50E0008D5
:1000300065030008000000005109000829100008AD
:10004000E7010008E7010008E7010008350C000897
:10005000E7010008E7010008E7010008E7010008E0
:10006000E7010008E7010008E7010008E7010008D0
:10007000E7010008E7010008E7010008E7010008C0
:10008000E7010008E7010008E7010008E7010008B0
:10009000E7010008E7010008E7010008E7010008A0
:1000A000E7010008E7010008E7010008E701000890
:1000B000E7010008E7010008E7010008E701000880
:1000C000E7010008E7010008E7010008E701000870
:1000D000E7010008ED150008E7010008E701000846
:1000E000E7010008E7010008E7010008E701000850
:1000F000E7010008E7010008E7010008E701000840
:10010000E7010008E7010008E7010008E70100082F
:10011000E7010008E7010008E7010008E70100081F
:10012000E7010008E7010008E7010008E70100080F
:1001300000F002F800F03AF80AA090E8000C8244BF
:100140008344AAF10107DA4501D100F02FF8AFF29C
:10015000090EBAE80F0013F0010F18BFFB1A43F0A5
:1001600001031847CC6E0000EC6E0000103A24BF6B
:1001700078C878C1FAD8520724BF30C830C144BF0C
:1001800004680C607047000000230024002500264E
:10019000103A28BF78C1FBD8520728BF30C148BFEA
:1001A0000B6070471FB51FBD10B510BD00F084F87F
:1001B0001146FFF7F7FF02F025F800F0A2F803B4AC
:1001C000FFF7F2FF03BC01F0B8FA000009488047CE
:1001D00009480047FEE7FEE7FEE7FEE7FEE7FEE729
:1001E000FEE7FEE7FEE7FEE704480549054A064B41
:1001F000704700002D100008310100081002002097
:10020000100800201004002010040020704710B5D2
:10021000431C02E010F8011B71B18107FAD14FF0C5
:10022000013202C88C1A8C4314EAC211F9D0C01AE8
:100230000A0603D0C01E10BDC01A10BD0A0401D0AA
:10024000801E10BD0902FCD0401E10BD10B5203A22
:10025000C0F00B80B1E81850203AA0E81850B1E87F
:100260001850A0E81850BFF4F5AF5FEA027C24BF35
:10027000B1E81850A0E8185044BF18C918C0BDE82C
:1002800010405FEA827C24BF51F8043B40F8043BF5
:1002900008BF7047D20728BF31F8023B48BF11F8AA
:1002A000012B28BF20F8023B48BF00F8012B704704
:1002B0007047704770477047754600F029F8AE46A2
:1002C00005006946534620F00700854618B020B562
:1002D000FFF78AFFBDE820404FF000064FF000070F
:1002E0004FF000084FF0000B21F00701AC46ACE8DE
:1002F000C009ACE8C009ACE8C009ACE8C0098D464B
:1003000070470446AFF300802046FFF758FF000017
:1003100000487047AC01002010B5012000F04AFBF6
:10032000002000F047FB10BD08B5014600200090FA
:10033000034800900098084400900098008808BD89
:10034000006C004008B500220092044A0092009A16
:1003500002440092009A116008BD0000006C004049
:1003600000BFFEE7704700000149086070470000C9
:1003700014040140002123498279002A3AD00A4618
:10038000126803689A430B461A600A1D12680368D4
:100390009A430B1D1A60027911440A6803681A43D4
:1003A0000A60184A0832126803689A43154B0833EA
:1003B0001A601A1D126803689A43124B0C331A60B4
:1003C0004279102A0ED11A1F126803681A430D4B86
:1003D00008331A601A1D126803681A43094B0C335C
:1003E0001A600DE00749427911440A6803681A430C
:1003F0000A6005E0027911440A6803689A430A60BA
:10040000704700000004014051B18200A2F1C042D7
:10041000126842F001038200A2F1C042136009E0B9
:100420008200A2F1C0421268034B1A408300A3F17C
:10043000C0431A6070470000FEFF0F00D0E90112B0
:100440001143C26811430269114342691143826931
:100450001143C2691143026A1143426A1143826A1D
:100460001143C26A1143026B114302689200A2F168
:10047000C0421160816808290BD101688900A1F18F
:10048000C041096841F0400201688900A1F1C04102
:100490000A60416B0968426B526841EA0211426B83
:1004A000926841EA0221426B928941EA0241426B21
:1004B000128A41EA0251426B127D41EA0261426BAB
:1004C000926911430268521C9200A2F1C04211606D
:1004D000C16AB1F5804F1BD1816B0968826B52688C
:1004E00041EA0211826B926841EA0221826B128A10
:1004F00041EA0251826B127D41EA0261826B92698C
:10050000114302689200A2F1C042C2F8041107E050
:100510006FF0704201688900A1F1C041C1F8042167
:1005200070472DE9F84F05460E4617461C46DDF884
:1005300028A023463A463146284600F0D5F930191E
:1005400080B20090684600F087F9BDF800102020C6
:1005500000F076F92946212000F072F9222000F0FF
:1005600067F94FF0000910E04FF0000806E0504630
:1005700000F056F908F1010000F0FF08601C80450A
:10058000F5DB09F1010000F0FF09781C8145EBDB88
:10059000BDE8F88F2DE9F041024600250026002035
:1005A00000230024002791F803C00CF00F0591F8F8
:1005B00003C00CF0100CBCF1000F03D091F802C086
:1005C0004CEA050591F800C0BCF1000F31D0146869
:1005D00000202BE04FF0010C0CFA00F3B1F800C042
:1005E0000CEA03069E4220D183004FF00F0C0CFA58
:1005F00003F7BC4305FA03FC4CEA040491F803C07A
:10060000BCF1280F06D14FF0010C0CFA00FCC2F827
:1006100014C00AE091F803C0BCF1480F05D14FF0B7
:10062000010C0CFA00FCC2F810C0401C0828D1D301
:100630001460B1F800C0BCF1FF0F34DD5468002035
:100640002EE000F1080C4FF0010808FA0CF3B1F8A5
:1006500000C00CEA03069E4221D183004FF00F0C2C
:100660000CFA03F7BC4305FA03FC4CEA040491F8C6
:1006700003C0BCF1280F05D100F1080C08FA0CF8F2
:10068000C2F8148091F803C0BCF1480F07D100F103
:10069000080C4FF0010808FA0CF8C2F81080401C52
:1006A0000828CED35460BDE8F0810246002093684C
:1006B0000B400BB1012000E00020704702460020F3
:1006C000D3680B400BB1012000E00020704741616E
:1006D00070470161704700BFFEE70146CA1701EB92
:1006E00092729210A1EB820292B9642091FBF0F217
:1006F00000FB121050B94FF4C87091FBF0F200FBF0
:10070000121008B9012070470020FCE70120FAE729
:100710000020F8E72DE9FF4F85B081468A4600208A
:10072000039083460798A0EB09050898A0EB0A06FA
:10073000CDF80890CDF804A0002D01DD012705E0DB
:100740000DB9002702E04FF0FF376D42002E02DDA9
:100750004FF0010806E016B94FF0000802E04FF034
:10076000FF387642B54201DD2C4600E034460020D9
:1007700004901EE0019A91B2029A90B2129A00F08F
:1007800085FC039828440390B3440398A04205DDF8
:100790000398001B0390029838440290A34504DD9F
:1007A000ABEB040B0198404401900498401C80B2CC
:1007B0000490611C04988842DCDD09B0BDE8F08F2C
:1007C0002DE9F84F07460D4690461E46DDF828A055
:1007D000701B00EBD07105EB61011FFA81F9002459
:1007E00015E009EB040C1FFA8CF3A8EB040C1FFABC
:1007F0008CF209EB040C1FFA8CF107EB040C1FFAC6
:100800008CF0CDF800A0FFF785FF601CC4B2701B10
:1008100000EBD071B4EB610FE3DBBDE8F88F0000B3
:100820000112024A11701070704700000000016050
:100830000112024A1170107070470000FFFF006043
:1008400010B504460B462046FFF7F2FF1846FFF7A7
:10085000E7FF10BD00BFFEE70188C1F1B0010180D4
:100860007047704770B5002100230F22C47804B38D
:10087000154C246804F4E064C4F5E064210AC1F175
:100880000403CA40447804FA03F1847814402143F5
:1008900009010E4C0678A155047804F01F050124C7
:1008A000AC4005786D11AD0005F1E025C5F80041BB
:1008B00009E0047804F01F050124AC40044D0678DB
:1008C000761145F8264070BD0CED00E000E400E034
:1008D00080E100E002490143024A116070470000D4
:1008E0000000FA050CED00E02DE9FC4105460C4640
:1008F00017461E46A01980B2009001946846FFF783
:10090000ABFF01A8FFF7A8FF3620FFF791FFBDF866
:100910000400FFF785FF3720FFF78AFFBDF80000CE
:10092000FFF77EFF3820FFF783FFE91988B2FFF752
:1009300077FF3920FFF77CFF2846FFF771FFBDE8FE
:10094000FC810000014908627047000000000E426F
:100950007047000029B1064A52690243044B5A61AC
:1009600004E0034A52698243014B5A617047000018
:100970000010024029B1064AD2690243044BDA61F1
:1009800004E0034AD2698243014BDA6170470000F8
:100990000010024029B1064A92690243044B9A6151
:1009A00004E0034A92698243014B9A617047000058
:1009B00000100240014908607047000040044242B4
:1009C00010B501460022002300204A11012A02D15D
:1009D000094C236806E0022A02D1074C236A01E091
:1009E000054C636A01F01F02012494401C400CB1C5
:1009F000012000E0002010BD0010024000210B4A41
:100A000011700A4A203A82F82010012802D00428E6
:100A100008D103E00121054A117004E00521034AD1
:100A2000117000E000BF00BF7047000020100240BE
:100A300001490860704700003C0442420249096ACB
:100A40000143014A116270470010024002490988BF
:100A50008143014A11807047042800400348008800
:100A600040F0100001490880704700000428004051
:100A7000034800884FF6EF7108400149088070472D
:100A80000428004070B500260024002500F07AF804
:100A900006463848B6FBF0F437480088A0423CD000
:100AA00035490C8040F2B27510E02846FFF715FE7C
:100AB00040B1B4F5B77F02D3A4F5B77404E0681C65
:100AC00085B206E0A4F26D14681C85B2B4F5B67F59
:100AD000EBD800BF29488580002516E02749888883
:100AE000FFF7FBFD30B1012D04D11D2C01D31D3CBE
:100AF00009E00CE02248405DA04203D82048405D58
:100B0000241A00E003E0681C85B21C2CE6D200BF6A
:100B1000681C1A498871601CC8711648B6FBF0F150
:100B200000FB11644FF46160B4FBF0F013490870EE
:100B30004FF46160B4FBF0F100FB11403C21B0FBCD
:100B4000F1F00E4948704FF46160B4FBF0F100FB26
:100B500011403C21B0FBF1F201FB12000749887003
:100B60000B46DA799979988800F028F803490872D9
:100B7000002070BD805101005E000020A001002017
:100B8000B06F0008002103480188001F008841EA77
:100B9000004070471C28004001460020064A128889
:100BA0000A40D0B2044A121F12880A4012B108B19A
:100BB000012000E00020704704280040F0B5034603
:100BC0000C461546642093FBF0F0C6B2642093FBFC
:100BD000F0F700FB1730C1B2132E02DD01F1640003
:100BE000C1B20846CF1701EB977701EBA707BAB25E
:100BF000072092FBF0F700FB172082B25719601E06
:100C0000DFF82CC01CF80000384482B2CF1701EB8B
:100C10009777BF10A1EB87071FB9032C01DA501E8D
:100C200082B2072092FBF0F700FB1720C0B2F0BDA4
:100C3000A46F000810B50120FFF7AEFF30B10648E1
:100C40000078401C04490870FFF71CFF0520FFF7DF
:100C5000FDFE00F02BF910BD5C00002029B1064A12
:100C600012880243044B1A8004E0034A128882432C
:100C7000014B1A8070470000002800401CB500247A
:100C800001214FF0C050FFF775FE0120FFF75AFE1B
:100C90000420FFF749FBB0F5A04F44D0FFF73CFB21
:100CA0000120FFF7ABFE04E0601CC4B20A2001F093
:100CB0004FF84120FFF784FE08B9FA2CF4DBFA2C38
:100CC00001DB01201CBD4FF48070FFF7B7FE01204F
:100CD000FFF7AEFE00F0EAF800F0F2F80121084656
:100CE000FFF7BCFF01210220FFF7B8FF00F0DEF89C
:100CF000FFF7B4FE47F6FF7000F0C8F800F0D6F832
:100D0000002025210A231C22CDE90010042140F2F5
:100D1000E27000F049F8FFF7ABFE4FF4A041042069
:100D2000FFF710FB07E000F0CBF801210846FFF7C2
:100D300095FF00F0BBF800F004F8FFF7A3FE0020D9
:100D4000C0E70EB503208DF8080002208DF80900D9
:100D500001208DF80A008DF80B0002A8FFF782FD34
:100D600029208DF8080001208DF8090002208DF857
:100D70000A0001208DF80B0002A8FFF773FD4FF465
:100D80000030FFF7F1FA00208DF804004FF4003036
:100D9000009008208DF8050001208DF806006846B7
:100DA000FFF7E8FA0EBD00002DE9F05F06460F469A
:100DB00090469946DDE90AAB002440F2B2708642C3
:100DC00003DB40F63300864202DD0120BDE8F09FE0
:100DD00040F2B2750AE02846FFF77FFC10B12048C8
:100DE000044401E01F480444681C85B2B542F2DBAC
:100DF000781EC7B2002510E01B48405D40F2A321D9
:100E0000484304EBC0143046FFF767FC18B1012DCE
:100E100001D116480444681C85B2BD42ECDBA8F140
:100E2000010040F2A321484304EBC014C9EB491070
:100E3000C0EB092004EB0014CAEB0A1004EB800499
:100E40005C4401214FF0C050FFF794FD0120FFF7F3
:100E500079FD204600F00CF800F028F80020B5E7F6
:100E60000085E2018033E101B06F0008805101008C
:100E700000B50246FFF7F2FD100C03490880091D7A
:100E80000A80FFF7F5FD00BD1828004000B50246B6
:100E9000FFF7E4FDC2F3034003490880091D0A80FF
:100EA000FFF7E6FD00BD00000828004000BF034832
:100EB000008800F020000028F9D070470428004086
:100EC000074800884FF6F77108400549088000BFC1
:100ED0000348008800F008000028F9D0704700009F
:100EE00004280040704710B500F002F810BD000063
:100EF0000CB50020019000903348006840F4803029
:100F00003149086000BF3048006800F400300090AC
:100F10000198401C0190009818B90198B0F5A06F95
:100F2000F1D12948006800F4003010B10120009090
:100F300001E0002000900098012843D12348006878
:100F400040F01000214908600846006820F00300C6
:100F500008600846006840F0020008601A484068CF
:100F6000194948600846406848600846406840F4AF
:100F7000806048600846406820F47C10486008465D
:100F8000406840F4E81048600846006840F080700F
:100F9000086000BF0C48006800F000700028F9D01D
:100FA0000948406820F00300074948600846406847
:100FB00040F00200486000BF0348406800F00C00A9
:100FC0000828F9D10CBD00000010024000200240AA
:100FD00010B588B01422084903A8FFF737F9052097
:100FE00003A9CDE9001005481423502220214469AB
:100FF0000020A04708B010BDBC6F00089C00002076
:10100000042808D14FF0E021096941F004014FF0B4
:10101000E022116107E04FF0E021096921F00401AD
:101020004FF0E022116170477047000010B513487F
:10103000006840F001001149086008464068104906
:1010400008400E494860084600680E4908400B49B0
:1010500008600846006820F4802008600846406860
:1010600020F4FE0048604FF41F008860FFF73BFF4C
:101070004FF000600449086010BD000000100240FD
:101080000000FFF8FFFFF6FE08ED00E037B504466C
:10109000154601231A46BDF804102046FFF724FC2C
:1010A00001A8FFF7D9FBBDF804102020FFF7C8FB0B
:1010B00021462120FFF7C4FB2220FFF7B9FB284679
:1010C000FFF7AEFB3EBD00002DE9FF4F81B0824629
:1010D0008B461C4600260120009003982038C7B29A
:1010E000102C05D1374800EB071010F8068014E0EB
:1010F000182C07D107EBC700334901EB800010F82B
:1011000006800AE0202C05D1304800EB871010F84B
:10111000068002E005B0BDE8F08F4FF0000949E01D
:101120000AEB0900DC2800DBF4E700253CE0E917C6
:1011300005EB5171C910A5EBC10101BB0098D0B9F5
:10114000701CC6B2102C05D11E4800EB071010F819
:10115000068010E0182C07D107EBC7001A4901EBF5
:10116000800010F8068006E0202C04D1174800EB20
:10117000871010F80680009808B1002000900BEB53
:101180000500B02800DBC5E708F0010040B10BEB1B
:10119000050291B20AEB090290B20E9AFFF776FFB0
:1011A0004FEA6808681CC5B2A542C0DB09F101001E
:1011B00000F0FF0904EBD471B9EB610FB0DB00BFA5
:1011C000A8E700002C4200081C48000878550008D9
:1011D00000B597B001210802FFF7BCFB0121602098
:1011E000FFF7D8FB4CF6B300ADF8580018208DF887
:1011F0005B0003208DF85A0016A92E48FFF7CAF9A4
:101200004FF4F060ADF8580018208DF85B00032013
:101210008DF85A0016A92848FFF7BCF90120ADF84F
:10122000580010208DF85B0003208DF85A0016A995
:101230002148FFF7AFF94FF40050ADF858001020E7
:101240008DF85B0003208DF85A0016A91948FFF7A6
:10125000A1F90120194908600520009000200190A3
:101260000520029000200390049005904FF08050DC
:1012700006900020079008900820099000200A900E
:101280000B900D900E900F904FF480501090002016
:101290001190129013900C90CDF850D0CDF854D0FE
:1012A00007A8FFF7CBF801210020FFF7ADF817B032
:1012B00000BD00000014014000180140B48122422A
:1012C0002DE9FF4F85B0804614461F46DDF8489053
:1012D0003A4894FBF0F0C0B28DF80C00374894FB0C
:1012E000F0F100FB114042F2107190FBF1F0C0B23E
:1012F0008DF80D00084694FBF0F100FB11404FF40F
:101300007A7190FBF1F0C0B28DF80E00084694FBA4
:10131000F0F100FB1140642190FBF1F0C0B28DF8B8
:101320000F00642094FBF0F100FB11400A2190FBB8
:10133000F1F0C0B28DF810000A2094FBF0F100FB30
:101340001140C0B28DF8110000250AE003A8405DED
:1013500010B94FF0000B02E04FF0010B03E0681CE6
:10136000C5B2062DF2DB00BFAA46BBF1010F1AD1B0
:10137000002613E007EBD771491006FB018188B204
:10138000A91903ABCDF800900297595C3031CAB26D
:101390003B460699FFF798FE701CC6B2CAF10600DC
:1013A000B042E7DC07E03B463022CDF800904046F3
:1013B0000699FFF789FE09B0BDE8F08FA08601000D
:1013C0002DE9F84306460F4614461D46DDF82080F9
:1013D0000EE0CDF8008022782B4639463046FFF7E4
:1013E00073FE284605EBD07106EB61018EB2641CDA
:1013F00020787E2802DC20782028EADABDE8F8830D
:101400002DE9F05F06460F46904699464FF0000AD8
:10141000002521E000241BE0E11704EB5171C91005
:10142000A4EBC10131B90B9810F80AB00AF1010020
:101430001FFA80FA0BF0010030B13A1991B272191B
:1014400090B20A9AFFF722FE4FEA6B0B601C84B23F
:101450004C45E1DB681C85B24545DBDBBDE8F09F10
:1014600010B5FFF7B5FE322000F072FC01205D4997
:101470000860642000F06CFC00205B49C1F880012A
:101480004FF4967000F064FC012056490860642017
:1014900000F05EFC4FF48E710120FFF7D1F94FF49C
:1014A00080710220FFF7CCF94FF481510320FFF740
:1014B000C7F940F608010820FFF7C2F900210C2007
:1014C000FFF7BEF940F601010F20FFF7B9F900213F
:1014D0002020FFF7B5F900212120FFF7B1F9052001
:1014E00000F036FC4FF420611020FFF7A9F941F21B
:1014F0003B011120FFF7A4F9052000F029FC46F27A
:1015000021111220FFF79CF96F211320FFF798F9A2
:1015100043F245711420FFF793F900213020FFF7C3
:101520008FF9DB213120FFF78BF900213220FFF703
:1015300087F900213320FFF783F9DB213420FFF7FF
:101540007FF900213520FFF77BF9AF213620FFF727
:1015500077F900213720FFF773F9DB213820FFF7F7
:101560006FF900213920FFF76BF94FF480615020AB
:10157000FFF766F940F60B015120FFF761F940F6DD
:101580000C615220FFF75CF940F203115320FFF782
:1015900057F940F60E415420FFF752F940F6083152
:1015A0005520FFF74DF904215620FFF749F940F285
:1015B00001315720FFF744F94FF460615820FFF7DD
:1015C0003FF90E215920FFF73BF9052000F0C0FB41
:1015D00041F217010720FFF733F9142000F0B8FBA0
:1015E00010BD0000800123420000234210B540F2EC
:1015F00025511D4800F03EF810B31B4800F064F878
:10160000C4B21A48008800F40040C8B917480088DE
:1016100000F4804060B10A2C03D0002013490880F8
:1016200020E01248008840F400401049088019E08A
:101630000D2C06D10D48008840F480400B490880ED
:1016400010E00A480088C0F30D0009490C5407480F
:101650000088401C0549088008460088C72801DD2D
:101660000020088010BD0000003801403800002034
:10167000D800002070B50246002400230025002079
:1016800040F66A16B14200D100BFC1F3421501F025
:101690001F03012606FA03F3012D02D19689334078
:1016A00006E0022D02D1168A334001E0968A3340CB
:1016B0000C12012606FA04F41688344013B10CB15A
:1016C000012000E0002070BD01468888C0F30800BA
:1016D000704700BFFEE72DE9FF5F05460E4617463F
:1016E0009846DDE90F9A0E9C4846FEF790FD00F003
:1016F000FF0B204604EBD071491001FB0BF189B2BE
:101700000391A8EB0601081B00EBD07106EB610109
:1017100089B201917A1B0399501A00EBD07105EB45
:10172000610189B2029123464A46CDF800A0DDE965
:101730000110FFF745FEBDE8FF9F014600BF70475F
:101740002DE9FE4F06460D4617469846DDE90EABDD
:10175000DDE90C9440F21D5000902819811C2346AD
:101760003A463046FEF7DDFE4FF6FF702A19911C0F
:10177000F2190090901C23464246FEF7D2FE40F23A
:101780001D502A19911CF21942440090101D234645
:101790004A46FEF7C6FE4FF6FF7029A11022CDE99A
:1017A0000021029028192044831CF2192819811C59
:1017B0003046FFF790FF4FF6FF7022A1102205EB95
:1017C000040CA4440CF1020306EB070CC4440CF116
:1017D000040CCDE9002102900CEB090205EB040C8E
:1017E0000CF1020106EB070CC4440CF10400FFF7F6
:1017F00072FF4FF6FF7010212B19CDE9001A0290ED
:10180000F01940444844021D29463046FFF763FF63
:101810000020102105EB040CA4440CF1020306EB9C
:10182000070C0CEB080205EB040CCDE9001B029041
:101830000CF10201F019FFF74EFFBDE8FE8F00002A
:101840002D0000002B00000008B50020B023DC2292
:1018500001460090FEF765FE08BD00007FB5044616
:10186000D048007801287DD1CF4800780128FAD1EE
:10187000CE480078002876D1A0470528FBD101206A
:10188000CA4908704FF47A7000F062FA0121C84822
:10189000FEF71FFF182042F612310122C5A3CDE941
:1018A0000032CDE90210C44828231A465A21856A1D
:1018B0000520A8474FF47A7000F04AFA0221BC488C
:1018C000FEF707FF182042F612310122BBA3CDE933
:1018D0000032CDE90210B84828231A465A21856AF9
:1018E0003D20A8474FF47A7000F032FA0421B04846
:1018F000FEF7EFFE182042F612310122B0A3CDE927
:101900000032CDE90210AC4828231A465A21856AD4
:101910007520A8474FF47A7000F01AFA0821A448FD
:10192000FEF7D7FE182042F612310122A5A3CDE919
:101930000032CDE90210A04828231A465A21856AB0
:10194000AD20A8474FF47A7000F002FA10219848B1
:10195000FEF7BFFE182042F6123101229AA3CDE90C
:10196000003201E01CE151E0CDE902109248282349
:101970001A468721856A0520A8474FF47A7000F03F
:10198000E7F920218A48FEF7A4FE182042F612311A
:1019900001228EA3CDE90032CDE90210864828232A
:1019A0001A468721856A3D20A8474FF47A7000F0D7
:1019B000CFF940217E48FEF78CFE182042F6123106
:1019C000012283A3CDE90032CDE902107A48282311
:1019D0001A468721856A7520A8474FF47A7000F06F
:1019E000B7F980217248FEF774FE182042F61231D2
:1019F000012278A3CDE90032CDE902106E482823F8
:101A00001A468721856AAD20A847C9E06748007853
:101A10000128FAD1A0470528F7D1002063490870B2
:101A20004FF47A7000F094F980216148FEF74FFE80
:101A3000182042F61231002266A3CDE90032CDE92A
:101A400002105D4828231A468721856AAD20A847E1
:101A50004FF47A7000F07CF940215548FEF737FECC
:101A6000182042F61231002259A3CDE90032CDE907
:101A70000210514828231A468721856A7520A847F5
:101A80004FF47A7000F064F920214948FEF71FFEF8
:101A9000182042F6123100224CA3CDE90032CDE9E4
:101AA0000210454828231A468721856A3D20A84709
:101AB0004FF47A7000F04CF910213D48FEF707FE14
:101AC000182042F6123100223FA3CDE90032CDE9C1
:101AD0000210394828231A468721856A0520A8471D
:101AE0004FF47A7000F034F908213148FEF7EFFD29
:101AF000182042F61231002232A3CDE90032CDE99E
:101B000002102D4828231A465A21856AAD20A8477D
:101B10004FF47A7000F01CF904212548FEF7D7FD38
:101B2000182042F61231002225A3CDE90032CDE97A
:101B30000210214828231A465A21856A7520A84791
:101B40004FF47A7000F004F902211948FEF7BFFD46
:101B5000182042F61231002218A3CDE90032CDE957
:101B60000210154828231A465A21856A3D20A847A5
:101B70004FF47A7000F0ECF801210D48FEF7A7FD54
:101B8000182042F6123100220AA3CDE90032CDE935
:101B90000210094828231A465A21856A0520A847B9
:101BA0007FBD00000100002002000020180000207E
:101BB00000100140310000009C00002032000000B5
:101BC0003300000034000000350000003600000043
:101BD000370000003800000010B588B0394B0FCB3B
:101BE00004AC0FC43849086880474FF6FF701F21C6
:101BF00036A2CDE90021029033481E23462200215F
:101C000044680A20A0474FF6FF701F2131A2CDE99A
:101C1000002102902C481E2350220021446882207B
:101C2000A0472EA02EA114220092CDE901210390FD
:101C3000254832231E2104690520A04729A02AA196
:101C400014220092CDE9012103901F4832231E2166
:101C500004697320A04725A025A114220092CDE994
:101C60000121039018483223462104690520A0472A
:101C700020A021A114220092CDE901210390124855
:101C80003223462104697320A0471CA01CA1142202
:101C90000092CDE9012103900B4832236E210469A3
:101CA0000520A04717A018A114220092CDE9012118
:101CB0000390054832236E2104697320A04708B0C1
:101CC00010BD0000D06F00089C00002044454C412E
:101CD000590000004F50454E312F320031000000B6
:101CE0004348310032000000434832003300000016
:101CF00043483300340000004348340035000000FE
:101D000043483500360000004348360010B56FF0F8
:101D10000400FFF775F90A4800680A49B0FBF1F0C2
:101D2000094908700846007800EB4001C1EBC0107B
:101D30004FF6FF7101EAC0000449088010BD0000A1
:101D40001C00002000127A00300000203200002029
:101D50000146114A12884A434FF0E0235A6100229B
:101D60009A611A46126942F001021A6100BF4FF0EF
:101D7000E022106900F001021AB100F48032002A5A
:101D8000F5D04FF0E022126922F001024FF0E0237B
:101D90001A6100229A617047320000200146114A00
:101DA00012784A434FF0E0235A6100229A611A46A2
:101DB000126942F001021A6100BF4FF0E02210697F
:101DC00000F001021AB100F48032002AF5D04FF081
:101DD000E022126922F001024FF0E0231A61002292
:101DE0009A6170473000002010B5224800682249EF
:101DF000097888423BD0C820FFF7D0FF1D48006813
:101E00001D490978884232D01B48007801280BD13F
:101E10001848001D0068012802D11849087022E006
:101E20000120174908701EE014480078012808D1E5
:101E30001048001D006888B9002010490870012072
:101E400010BD0F480078012808D10A48001D00681D
:101E500020B100200A4908700220F1E7002008495B
:101E6000087006490870034800680349087000F0CC
:101E700009F8E5E738812142650000206400002070
:101E80006300002010B50F4800680F4909788842A8
:101E900016D01420FFF75CFF0A4800680A49097849
:101EA000884209D04FF480510848FEF7FEFB08B97C
:101EB000062010BD0320FCE70248006802490870B4
:101EC0000320F6E73081214266000020000C01402B
:101ED0002DE9FC4704460D4616461F46DDE90A89F2
:101EE0003B46324629462046CDE9008900F019F8E4
:101EF000A8F1010080B2A7F1010C1FFA8CF3A6F142
:101F0000010C1FFA8CF205F1010C1FFA8CF104F19F
:101F1000010CCDE900091FFA8CF000F002F8BDE8D1
:101F2000FC872DE9F04385B005460E4617469846D6
:101F3000DDE90C49391B8AB2291988B2334631468A
:101F4000CDF80090FEF7E6FBA8EB040083B2301951
:101F500081B22A462846CDF80090FEF7DBFBA8EBBD
:101F6000040083B2301981B23A463846CDF8009069
:101F7000FEF7D0FB391B8AB2291988B24346414685
:101F8000CDF80090FEF7C6FB0021301980B2CDE9F4
:101F9000024904910190281980B20090301983B24F
:101FA000281982B23146284600F03DF80021301948
:101FB00080B2CDE9024904910190381B80B23119F9
:101FC0008BB2391B009088B23A46314600F02BF8AC
:101FD0000021A8EB040080B2CDE9024904910190F0
:101FE000281980B20090281982B2A8EB040081B2AF
:101FF0004346284600F017F80021A8EB040080B201
:10200000CDE9024904910190381B80B2A8EB04028B
:1020100091B23A1B009090B243463A4600F003F862
:1020200005B0BDE8F0832DE9FF4F85B0DDE914ABC5
:10203000DDE91289002455460320A0EB4A0725E07C
:10204000169870B1264609E0CDE9036BCDE9008909
:10205000029405A80FC800F01EF8761CAE42F3DD0E
:1020600008E0CDE9035BCDE90089029405A80FC81B
:1020700000F011F8641C002F03DAA000801D074453
:1020800004E0601B80000A3007446D1EAC42D7DDBF
:1020900009B0BDE8F08F2DE9FF4F83B081468A4635
:1020A000934610AC94E8F001E81B80B2A11989B204
:1020B000CDE9010800915A4651464846069B00F07A
:1020C0005EF8A81B80B2E11989B2CDE90108009140
:1020D0005A4651464846069B00F051F8A81980B26E
:1020E000E11989B2CDE9010800915A4651464846A6
:1020F000069B00F044F8E81980B2A11989B2CDE935
:10210000010800915A4651464846069B00F037F8B0
:10211000E81980B2A11B89B2CDE9010800915A46A5
:1021200051464846069B00F02AF8A81980B2E11BE8
:1021300089B2CDE9010800915A4651464846069BAE
:1021400000F01DF8A81B80B2E11B89B2CDE901089F
:1021500000915A4651464846069B00F010F8E81B8D
:1021600080B2A11B89B2CDE9010800915A465146BF
:102170004846069B00F003F807B0BDE8F08F2DE954
:10218000F04706460F4690469946DDE9095A089CF5
:1021900044450ADCB44208DB4D4506DCBD4204DBA5
:1021A000524629462046FEF771FFBDE8F087000041
:1021B00008B501211020FEF7EDFBFF20ADF800006F
:1021C00010208DF8030003208DF8020069460248B4
:1021D000FEF7E0F908BD00000010014008B501213C
:1021E0000820FEF7D7FB4FF47040ADF80000482000
:1021F0008DF8030069460248FEF7CCF908BD0000DF
:10220000000C014086B000200590FFF77FFDFFF72E
:1022100027F9FEF733FDFFF7E1FFFE480068049061
:1022200080474FF4A060FEF755FBFB4840680490E0
:102230008047F9480068049080470120F7490870FA
:1022400001F071B8FFF7D0FD0590059802287DD107
:102250003220FFF77DFDF2480078E0B9F1480078C0
:1022600020B9F148406A049080470FE040F21D50C9
:102270001F21EEA2CDE900210290EB4840681E2309
:102280004622002104900A20049CA0470120E44932
:10229000087001F036B8E2480078012836D1E148EC
:1022A000007868B940F21D500021E24A1423CDE9BC
:1022B0000021029050222021002001F07DFC21E02D
:1022C0004FF6FF701F21D9A2CDE900210290D64818
:1022D00040681E234622002104900A20049CA04747
:1022E000182040F21D510122D3A3CDE90032CDE9DF
:1022F0000210CD48806A28231A465A2104900520EE
:10230000049CA0470220C6490870C2E7C448007870
:1023100002285FD1C3480078E0B942F612300021AC
:10232000C44A1423CDE9002102905022202100202C
:1023300001F042FC40F21D500121BE4A1423CDE9B8
:102340000021029050222021002000E062E201F0F2
:1023500033FC3BE00121B948FEF7B0F990B11820F9
:1023600042F612310122B4A3CDE90032CDE90210C8
:10237000AD48806A28231A465A2104900520049CFF
:10238000A04711E0182042F612310022AAA3CDE99D
:102390000032CDE90210A448806A28231A465A2147
:1023A00004900520049CA047182040F21D510122F2
:1023B000A3A3CDE90032CDE902109B48806A28230F
:1023C0001A465A2104903D20049CA04703209449BA
:1023D00008705EE79248007803285DD19148007844
:1023E000D0B942F612300121924A1423CDE90021DE
:1023F000029050222021002001F0DEFB40F21D500F
:1024000002218C4A1423CDE9002102905022202180
:10241000002001F0D1FB3BE002218848FEF74EF995
:1024200090B1182042F61231012285A3CDE9003285
:10243000CDE902107C48806A28231A465A2104906C
:102440003D20049CA04711E0182042F612310022E2
:102450007BA3CDE90032CDE902107348806A2823BE
:102460001A465A2104903D20049CA047182040F2AF
:102470001D51012273A3CDE90032CDE902106A4853
:10248000806A28231A465A2104907520049CA0478C
:10249000042063490870FCE66148007804285DD197
:1024A00060480078D0B942F612300221614A142304
:1024B000CDE90021029050222021002001F07CFB78
:1024C00040F21D5003215B4A1423CDE90021029004
:1024D00050222021002001F06FFB3BE004215748EF
:1024E000FEF7ECF890B1182042F61231012255A304
:1024F000CDE90032CDE902104B48806A28231A4604
:102500005A2104907520049CA04711E0182042F63F
:10251000123100224BA3CDE90032CDE9021042482E
:10252000806A28231A465A2104907520049CA047EB
:10253000182040F21D51012243A3CDE90032CDE91C
:1025400002103948806A28231A465A210490AD2087
:10255000049CA0470520324908709AE6304800786C
:1025600005287DD12F480078D0B942F612300321DA
:10257000304A1423CDE9002102905022202100206E
:1025800001F01AFB40F21D5004212A4A1423CDE920
:102590000021029050222021002001F00DFB5BE081
:1025A00008212648FEF78AF890B1182042F6123129
:1025B000012225A3CDE90032CDE902101A48806A34
:1025C00028231A465A210490AD20049CA04711E00C
:1025D000182042F6123100221BA3CDE90032CDE9CA
:1025E00002101148806A28231A465A210490AD200F
:1025F000049CA047182040F21D51012213A3CDE9ED
:102600000032CDE902100848806A28231A46872143
:1026100004901EE06C0000208C00002001000020CF
:1026200000000020020000209C000020484F4D4583
:1026300000000000040000203100000000100140F4
:1026400032000000330000003400000035000000BC
:1026500006E00520049CA0470620FE49087018E605
:10266000FC480078062845D1FB4800780128F6D1BF
:102670001021FA48FEF722F898B1182042F61231DC
:102680000122AFF23803CDE90032CDE90210F4485F
:10269000806A28231A46872104900520049CA047BD
:1026A00012E0182042F612310022AFF26003CDE9A9
:1026B0000032CDE90210EA48806A28231A468721B1
:1026C00004900520049CA047182040F21D510122CF
:1026D000E4A3CDE90032CDE90210E148806A282365
:1026E0001A46872104903D20049CA0470720D94921
:1026F0000870CEE5D7480078072843D1D64800783F
:102700000128ACD12021D548FDF7D8FF90B1182081
:1027100042F612310122D3A3CDE90032CDE90210F5
:10272000CF48806A28231A46872104903D20049CC4
:10273000A04711E0182042F612310022C9A3CDE9CA
:102740000032CDE90210C648806A28231A46872144
:1027500004903D20049CA047182040F21D51012206
:10276000C1A3CDE90032CDE90210BD48806A28231B
:102770001A46872104907520049CA0470820B5497B
:10278000087086E5B34800780828B2D1B2480078CE
:102790000128AED14021B148FDF790FF90B118203B
:1027A00042F612310122B0A3CDE90032CDE9021088
:1027B000AB48806A28231A46872104907520049C20
:1027C000A04711E0182042F612310022A6A3CDE95D
:1027D0000032CDE90210A248806A28231A468721D8
:1027E00004907520049CA047182040F21D5101223E
:1027F0009EA3CDE90032CDE902109948806A2823D2
:102800001A4687210490AD20049CA04709209149D5
:1028100008703EE5059801287ED13220FFF798FA2E
:102820008C480078E0B98C48007820B98C48406A20
:102830000490804710E040F21D501F21AFF2142297
:10284000CDE900210290864840681E2346220021DF
:1028500004900A20049CA04701207E49087018E5D6
:102860007C480078022844D17B480078012888D130
:1028700040F21D501F21AFF24C22CDE90021029001
:10288000774840681E234622002104900A20049CB9
:10289000A04701217148FDF711FF98B1182042F6B9
:1028A00012310122AFF27023CDE90032CDE90210DE
:1028B0006B48806A28231A465A2104900520049CFC
:1028C000A04712E0182042F612310022AFF29823FE
:1028D000CDE90032CDE902106148806A28231A460A
:1028E0005A2104900520049CA047012059490870F2
:1028F000CFE458480078032862D157480078E0B9FF
:1029000042F6123001215A4A1423CDE900210290E7
:1029100050222021002000E068E201F04DF940F251
:102920001D500021524A1423CDE90021029050226B
:102930002021002001F040F93EE002214748FDF748
:10294000BDFE98B1182042F612310122AFF21033C9
:10295000CDE90032CDE902104148806A28231A46A9
:102960005A2104903D20049CA04712E0182042F612
:1029700012310022AFF23833CDE90032CDE9021036
:102980003748806A28231A465A2104903D20049C27
:10299000A047182040F21D510122AFF26433CDE967
:1029A0000032CDE902102E48806A28231A465A21A7
:1029B00004900520049CA04702202649087068E482
:1029C00024480078042872D123480078D0B942F610
:1029D00012300221264A1423CDE900210290502210
:1029E0002021002001F0E8F840F21D500121204A8A
:1029F0001423CDE90021029050222021002001F073
:102A0000DBF84FE0182040F21D510122AFF2D03325
:102A1000CDE90032CDE902101148806A28231A4618
:102A20005A2104903D20049CA04704210B48FDF747
:102A300045FE20B3182042F612310122AFF2FC33DA
:102A4000CDE90032CDE902100548806A28231A46F4
:102A50005A210FE000000020020000200010014079
:102A60009C00002036000000370000003800000005
:102A70000400002004907520049CA04712E0182058
:102A800042F612310022AFF24443CDE90032CDE9E3
:102A90000210FE48806A28231A465A2104907520A5
:102AA000049CA0470320FA4908702EE4FFE7F84889
:102AB0000078052860D1F7480078D0B942F6123086
:102AC0000321F54A1423CDE9002102905022202150
:102AD000002001F071F840F21D500221EE4A14234B
:102AE000CDE90021029050222021002001F064F85D
:102AF0003EE0182040F21D510122AFF2B843CDE96B
:102B00000032CDE90210E148806A28231A465A2192
:102B100004907520049CA0470821E048FDF7CEFDF5
:102B200098B1182042F612310122AFF2E443CDE908
:102B30000032CDE90210D548806A28231A465A216E
:102B40000490AD20049CA04712E0182042F61231F8
:102B50000022AFF20C53CDE90032CDE90210CB4890
:102B6000806A28231A465A210490AD20049CA0476D
:102B70000420C7490870C4E3C5480078062860D11E
:102B8000C4480078D0B942F612300421C24A142356
:102B9000CDE90021029050222021002001F00CF804
:102BA00040F21D500321BC4A1423CDE900210290BC
:102BB00050222021002000F0FFFF3EE0182040F2CC
:102BC0001D510122AFF28053CDE90032CDE9021050
:102BD000AE48806A28231A465A210490AD20049CEE
:102BE000A0471021AD48FDF769FD98B1182042F6C5
:102BF00012310122AFF2AC53CDE90032CDE902101F
:102C0000A248806A28231A46872104900520049C44
:102C1000A04712E0182042F612310022AFF2D4533E
:102C2000CDE90032CDE902109848806A28231A467F
:102C3000872104900520049CA04705209449087032
:102C40005FE393480078072842D1182040F21D51D5
:102C50000122AFF20863CDE90032CDE902108B48C2
:102C6000806A28231A46872104900520049CA047E7
:102C700020218A48FDF722FD98B1182042F6123132
:102C80000122AFF22023CDE90032CDE902107F48C6
:102C9000806A28231A46872104903D20049CA0477F
:102CA00012E0182042F612310022AFF24823CDE99B
:102CB0000032CDE902107548806A28231A46872120
:102CC00004903D20049CA04706207149087018E339
:102CD0006F480078082842D1182040F21D51012287
:102CE000AFF28023CDE90032CDE902106748806A57
:102CF00028231A46872104903D20049CA0474021A8
:102D00006648FDF7DBFC98B1182042F6123101222B
:102D1000AFF2AC23CDE90032CDE902105B48806A06
:102D200028231A46872104907520049CA04712E0AE
:102D3000182042F612310022AFF2D423CDE900323E
:102D4000CDE902105148806A28231A468721049051
:102D50007520049CA04707204D490870D1E24C48DB
:102D600000780928B3D1182040F21D510122AFF29A
:102D70000833CDE90032CDE902104448806A2823A7
:102D80001A46872104907520049CA047802143485F
:102D9000FDF794FC98B1182042F612310122AFF2EF
:102DA0003433CDE90032CDE902103848806A282357
:102DB0001A4687210490AD20049CA04712E01820F9
:102DC00042F612310022AFF25C33CDE90032CDE998
:102DD00002102E48806A28231A4687210490AD20CD
:102DE000049CA04708202A4908708AE20598062812
:102DF000B4D12748007801280ED126480078012850
:102E000006D10020234908702048406A049080477A
:102E100001201F49087070E21D48007802285DD12A
:102E20001C48007880B91948C068049080471C4845
:102E300000680490804701201649087019490870FD
:102E400000201349087058E201211448FDF736FCB0
:102E500020B101211148FDF73AFC03E001210F48A0
:102E6000FDF737FC01210D48FDF728FC10B31820B1
:102E700042F612310122AFF64003CDE90032CDE92E
:102E800002100248806A28231A460DE09C000020A8
:102E9000000000200200002004000020001001407B
:102EA0008C000020010000205A2104900520049C81
:102EB000A04722E2182042F612310022AFF6880322
:102EC000CDE90032CDE90210F948806A28231A467C
:102ED0005A2104900520049CA0470EE2F548007892
:102EE00003284BD1F448007868B9F148C0680490D1
:102EF0008047F2480068049080470020F04908703D
:102F0000EC490870F9E10221EE48FDF7D7FB20B14A
:102F10000221EC48FDF7DBFB03E00221E948FDF765
:102F2000D8FB0221E748FDF7C9FB98B1182042F60B
:102F300012310122AFF6F803CDE90032CDE90210DB
:102F4000DB48806A28231A465A2104903D20049CBD
:102F5000A047D2E1182042F612310022AFF620132A
:102F6000CDE90032CDE90210D148806A28231A4603
:102F70005A2104903D20049CA047BEE1CD48007832
:102F800004284BD1CC48007868B9C948C06804907F
:102F90008047CD480068049080470020C8490870E9
:102FA000C4490870A9E10421C648FDF787FB20B198
:102FB0000421C448FDF78BFB03E00421C148FDF761
:102FC00088FB0421BF48FDF779FB98B1182042F631
:102FD00012310122AFF69413CDE90032CDE902108F
:102FE000B348806A28231A465A2104907520049C0D
:102FF000A04782E1182042F612310022AFF6BC133E
:10300000CDE90032CDE90210A948806A28231A468A
:103010005A2104907520049CA0476EE1A5480078D1
:1030200005284BD1A448007868B9A148C06804902D
:103030008047A6480068049080470020A049087097
:103040009C49087059E108219E48FDF737FB20B1E3
:1030500008219C48FDF73BFB03E008219948FDF758
:1030600038FB08219748FDF729FB98B1182042F654
:1030700012310122AFF63023CDE90032CDE9021042
:103080008B48806A28231A465A210490AD20049C5C
:10309000A04732E1182042F612310022AFF6582341
:1030A000CDE90032CDE902108148806A28231A4612
:1030B0005A210490AD20049CA0471EE17D48007871
:1030C00006284BD17C48007868B97948C0680490DC
:1030D00080477F4800680490804700207849087046
:1030E0007449087009E110217648FDF7E7FA20B12C
:1030F00010217448FDF7EBFA03E010217148FDF749
:10310000E8FA10216F48FDF7D9FA98B1182042F675
:1031100012310122AFF6CC23CDE90032CDE9021005
:103120006348806A28231A46872104900520049C5E
:10313000A047E2E0182042F612310022AFF6F42355
:10314000CDE90032CDE902105948806A28231A4699
:10315000872104900520049CA047CEE055480078C4
:1031600007283AD120215748FDF7A8FA20B120219D
:103170005448FDF7ACFA03E020215248FDF7A9FAC4
:1031800020215048FDF79AFA98B1182042F61231E2
:103190000122AFF23073CDE90032CDE9021044488C
:1031A000806A28231A46872104903D20049CA0476A
:1031B000A3E0182042F612310022AFF25873CDE995
:1031C0000032CDE902103A48806A28231A46872146
:1031D00004903D20049CA0478FE0364800780828E2
:1031E0003AD140213748FDF769FA20B140213548EE
:1031F000FDF76DFA03E040213248FDF76AFA4021FD
:103200003048FDF75BFA98B1182042F612310122DE
:10321000AFF2AC73CDE90032CDE902102448806AE8
:1032200028231A46872104907520049CA04764E057
:10323000182042F612310022AFF2D473CDE90032E9
:10324000CDE902101A48806A28231A468721049083
:103250007520049CA04750E01648007809284CD1FE
:1032600080211848FDF72AFA20B180211548FDF782
:103270002EFA03E080211348FDF72BFA8021114834
:10328000FDF71CFA98B1182042F612310122AFF670
:103290002403CDE90032CDE902100548806A2823D5
:1032A0001A4687210490AD20049CA04725E011E038
:1032B0009C0000200000002002000020C800002028
:1032C0000100002000100140CC000020D0000020B0
:1032D000D4000020182042F612310022AFF6740309
:1032E000CDE90032CDE902101048806A28231A4641
:1032F00087210490AD20049CA0474FF4C870FEF7CE
:1033000027FD002005900A480078012808D10948C7
:1033100000780A2804DB00200649087000F07AFCD7
:103320000548FEF79BFAFEF78DBF00009C000020C9
:10333000010000205C0000207D3B00081CB500203F
:10334000B023DC2201460090FDF7EBF8214849F656
:10335000DD611E239B22CDE9001049212120FEF7CB
:103360004FF84FF47A70FEF7F3FC1A4840F21D5103
:103370001E239B22CDE9001049212120FEF740F8B1
:103380004FF47A70FEF7E4FC124843F639211E230D
:103390009B22CDE9001049212120FEF731F84FF49E
:1033A0007A70FEF7D5FC0B481F211E239B22CDE926
:1033B000001049212120FEF723F84FF47A70FEF720
:1033C000C7FC0020B023DC2201460090FDF7A9F8DD
:1033D0001CBD0000386D00081FB5AB490868804768
:1033E0004FF6FF701F21A9A2CDE900210290A64847
:1033F0001E234622002144680A20A0474FF6FF7092
:103400001823A4A2302100900A20FDF7D9FF4FF61F
:10341000FF7005215523D722CDE900102321052077
:10342000FEF756FD01219F48FDF748F980B11820AD
:1034300042F6123101229CA3CDE90032CDE90210FF
:10344000914828231A465A21846A0520A0470FE094
:10345000182042F61231002293A3CDE90032CDE9C3
:103460000210894828231A465A21846A0520A04759
:1034700010218C48FDF722F980B1182042F6123154
:1034800001228AA3CDE90032CDE902107E4828232B
:103490001A468721846A0520A0470FE0182042F6CB
:1034A0001231002281A3CDE90032CDE90210764825
:1034B00028231A468721846A0520A04702217948DB
:1034C000FDF7FCF880B1182042F61231012278A3F2
:1034D000CDE90032CDE902106B4828231A465A2163
:1034E000846A3D20A0470FE0182042F612310022E6
:1034F0006FA3CDE90032CDE90210634828231A46B4
:103500005A21846A3D20A04720216648FDF7D6F85D
:1035100080B1182042F61231012266A3CDE90032B3
:10352000CDE90210584828231A468721846A3D2095
:10353000A0470FE0182042F6123100225DA3CDE92A
:103540000032CDE90210504828231A468721846AA8
:103550003D20A04704215348FDF7B0F880B1182062
:1035600042F61231012254A3CDE90032CDE9021016
:10357000454828231A465A21846A7520A0470FE03F
:10358000182042F6123100224BA3CDE90032CDE9DA
:1035900002103D4828231A465A21846A7520A04704
:1035A00040214048FDF78AF880B1182042F61231D8
:1035B000012242A3CDE90032CDE90210324828238E
:1035C0001A468721846A7520A0470FE0182042F62A
:1035D0001231002239A3CDE90032CDE902102A4888
:1035E00028231A468721846A7520A04708212D4880
:1035F000FDF764F880B1182042F61231012230A3A1
:10360000CDE90032CDE902101F4828231A465A217D
:10361000846AAD20A0470FE0182042F61231002244
:1036200027A3CDE90032CDE90210174828231A4616
:103630005A21846AAD20A04780211A48FDF73EF840
:1036400080B1182042F6123101221EA3CDE90032CA
:10365000CDE902100C4828231A468721846AAD2040
:10366000A0470FE0182042F61231002215A3CDE941
:103670000032CDE90210044828231A468721846AC3
:10368000AD20A0471FBD00009C000020484F4D45C5
:1036900000000000564F4C543A20202020202020CB
:1036A000560000000010014031000000350000000D
:1036B0003200000036000000330000003700000038
:1036C00034000000380000003EB56E4908688047AD
:1036D0004FF6FF701F216CA2CDE9002102906948CE
:1036E0001E234622002144680A20A0474FF6FF709F
:1036F0001F2167A2CDE90021029062481E233C22CF
:10370000002144689620A0474FF6FF7042F6123120
:1037100061A2CDE9002102905A48142328224121B8
:1037200084690520A0474FF6FF7042F612315CA273
:10373000CDE9002102905348142328225A2184699C
:103740000520A0474FF6FF7042F6123155A2CDE991
:10375000002102904B4814232822732184690520FC
:10376000A04700204FF6FF714FA2CDE90021029043
:10377000444814233C22412184692D20A047002085
:103780004FF6FF714AA2CDE9002102903D48142373
:103790003C225A2184692D20A04700204FF6FF715A
:1037A00044A2CDE900210290364814233C22732123
:1037B00084692D20A0474FF6FF7042F612313EA2D9
:1037C000CDE9002102902F48142328224121846949
:1037D0007320A0474FF6FF7042F6123137A2CDE9B1
:1037E000002102902748142328225A21846973203B
:1037F000A0474FF6FF7042F6123132A2CDE9002108
:103800000290204814232822732184690846A04787
:1038100000204FF6FF712CA2CDE90021029019483B
:1038200014233C22412184699B20A04700204FF6AD
:10383000FF711FA2CDE900210290124814233C22FF
:103840005A2184699B20A04700204FF6FF711EA2D9
:10385000CDE9002102900B4814233C227321846996
:103860009B20A0474FF6FF7042F6123117A2CDE918
:103870000021029003481423282296218469AA205B
:10388000A0473EBD9C0000204F5448455200000018
:1038900054494D45000000005945415200000000C8
:1038A000444159004D494E0032303137000000008C
:1038B00032000000380000004D4F4E00484F555276
:1038C00000000000534543003500000053415645B9
:1038D000000000002DE9FE4F04460D4616461F4627
:1038E000DDE90D9ADDF830803B4632462946204618
:1038F000CDF80090FCF715FE1020EB19A21929460F
:103900008DE801052046FDF7E6FEBDE8FE8F2DE9B6
:10391000FE4304460D4616461F46DDE90A8902208D
:10392000EB19A2192946CDE900082046FEF7D0FA86
:103930004FF6FF701021EB19A219CDE90019029082
:1039400029462046FDF7C7FEBDE8FE832DE9F04F6E
:1039500085B006460F4614461D46DDF838B00122F4
:103960000023A04604EBD870C0F34F00A94605EB36
:10397000D97107EB610189B2A246CDE90332CDE9E5
:10398000011004EBDA7006EB600080B27B1932198B
:10399000009019483946D0F810C03046E04704EB93
:1039A000D872C2F34F0205EBD97307EB63039BB2E6
:1039B000DDE90F01CDE90132CDE9031004EBDA7046
:1039C00006EB600080B27B19321900900A48394634
:1039D000D0F810C03046E0474FF6FF7111987B19C0
:1039E0003219CDE901B1009039463046FDF773FE3A
:1039F00005B0BDE8F08F00003C0000202DE9F84F35
:103A000006460C4617461D46DDE90BB82B463A46DE
:103A100021463046CDF800B0FCF783FDA5F10A0938
:103A200009EBD97C04EB6C0C0CF10A0C1FFA8CF33B
:103A3000CA460AEBDA7C04EB6C0C1FFA8CF106EB3D
:103A4000070C1FFA8CF206EB070CACF10A0C1FFAFC
:103A50008CF0CDF80080FCF7B3FEA5F1100909EB5E
:103A6000D97004EB600081B21023CDF8008030469D
:103A70000A9AFDF7A5FCBDE8F88F2DE9FE4F074631
:103A80000E4690461C46DDE90C9A00250020009069
:103A9000A01C4FF6FF7101EA8003424631463846CA
:103AA000FCF73FFD00BF25E042F612300090A01C5D
:103AB00000FB056081B2234642463846FCF731FDE3
:103AC0004FF6FF7159F82500102206EB040CCDE9E2
:103AD00000200291A01C00FB05C083B207EB080088
:103AE00082B2A01C00FB056081B23846FDF7F3FDF1
:103AF000681CC5B25545D7DBBDE8FE8F2DE9FE4FEA
:103B000004460E4615461F46DDE90D9ADDF8308065
:103B100017488DE800073B462A463146D0F818C0C2
:103B20002046E04700204FF6FF7112A2CDE90021A8
:103B300002906119491DC8B20D4914231E22D1F803
:103B400018C03146E0474FF6FF7040F21D510AA2FF
:103B5000CDE90021029061192331C8B20449142330
:103B60001E22D1F818C03146E047BDE8FE8F0000A4
:103B70009C0000204F4E00004F46460010B50C48F8
:103B8000007868B10B48006850B96420FEF7E0F88F
:103B90000020074908700748006838B9052010BDA3
:103BA00004480068012801D1014908700420F6E7A3
:103BB00068000020348121422DE9FE4F07460D4662
:103BC00090461C46DDE90D6ADDF83090A01C00FB34
:103BD000065081B2234642463846CDF800A0FCF795
:103BE000A0FC4FF6FF7159F82600102205EB040CDB
:103BF000CDE900200291A01C00FB06C083B207EBB8
:103C00000802A01C00FB065081B23846FDF763FD98
:103C1000BDE8FE8F08B50020192332223021009024
:103C20006420FCF77EFC4FF6FF7000901C481D4995
:103C30000978425C182330216E20FDF741FB1F20DC
:103C40001E232D2200210090AF20FCF76AFC4FF6C6
:103C5000FF7000901448027810230D21AF20FDF76B
:103C60002FFB4FF6FF7000900F48427810230D2174
:103C7000C620FDF725FB4FF6FF7010230BA20D2188
:103C80000090BE20FDF79CFB06480078401C0549CB
:103C90000870084600781C2801D10020087008BD73
:103CA0007000002098000020A00100203A000000D1
:103CB00008B54FF6FF7014234A220A2100904020D5
:103CC000FCF77EFD4FF6FF70102303A20721009042
:103CD0000A20FDF775FB08BD484F4D450000000068
:103CE0003EB54849086880474FF6FF701F2146A23D
:103CF000CDE90021029043481E234622002144685A
:103D00000A20A0474FF6FF70002141A2CDE9002113
:103D100002903C48142328222D21046A0020A04749
:103D20004FF6FF7000213BA2CDE9002102903548FB
:103D3000142328222D21046A6920A0474FF6FF7022
:103D4000002135A2CDE9002102902E48142328221B
:103D50004621046A0020A0474FF6FF7000212FA2E1
:103D6000CDE9002102902748142328224621046A25
:103D70006920A0474FF6FF70002129A2CDE900215C
:103D800002902048142328225F21046A0020A047C3
:103D90004FF6FF70002123A2CDE9002102901948BF
:103DA000142328225F21046A6920A0474FF6FF7080
:103DB00000211DA2CDE900210290124814232822DF
:103DC0007821046A0020A0474FF6FF70002117A257
:103DD000CDE9002102900B48142328227821046A9F
:103DE0006920A0474FF6FF7042F6123110A2CDE9CC
:103DF0000021029003481423282296218469AA20D6
:103E0000A0473EBD9C000020535749544348000042
:103E100043483100434832004348330043483400AC
:103E2000434835004348360043483700434838008C
:103E300053415645000000001FB5D7480068039065
:103E400080474FF6FF701F21D4A2CDE900210290D8
:103E5000D14840681E234622002103900A20039C7B
:103E6000A0474FF6FF701F21CEA2CDE9002102909E
:103E7000C94840681E234B22002103908C20039CDC
:103E8000A0474FF6FF7042F61231C8A2CDE90021DB
:103E90000290C14880691423282223210390052021
:103EA000039CA04700204FF6FF71C2A2CDE900217C
:103EB0000290B948406814235522232103903220F0
:103EC000039CA04700204FF6FF71BCA2CDE9002162
:103ED0000290B148406814234B22232103908C2088
:103EE000039CA0474FF6FF7042F61231B5A2CDE910
:103EF00000210290A8488069142328223C210390C5
:103F00000520039CA047B0A04FF6FF71CDE900103B
:103F1000A148C069142310223C2103903220039C45
:103F2000A047AAA04FF6FF71CDE900109A48C069DA
:103F3000142310223C2103904720039CA047A4A0F7
:103F40004FF6FF71CDE900109348C0691423102289
:103F50003C2103905C20039CA0479EA04FF6FF717C
:103F6000CDE900108C48C069142310223C21039035
:103F70007320039CA04798A04FF6FF71CDE9001075
:103F80008548C069142310223C2103908820039C9B
:103F9000A04792A04FF6FF71CDE900107E48C0699E
:103FA000142310223C2103909D20039CA0478CA049
:103FB0004FF6FF71CDE900107748C0691423102235
:103FC0003C210390B220039CA04786A04FF6FF71CE
:103FD000CDE900107048C069142310223C210390E1
:103FE000C720039CA0474FF6FF7042F612317EA215
:103FF000CDE90021029068488069142328225521C8
:1040000003900520039CA0474FF6FF7042F6123143
:1040100077A2CDE9002102905F488069142328220D
:104020006E2103900520039CA0474FF6FF7042F6D7
:10403000123170A2CDE90021029057488069142303
:104040002822872103900520039CA04700204FF6DB
:10405000FF7169A2CDE9002102904F4880691423C5
:104060003C22552103902D20039CA04700204FF6B1
:10407000FF7156A2CDE900210290474880691423C0
:104080003C226E2103902D20039CA04700204FF678
:10409000FF7154A2CDE9002102903F4880691423AA
:1040A0003C22872103902D20039CA0474FF6FF70F0
:1040B00042F6123152A2CDE90021029036488069C1
:1040C00014232822552103907320039CA0474FF608
:1040D000FF7042F612314BA2CDE9002102902E482A
:1040E0008069142328226E2103907320039CA0472B
:1040F0004FF6FF7042F6123144A2CDE90021029042
:104100002548806914232822872103907320039C6B
:10411000A04700204FF6FF712FA2CDE900210290A9
:104120001D48806914233C22552103909B20039C49
:10413000A04700204FF6FF7124A2CDE90021029094
:104140001548806914233C226E2103909B20039C18
:10415000A04700204FF6FF711FA2CDE90021029079
:104160000D48806914233C22872103909B20039CE7
:10417000A0474FF6FF7042F6123125A2CDE900218B
:10418000029005488069122328229D210390AF20C8
:10419000039CA0471FBD00009C00002054494D45D2
:1041A0005200000054494D455231000053544154CF
:1041B00045000000464F5242495400004F4E4345CF
:1041C0000000000043480000310000003200000001
:1041D000330000003400000035000000360000000D
:1041E000370000003800000059454152000000002F
:1041F000444159004D494E00323031370000000033
:104200004D4F4E00484F55520000000053454300AB
:10421000534156450000000008B51F201E23DC2234
:10422000002100900846FCF77CF908BD0000000062
:10423000000000000000000000000000000000007E
:104240000000FC37FC377C3000000000000000005C
:104250003800380008003800380000004004403CB6
:10426000F83FF8074034F03FF80F48040000701C96
:10427000F83CFC7FFC7F383F381F200E7000F83080
:10428000F83CF80FE01FF83F183F003F000C001FFC
:10429000F83FF833F837783C301E001E000000006D
:1042A000000038003800000000000000000000009E
:1042B00000000000F00FF83F1C7004400040046054
:1042C0001C70F83FE00F000000000000000020011B
:1042D000A001F807F807F807A0012001000100017C
:1042E0000001E00FE00F000100010001000000707C
:1042F000007000300000000000000000000100011C
:104300000001000100010001000100010000003077
:1043100000300030000000000000000000200030ED
:10432000001C000FC003F000380008000000F00F70
:10433000F81F183008301838F81FE00F0000600030
:104340006000F03FF83FF83F000000000000303010
:104350003838183C0837D833F8317030000030183E
:10436000381818308821D833F81F700E0004000761
:104370008007E0057004F83FF83F00040008F019DA
:10438000F839D830C8308839881F080F0000801FDE
:10439000C03FF031F8209830803F001F0000080037
:1043A0000830083E883FE803F80038000004F01F9A
:1043B000F83F88318821D831F83F701EE000F001C5
:1043C000F823083B083F980FF803F00000000000B6
:1043D00000008030803080300000000000000000CD
:1043E00000008070807080300000000000008001BC
:1043F0008003C006600C30181830082040044004C8
:1044000040044004400440044004400400000830DC
:1044100018303018600CC006800300010000300026
:10442000380018328833F801F8007000E00FF01FF0
:104430009837E82F682FE82FF82FF0070020003E6C
:10444000C03FF8077802F807C03F003C0000F83F83
:10445000F83F883188319831F81F701E0000F00F46
:10446000F81F183808301830783E701E0000F83FEA
:10447000F83F083018303818F01FE00F0000F83F00
:10448000F83F883188318831883188310000F83F21
:10449000F83F080108010801080108000000F00FBA
:1044A000F81F183808331833783F703F0000F83F82
:1044B000F83F800180018001F83FF83F00000000D4
:1044C0000000F83FF83FF83F000000000000001C2B
:1044D000003C003000300038F81FF80F0000F83FB3
:1044E000F83FC001E007781F183C08300000F83F93
:1044F000F83F003000300030003000300000F83F5E
:10450000F83FF83F803FF81FF83FF83F0000F83FC2
:10451000F83FF001C007003FF83FF83F8003F01F6D
:10452000F81F183008201838F81FF00F0000F83F67
:10453000F83F080308031801F801F0018003F01F99
:10454000F81F1830082C183CF83FF02F0000F83FF7
:10455000F83F08010807981FF83DF0300000701C74
:10456000F83CD83188213833383F301E000008002D
:104570000800F83FF83FF83F080008000000F81F67
:10458000F83F003000200030F83FF81F0800F80026
:10459000F807C03F003EE03FF80378003800F83FDE
:1045A000F03FF83FF803F83FF83FF80F00201838C5
:1045B000783EF00FC007F81F383C0830080038007C
:1045C000F800E03FC03FF03F7800180000000838D6
:1045D000083E083FC833F83078301830000000003B
:1045E0000000FE7FFE7F0240024002400000080003
:1045F0007800F001800F003E00F000C00000024093
:1046000002400240FE7FFE7F000000000000080024
:104610000C000600060006000C0008000080008068
:10462000008000800080008000800080000000008A
:10463000020006000E000C00000000000000001D3B
:10464000803D80248036803F803F003F0000F83F5F
:10465000F83F803080208039801F001F0000001F3D
:10466000803F803080208031801900190000801F39
:10467000803F803080208039F83FF83F0000001FE5
:10468000801F803280228033803B001B000080002E
:104690008000F83FF83F880088008800000000FB99
:1046A00080FF8094809480B780F780600000F83F9E
:1046B000F83F800180008000803F803F00000000C4
:1046C0000000983F983F983F00000000000000C0A5
:1046D00000C0008098FF98FF987F00000000F83F1E
:1046E000F83F00078007801F80380030000000007E
:1046F0000000F83FF83FF83F00000000803F803F97
:10470000803F803F803F803F803F803F0000803F70
:10471000803F800180008000803F803F0000001FBC
:10472000801F803080208031801F001F000080FFAC
:1047300080FF803080208039801F001F0000801F94
:10474000803F80308020803980FF80FF00000000A3
:10475000803F803F80018000800000000000001B3F
:10476000803B803780248035803D001980008000A8
:104770008000F01FF03F8020803000300000801F5C
:10478000803F003000300038803F803F00008001D3
:10479000800F003F0038003F800780018001801FAC
:1047A000803F803F8007803F803F800F0000803047
:1047B0008039801F000F801F803900200000808119
:1047C000808F00FF00F8003F8007800100008030EC
:1047D0008038803C802780238021802000000000DA
:1047E00000000000FC3FFE7FFE7E02000000000093
:1047F0000000FFFFFFFFFFFF0000000000000200BD
:10480000FE7EFE7F000100000000000000000600A8
:104810000700030006000400060006000000000078
:104820000000000000000000000000000000000088
:104830000000000000000000000000000000000078
:1048400000000000000000000000000000001CF854
:10485000FF1CF8FF1CF87F1C000000000000000097
:1048600000000000000000000000000000F0010057
:10487000F00100F00100000000F00100F00100F084
:10488000000000000000000000C60000C60000C6D6
:104890001F80FF1FF0FF07F0C70000C61000F61FC3
:1048A000F0FF1FF0FF00F0C60000C600000000008F
:1048B0008003C0870FE08F0FF00F1EF8FF7FF8FF17
:1048C0007F70781CF0F11FE0E10FC0C1070000000D
:1048D000000000E00F00F01F1830181EF0DF07E0A6
:1048E000FF01003C0100EF0FE0F31FF0301810F063
:1048F0001F00E00F00000000E007C0F30FE0FF0F13
:10490000F03F1C30FC1830FE19F0C71FE0830F8009
:10491000E00F00E00F00600C00000000000000004D
:1049200000000000F00100F00100F00100000000B4
:104930000000000000000000000000000000000077
:10494000000000000000000000000000380080FFB0
:1049500003E0FF0FF0011E38003818003008002077
:104960000000000C00601C007078003CF0011FC0CB
:10497000FF0700FF01000000000000000000000031
:1049800000000000000000C03100C03900801B00A2
:10499000001F00F0FF00F0FF00F0FF00001F00808C
:1049A0001B00C03900C031000010000010000010D2
:1049B0000000100000100080FF0380FF0380FF0351
:1049C00000100000100000100000100000000000A7
:1049D000000000005C00007C00003C0000000000C3
:1049E00000000000000000000000000000000000C7
:1049F0000010000010000010000010000010000067
:104A00001000001000001000001000001000001046
:104A10000000100000000000000000001C00001C4E
:104A200000001C000000000000000000000000006A
:104A3000000000000000000000000000001800005E
:104A40001E00000F00C00300F000003C00000F003B
:104A5000800700E00100780000180000000000005E
:104A6000FF01C0FF07E0FF0FF0000E70001C3000D8
:104A70001870001CE0010FE0FF0FC0FF0700FE00F0
:104A8000000000000000000300800300C00100E0FF
:104A9000FF0FF0FF0FF0FF0F00000000000000000C
:104AA00000000000000000800108E0010EE0010F9E
:104AB00070800F30C00B30E00970F808F03F08E05C
:104AC0001F08C00708000008000000800103C001A3
:104AD00007E0010F70001C30181830181830381C0F
:104AE000F07F0EE0FF0FC0E70700800100800100AB
:104AF000C00100F00100F80100BE01008F01C08775
:104B000001E0FF0FF0FF0FF0FF0F008001008001B8
:104B1000000001001C07E01F0FE01F0EE00D182031
:104B20000418200C18200C1C203C0F20FC0F20F82F
:104B30000700C00000000000E00300F80700FE0FBF
:104B4000001F1CC00F18F00D18F00C18301C1C10A2
:104B5000F80F00F80F00F003000000200000200014
:104B60000020000820000F20E00F20F80720FE00A2
:104B7000A01F00E00700E0010060000000000080CE
:104B8000E307E0FF0FE0FF0F703C1C3018183018EF
:104B900018303C18E03F1CE0FF0FC0E70700C003DF
:104BA000000200C01F00E03F00E03D1070701C30AC
:104BB000601F30E00F70F003E0FF01E07F00C01FD6
:104BC00000000300000000000000000000000000E2
:104BD000000000000C1C000C1C000C1C000000005D
:104BE00000000000000000000000000000000000C5
:104BF00000000000000000000C7C000C7C000C1C7D
:104C000000000000000000000000000000000000A4
:104C10001000003800007C0000EE0000C701808317
:104C200003C00107E0000E60000C300018100010F7
:104C300000C20000C20000C20000C20000C20000AA
:104C4000C20000C20000C20000C20000C20000C2D8
:104C50000000C20000000030001830001860000C96
:104C6000C0000680010380830300C70100EE00003E
:104C70007C00003800001000000000000100C001AE
:104C800000E00100F0000070E01C30F81C707C1C9B
:104C9000E01F00E00F00C0070000000000780000E7
:104CA000FF03C08707E0FC0D20FE19300F1110C173
:104CB0001110FF1130FF19608709C0FF01807F00CC
:104CC00000001000001F00E01F00FE1FC0FF01F0E9
:104CD000DF00F0C300F0FF0080FF0300FC1F00C0F6
:104CE0001F00001E000000F0FF1FF0FF1FF0FF1F5D
:104CF00030181830181830181860181CE03F0EE0F3
:104D0000FF0FC0E70F00C30300000000FF01C0FF5A
:104D100007E0FF0FE0010F70001C30001830001892
:104D200070001EE0C30FC0C30780C303000000F083
:104D3000FF1FF0FF1FF0FF1F300018200018600059
:104D40000CE0000EE0830FC0FF0780FF0300FE00B1
:104D5000000000F0FF1FF0FF1FF0FF1F3018183099
:104D6000181830181830181830181830181830184B
:104D700018000018000000F0FF1FF0FF1FF0FF1FD9
:104D800030100030100030100030100030100030B3
:104D9000100030000030000000000000FF01C0FFE4
:104DA00007E0FF0FE0010F70001C30301870301862
:104DB000E0310EE0F31FC0F31F00F31F000000F00E
:104DC000FF1FF0FF1FF0FF1F001800001800001861
:104DD00000001800001800F0FF1FF0FF1FF0FF1F79
:104DE000000000000000000000000000000000F0D3
:104DF000FF1FF0FF1FF0FF1F000000000000000079
:104E00000000000000000000C00300C00700C00F49
:104E100000001E00001C00001800001CF0FF0FF036
:104E2000FF0FF0FF07F07F00000000F0FF1FF0FF12
:104E30001FF0FF1F003C00003F0080FF00C0F30395
:104E4000E0E10FF0801F30001E100018000000F09D
:104E5000FF1FF0FF1FF0FF1F0000180000180000E8
:104E600018000018000018000018000018000018B2
:104E7000000000F0FF1FF0FF1FF0FF1FF0FF010018
:104E8000FF1F00E01F80FF1FF0FF00F0FF1FF0FF7B
:104E90001FF0FF1F000000F0FF1FF0FF1FF0FF1FBB
:104EA000E00F00803F0000FC0000F00700C01FF092
:104EB000FF1FF0FF1FF0FF1F00000080FF03C0FF77
:104EC00007E0FF0FF0001E70001C30001870001C7F
:104ED000E0010FE0FF0FC0FF0700FF01000000F03E
:104EE000FF1FF0FF1FF0FF1F303000303000303068
:104EF00000603000603800E03F00C01F00800F00FD
:104F000000000080FF03C0FF07E0FF0FF0001E70ED
:104F1000001C30801970801FE0811FE0FF1FC0FF60
:104F20001F00FF01000000F0FF1FF0FF1FF0FF1F38
:104F300030300030300030700060F801E0FC0FE0ED
:104F40009F1FC00F1E800718000000808307C087C6
:104F50000FE08F0FF01E1C301C18303818703818F6
:104F6000E0711EE0F10FC0E10700C0030000003057
:104F70000000300000300000300000F0FF1FF0FFA4
:104F80001FF0FF1F30000030000030000030000034
:104F9000000000F0FF03F0FF0FF0FF0F00001C0007
:104FA000001800001800001C00001EF0FF0FF0FFAA
:104FB0000FF0FF03300000F00100F01F00E0FF00E1
:104FC00000FF0700F01F00801F00F81F80FF03F0A4
:104FD0007F00F00700F00000F00000F0FF00F0FF9D
:104FE0001F00FF1F80FF1FF0FF01F01F00F0FF0FE9
:104FF00000FE1FF0FF1FF0FF0FF01F000000103039
:10500000001CF0001FF0831FE0EF0700FF01007E8F
:105010000080FF01E0E70FF0811F70001E100018F4
:10502000100000700000F00100F00700801F000079
:10503000FE1F00FC1F00FF1FC00F00F00300F00068
:105040000030000000000030001C30001F30C01F86
:1050500030E01B30F818307E18301F18F00718F0B9
:105060000318F000183000180000000000000000D5
:1050700000000000000000FCFF7FFCFF7F0C0060D0
:105080000C00600C00600C00600C00600000001060
:105090000000700000F00300C00F00007F0000F867
:1050A0000100E00700003F00007C000060000000FD
:1050B0000000000C00600C00600C00600C0060FC44
:1050C000FF7FFCFF7FFCFF7F00000000000000006E
:1050D0000000000000000020000030000038000048
:1050E0001C00000C00000C00001C00001C0000381C
:1050F0000000200000000000000080000080000090
:10510000800000800000800000800000800000809F
:10511000000080000080000080000080000000008F
:1051200000000000000000000400000C00003C0033
:105130000038000030000000000000000000000007
:1051400000000000000700980F009C1F00DC190001
:10515000CC1800CC1800CC0C00FC0F00FC1F00F891
:105160001F000010000000F0FF1FF0FF1FF0FF1FE6
:10517000001C0C000C18000C18000C1C007C1F00FC
:10518000FC0F00F80700C00100000000F00300F869
:105190000700FC0F001C1C000C18000C18000C1859
:1051A000003C1E003C0F0038070000030000000018
:1051B000F00300F80F00FC0F001C1C000C18000C82
:1051C00018000C1CF0FF1FF0FF1FF0FF1F00000075
:1051D00000000000E00300F80700FC0F005C1C006A
:1051E0004C18004418004C18007C1E007C0E0078FF
:1051F00006004002000000000C00000C00000C0043
:10520000C0FF1FE0FF1FE0FF1F300C00300C00301C
:105210000C00700C0060000000000000007200F83C
:10522000F700FCFF00FCCD008C8D008C8D00FC8D08
:1052300000FCC900FCF8000478000430000000F015
:10524000FF1FF0FF1FF0FF1F003800000C00000CD4
:1052500000000C00001C0000FC1F00F81F00E01FF5
:1052600000000000000000000000000000000060DE
:10527000FC1F60FC1F60FC1F00000000000000001D
:10528000000000000000000000000000C00000C09E
:105290000000C00000C00000C060FCFF60FC7F6038
:1052A000FC3F000000000000000000F0FF1FF0FFC6
:1052B0001FF0FF1F00E00100F00000F80100FC03F8
:1052C000009C0F000C1E00041C00001000000000D9
:1052D0000000000000000000000000F0FF1FF0FFD1
:1052E0001FF0FF1F00000000000000000000000091
:1052F00000FC1F00FC1F00FC1F001C00000C000035
:10530000FC1F00FC1F00F81F000C00000C0000FC3C
:105310001F00FC1F00000000FC1F00FC1F00FC1F02
:10532000003800000C00000C00000C00001C000005
:10533000FC1F00F81F00E01F00000000F00300F851
:105340000700FC0F001C1C000C18000C18000C1CA3
:10535000001C0E00F80F00F80700E003000000003A
:10536000FCFF00FCFF00FCFF001C0C000C18000CF4
:1053700018000C1C007C1F00F80F00F80700C0018B
:1053800000000000F00300F80F00FC0F001C1C00E0
:105390000C18000C18000C1C00FCFF00FCFF00FCAB
:1053A000FF00000000000000000000FC1F00FC1FC8
:1053B00000FC1F007800001800000C00000C00002A
:1053C0000C00000000000000000000000000007859
:1053D0000E007C0E00FC1C00CC1800C41800CC1879
:1053E000009C1F009C0F00180F0000000000000030
:1053F0000C00000C00000C00C0FF07C0FF0FC0FF36
:105400001F000C18000C18000C18000C18000000ED
:1054100000000000FC0700FC0F00FC1F00001C0047
:10542000001800001800000C00000F00FC1F00FC1A
:105430001F00FC1F000000000C00007C0000FC01AD
:1054400000F00F00801F00001E00C01F00F80700C2
:10545000FC00003C00000400000C0000FC0000FC0C
:105460001F00E01F00F01F00FC0700FC0000FC1FF5
:1054700000C01F00FC1F00FC07007C0000000000B3
:105480000410000C1C001C1E00FC0F00F00300E0C8
:105490000300F807003C0F001C1E00041800001059
:1054A000000000000C00007CC000FCC100F0CF0038
:1054B00080FF00007E00C03F00F80700FC00003CB9
:1054C00000000400000000000018000C1C000C1F6D
:1054D000008C1F00CC1B00EC1900FC18003C1800CD
:1054E0001C18000C18000000000000000000000064
:1054F00000000000000000001000003800FCFF7FEA
:10550000FCFF7F0C00600400400000000000000071
:105510000000000000000000000000FFFFFFFFFF90
:10552000FFFFFFFF0000000000000000000000007F
:10553000000000040040040040FCCF7FFCFF7FF827
:10554000FF3F0030000000000000000000000000ED
:10555000000000000000000800000C00000E000029
:105560000600000600000E00001C00001800001CD1
:1055700000000E0000060000000000000000000017
:10558000000000000000000000000000000000001B
:10559000000000000000000000000000000000000B
:1055A00000000000000000000000000000000000FB
:1055B00000000000000000000000000000000000EB
:1055C00000000000000000000000000000000000DB
:1055D000F03F0007F0FF1F07F0FF1F07F0FF1F0756
:1055E00000000007000000000000000000000000B4
:1055F00000000000000000000000000000000000AB
:105600000000000000000000E00F0000E00F0000BC
:10561000E00F0000E001000000000000E00F0000CB
:10562000E00F0000E00F0000E001000000000000BB
:105630000000000000000000000000000030380002
:10564000003038040030FC0700F8FF07C0FFFF03FC
:10565000C0FF3B00C0373800003038000030F8078A
:1056600000F0FF07C0FFFF07C0FF3F00C03F38004A
:10567000003038000030380000000000000000005A
:10568000001EF001807FF00380FFF007C0FFF007ED
:10569000C0E1010EF8FFFF7FF8FFFF7FF8FFFF7FFB
:1056A000C0030F0FC00FFF07800FFE07000FFC03A2
:1056B00000007000000000000000000080FF0000FB
:1056C000C0FF0100C0FF010EC080810FC0FFE101DB
:1056D000C0FF7C00007F1F0000C0070000F0FC033B
:1056E000003EFE07800FFF0FC003070EC000FE073D
:1056F0000000FE070000F801000000000000F801B3
:105700000000FE03001FFF0780FF8F07C0FF030F8D
:10571000C0F10F0EC0E01F0EC0F03E0EC07F7C0730
:10572000C03FF007801FE0030000FC030000FC07FF
:1057300000003C070000000700000000000000001F
:105740000000000000000000000000000000000059
:10575000C00F0000C00F0000C00F000000000000DC
:105760000000000000000000000000000000000039
:105770000000000000000000000000000000000029
:105780000000000000000000000000000000000019
:105790000000000000C00F0000FC7F0000FFFF01C0
:1057A000801FF007E003800FF000001E7800003C2F
:1057B0003800003010000000000000001000003031
:1057C000380000387800003CF001001FC007C00F0F
:1057D00080FFFF0300FEFF0100F83F000000000013
:1057E00000000000000000000000000000000000B9
:1057F00000000000000000000000000000060300A0
:10580000008E0300008E030000DC010000DC0100BC
:1058100000F80000C0FF3F00C0FF3F00C0FF3F0096
:1058200000F8000000DC010000DC0100008E030035
:10583000008E03000006030000000000008001004D
:105840000080010000800100008001000080010054
:105850000080010000FEFF0000FEFF0000FEFF00D0
:105860000080010000800100008001000080010034
:105870000080010000800100000000000000000026
:1058800000000000000000760000007E0000001E06
:105890000000000600000000000000000000000002
:1058A00000000000000000000000000000000000F8
:1058B0000000000000000000000000000080010067
:1058C00000800100008001000080010000800100D4
:1058D00000800100008001000080010000800100C4
:1058E00000800100008001000080010000800100B4
:1058F00000800100008001000000000000000000A6
:10590000000000060000000600000006000000067F
:105910000000000000000000000000000000000087
:105920000000000000000000000000000000000077
:105930000000000000000000000000000000001C4B
:105940000000001E0000800F0000E0030000F800CF
:1059500000003E0000000F0000C0070000F0010042
:10596000007C0000001E000080070000E003000033
:10597000E0000000200000000000000000F01F0018
:1059800000FEFF0000FFFF0380FFFF03C007C0070A
:10599000C0010007C000000EC000000EC000000ED5
:1059A000C0030007C00FE00780FFFF0300FFFF01F7
:1059B00000FC7F000000000000000000000000006C
:1059C00000000000001C0000001C0000000E000091
:1059D00000070000C0FFFF07C0FFFF07C0FFFF0771
:1059E000C0FFFF07000000000000000000000000F2
:1059F00000000000000000000000000000040000A3
:105A00000007000780078007C007C007C003E00742
:105A1000C001F007C0007806C0003E06C0001F06A7
:105A2000C0C10F06C0FF030680FF010680FF00060D
:105A3000001E000600000000000000000000400002
:105A40000006C001000FE003800FE007C0038007DD
:105A5000C0810107C080010EC080010EC0C0030ECE
:105A6000C0C10307C0FFDF07807FFF03807FFE0305
:105A7000001EFC0000000000000070000000780024
:105A800000007E0000007F0000C07F0000E0730087
:105A900000F07100007C7000003E7000801F7000FC
:105AA000C0FFFF07C0FFFF07C0FFFF070000700037
:105AB0000000700000007000000000000080C101C4
:105AC00000F8E103C0FFE107C0FF8107C0EF000E4F
:105AD000C060000EC060000EC060000EC0E0000F8D
