:020000040800F2
:10000000780B00200D020008BB0D000879080008DD
:10001000AD0D000815050008872900080000000044
:100020000000000000000000000000005114000863
:100030001905000800000000A90E0008FD150008C1
:100040002702000827020008270200088D11000877
:1000500027020008270200082702000827020008DC
:1000600027020008270200082702000827020008CC
:1000700027020008270200082702000827020008BC
:1000800027020008270200082702000827020008AC
:10009000270200082702000827020008270200089C
:1000A000270200082702000827020008270200088C
:1000B000270200082702000827020008270200087C
:1000C000270200082702000827020008270200086C
:1000D00027020008A12800082702000827020008BC
:1000E000270200082702000827020008270200084C
:1000F000270200082702000827020008270200083C
:10010000270200082702000827020008270200082B
:10011000270200082702000827020008270200081B
:10012000270200082702000827020008270200080B
:1001300000F002F800F05AF80AA090E8000C82449F
:100140008344AAF10107DA4501D100F04FF8AFF27C
:10015000090EBAE80F0013F0010F18BFFB1A43F0A5
:10016000010318472CFB00004CFB00000A444FF031
:10017000000C10F8013B13F0070408BF10F8014B06
:100180001D1108BF10F8015B641E05D010F8016B4B
:10019000641E01F8016BF9D113F0080F1EBF10F8AF
:1001A000014BAD1C0C1B09D16D1E58BF01F801CBD2
:1001B000FAD505E014F8016B01F8016B6D1EF9D555
:1001C0009142D6D37047000000230024002500266A
:1001D000103A28BF78C1FBD8520728BF30C148BFAA
:1001E0000B6070471FB51FBD10B510BD00F098F82B
:1001F0001146FFF7F7FF07F0BBFB00F0B6F803B4BA
:10020000FFF7F2FF03BC02F0B9FC00000948804789
:1002100009480047FEE7FEE7FEE7FEE7FEE7FEE7E8
:10022000FEE7FEE7FEE7FEE704480549054A064B00
:100230007047000001160008310100087805002011
:10024000780B00207807002078070020704710B551
:10025000431C02E010F8011B71B18107FAD14FF085
:10026000013202C88C1A8C4314EAC211F9D0C01AA8
:100270000A0603D0C01E10BDC01A10BD0A0401D06A
:10028000801E10BD0902FCD0401E10BD10B5203AE2
:10029000C0F00B80B1E81850203AA0E81850B1E83F
:1002A0001850A0E81850BFF4F5AF5FEA027C24BFF5
:1002B000B1E81850A0E8185044BF18C918C0BDE8EC
:1002C00010405FEA827C24BF51F8043B40F8043BB5
:1002D00008BF7047D20728BF31F8023B48BF11F86A
:1002E000012B28BF20F8023B48BF00F8012B7047C4
:1002F000704770477047704710B500F009F8006804
:1003000010BD10B5044600F003F8046010BD0000F5
:10031000004870471405002000487047140500206D
:100320007546FFF7F9FFAE4605006946534620F0D3
:100330000700854618B020B5FFF776FFBDE82040DE
:100340004FF000064FF000074FF000084FF0000B91
:1003500021F00701AC46ACE8C009ACE8C009ACE844
:10036000C009ACE8C0098D4670470446AFF3008071
:100370002046FFF744FF10B500F0A8FA10BD70B595
:1003800006460C46154608E03046721C96B200F050
:100390001FF804F8010B681E85B2002DF4D170BD62
:1003A0002DE9F0410746884614460026002509E05D
:1003B00036023919491B491E88B200F009F8064473
:1003C000681CC5B2A542F3DBC8F80060BDE8F08147
:1003D00070B50446002500F02DFB40F2FF7094FB41
:1003E000F0F0A02101EB4000C6B2304600F0E8FA80
:1003F00000F06CFB40F2FF7094FBF0F100FB114049
:10040000C6B2304600F0DCFA00F060FB00F012FBF0
:10041000A12000F0D5FA00F059FB002000F098FA76
:10042000054600F02DFB284670BD70B505460C460C
:10043000164606E02178284600F01EF8681C85B2B2
:10044000641C3000A6F101018EB2F3D170BD2DE91C
:10045000F04105460E461746002409E0E3003268E5
:10046000DA40D1B22A1990B200F006F8601CC4B28A
:10047000BC42F3DBBDE8F08170B504460D4600F0E8
:10048000D9FA40F2FF7094FBF0F0A02101EB40009C
:10049000C6B2304600F094FA00F018FB40F2FF704C
:1004A00094FBF0F100FB1140C6B2304600F088FA30
:1004B00000F00CFB284600F083FA00F007FB00F088
:1004C000DFFA0A2004F0C4FA70BD10B5012000F074
:1004D0001DFD002000F01AFD10BD000008B501460A
:1004E0000020009003480090009808440090009875
:1004F000008808BD006C004008B500220092044A44
:100500000092009A02440092009A116008BD000017
:10051000006C004000BFFEE7704700000149086022
:100520007047000014040140002123498279002A09
:100530003AD00A46126803689A430B461A600A1DAD
:10054000126803689A430B1D1A60027911440A6805
:1005500003681A430A60184A0832126803689A430B
:10056000154B08331A601A1D126803689A43124B20
:100570000C331A604279102A0ED11A1F12680368D0
:100580001A430D4B08331A601A1D126803681A4388
:10059000094B0C331A600DE00749427911440A688F
:1005A00003681A430A6005E0027911440A68036887
:1005B0009A430A60704700000004014051B1820074
:1005C000A2F1C042126842F001038200A2F1C042CF
:1005D000136009E08200A2F1C0421268034B1A4086
:1005E0008300A3F1C0431A6070470000FEFF0F00B4
:1005F000D0E901121143C2681143026911434269F3
:10060000114382691143C2691143026A1143426A6C
:100610001143826A1143C26A1143026B114302689B
:100620009200A2F1C0421160816808290BD10168D3
:100630008900A1F1C041096841F0400201688900C8
:10064000A1F1C0410A60416B0968426B526841EAFE
:100650000211426B926841EA0221426B928941EA9F
:100660000241426B128A41EA0251426B127D41EA19
:100670000261426B926911430268521C9200A2F11E
:10068000C0421160C16AB1F5804F1BD1816B09680E
:10069000826B526841EA0211826B926841EA022140
:1006A000826B128A41EA0251826B127D41EA026139
:1006B000826B9269114302689200A2F1C042C2F8B3
:1006C000041107E06FF0704201688900A1F1C04198
:1006D000C1F8042170472DE9F84F05460E4617462C
:1006E0001C46DDF828A023463A463146284600F04D
:1006F000A7FB301980B20090684600F059FBBDF8A6
:100700000010202000F048FB2946212000F044FB87
:10071000222000F039FB4FF0000910E04FF00008F4
:1007200006E0504600F028FB08F1010000F0FF0849
:10073000601C8045F5DB09F1010000F0FF09781C21
:100740008145EBDBBDE8F88F2DE9F041024600253D
:100750000026002000230024002791F803C00CF09D
:100760000F0591F803C00CF0100CBCF1000F03D082
:1007700091F802C04CEA050591F800C0BCF1000FE9
:1007800031D0146800202BE04FF0010C0CFA00F37C
:10079000B1F800C00CEA03069E4220D183004FF05E
:1007A0000F0C0CFA03F7BC4305FA03FC4CEA0404F3
:1007B00091F803C0BCF1280F06D14FF0010C0CFAE0
:1007C00000FCC2F814C00AE091F803C0BCF1480F65
:1007D00005D14FF0010C0CFA00FCC2F810C0401C0F
:1007E0000828D1D31460B1F800C0BCF1FF0F34DD8C
:1007F000546800202EE000F1080C4FF0010808FAC0
:100800000CF3B1F800C00CEA03069E4221D183002C
:100810004FF00F0C0CFA03F7BC4305FA03FC4CEA4B
:10082000040491F803C0BCF1280F05D100F1080CB5
:1008300008FA0CF8C2F8148091F803C0BCF1480F14
:1008400007D100F1080C4FF0010808FA0CF8C2F8C3
:100850001080401C0828CED35460BDE8F0810246C9
:100860000020D3680B400BB1012000E0002070474E
:10087000416170470161704700BFFEE710B500207D
:100880000F4908600F48006820F070400D4908606B
:100890000846006840F04050086000200A49C1F84E
:1008A0009C01022004F0FAF80120054908600220AA
:1008B00004F0F4F800200449C1F8980110BD0000CC
:1008C00098812142000C01400080214208B501219D
:1008D000082000F00BFBC020ADF8000010208DF8C0
:1008E000030003208DF8020069460448FFF72CFF3F
:1008F000C0210248FFF7BEFF08BD0000000C014008
:1009000010B500200F4908600F48006820F07040C3
:100910000D4908600846006840F04050086001201A
:100920000A49C1F89C01022004F0B8F801200549E9
:100930000860022004F0B2F800200449C1F89801D0
:1009400010BD000098812142000C0140008021422E
:1009500070B5054600241748006820F0704015491E
:1009600008600846006840F000400860002616E075
:10097000002011490860022004F090F801200F497E
:10098000C1F898016006040E0B487C38006808B175
:10099000601CC4B2012004F081F8701CC6B2082E9D
:1009A000E6DB15B9FFF7ACFF01E0FFF767FF204674
:1009B00070BD0000000C014098812142008021425E
:1009C00070B504461848006820F070401649086069
:1009D0000846006840F04050086000201349086055
:1009E00000251EE0E00920B101201049091D086022
:1009F00003E000200D49091D08606006040E022076
:100A000004F04CF8012009490860022004F046F87F
:100A100000200749C1F89801022004F03FF8681C43
:100A2000C5B2082DDEDB70BD000C0140988121426B
:100A30000080214210B50F48006820F070400D4939
:100A400008600846006840F04050086001200A49EC
:100A500008600A49C1F89801042004F01FF800203A
:100A600005490860042004F019F800200349C1F882
:100A7000980110BD000C01409C8121420080214260
:100A800010B50F48006820F070400D490860084616
:100A9000006840F04050086000200A4908600A4998
:100AA000C1F89C01042003F0F9FF0120054908600A
:100AB0000549C1F89C01042003F0F0FF10BD0000BF
:100AC000000C0140988121420080214210B5002491
:100AD0001448006820F07040124908600846006819
:100AE00040F00040086001200F49086003F0D6FF85
:100AF00001200E49C1F8980103F0D0FF07E0601C07
:100B0000C4B2FA2C03DDFFF7BBFF012010BD06487D
:100B1000803800680028F2D10349091F086000BF2F
:100B2000F4E70000000C01409C812142008021423A
:100B300010B586B01D48807A1C498979884231D128
:100B40001B490868804704204FF6FF711F2219A334
:100B5000CDE90032CDE9021015481E2346220021BE
:100B600044680A20A047059013480599016013487E
:100B7000007813A114220092CDE9012103900C48C2
:100B800032234121C4680846A04705900A480599C8
:100B900041601F20009006481223DC229D21C46A78
:100BA0000020A04706F0C6FD06B010BDB001002031
:100BB000F000002049500000210200202002002007
:100BC0004950204144445245535300000146CA173E
:100BD00001EB92729210A1EB820292B9642091FB18
:100BE000F0F200FB121050B94FF4C87091FBF0F214
:100BF00000FB121008B9012070470020FCE701201B
:100C0000FAE70020F8E738B50446B023DC220021DB
:100C100008460094FFF75FFD38BD2DE9FF4F85B012
:100C200081468A460020039083460798A0EB090579
:100C30000898A0EB0A06CDF80890CDF804A0002D86
:100C400001DD012705E00DB9002702E04FF0FF3775
:100C50006D42002E02DD4FF0010806E016B94FF09C
:100C6000000802E04FF0FF387642B54201DD2C4625
:100C700000E03446002004901EE0019A91B2029AEE
:100C800090B2129A00F0ECFC039828440390B3440D
:100C90000398A04205DD0398001B03900298384496
:100CA0000290A34504DDABEB040B01984044019096
:100CB0000498401C80B20490611C04988842DCDDDA
:100CC00009B0BDE8F08F2DE9F84F07460D46904674
:100CD0001E46DDF828B00B98042825D1701B00EBC8
:100CE000D07105EB61011FFA81F9002415E009EBD1
:100CF000040C1FFA8CF3A8EB040C1FFA8CF209EB1E
:100D0000040C1FFA8CF107EB040C1FFA8CF0CDF8E1
:100D100000B0FFF782FF601CC4B2701B00EBD07103
:100D2000B4EB610FE3DB24E00B98012821D1A8EBA1
:100D3000070000EBD07107EB610101F0FF0A00240E
:100D400011E0A6EB040C1FFA8CF30AEB040205EB8E
:100D5000040C1FFA8CF10AEB0400CDF800B0FFF789
:100D60005CFF601CC4B2701B00EBD071B4EB610F70
:100D7000E7DBBDE8F88F00000112024A1170107025
:100D800070470000000001600112024A11701070EB
:100D900070470000FFFF006010B504460B46204678
:100DA000FFF7F2FF1846FFF7E7FF10BD00BFFEE7B1
:100DB0000188C1F1B00101807047704770B5002112
:100DC00000230F22C47804B3154C246804F4E064B3
:100DD000C4F5E064210AC1F10403CA40447804FA6E
:100DE00003F184781440214309010E4C0678A15583
:100DF000047804F01F050124AC4005786D11AD00A6
:100E000005F1E025C5F8004109E0047804F01F056C
:100E10000124AC40044D0678761145F8264070BD9B
:100E20000CED00E000E400E080E100E00249014355
:100E3000024A1160704700000000FA050CED00E066
:100E40002DE9FC4105460C4617461E46A01980B206
:100E5000009001946846FFF7ABFF01A8FFF7A8FFD9
:100E60003620FFF791FFBDF80400FFF785FF37201C
:100E7000FFF78AFFBDF80000FFF77EFF3820FFF77D
:100E800083FFE91988B2FFF777FF3920FFF77CFF6E
:100E90002846FFF771FFBDE8FC81000001490862A8
:100EA0007047000000000E427047000029B1064A5A
:100EB00052690243044B5A6104E0034A5269824377
:100EC000014B5A61704700000010024029B1064AE8
:100ED000D2690243044BDA6104E0034AD2698243D7
:100EE000014BDA61704700000010024029B1064A48
:100EF00092690243044B9A6104E0034A9269824377
:100F0000014B9A61704700000010024001490860DF
:100F1000704700004004424210B501460022002301
:100F200000204A11012A02D1094C236806E0022A56
:100F300002D1074C236A01E0054C636A01F01F02ED
:100F4000012494401C400CB1012000E0002010BDA1
:100F50000010024000210B4A11700A4A203A82F820
:100F60002010012802D0042808D103E00121054AFD
:100F7000117004E00521034A117000E000BF00BFBA
:100F800070470000201002400149086070470000CF
:100F90003C0442420249096A0143014A1162704716
:100FA00000100240024909888143014A11807047BC
:100FB000042800400348008840F0100001490880E0
:100FC0007047000004280040034800884FF6EF7186
:100FD00008400149088070470428004070B5002689
:100FE0000024002500F07AF806463848B6FBF0F4F5
:100FF00037480088A0423CD035490C8040F2B27599
:1010000010E02846FFF7E2FD40B1B4F5B77F02D308
:10101000A4F5B77404E0681C85B206E0A4F26D1470
:10102000681C85B2B4F5B67FEBD800BF294885802F
:10103000002516E027498888FFF7C8FD30B1012D4B
:1010400004D11D2C01D31D3C09E00CE02248405D79
:10105000A04203D82048405D241A00E003E0681C49
:1010600085B21C2CE6D200BF681C1A498871601C2E
:10107000C8711648B6FBF0F100FB11644FF46160D3
:10108000B4FBF0F0134908704FF46160B4FBF0F169
:1010900000FB11403C21B0FBF1F00E4948704FF4C9
:1010A0006160B4FBF0F100FB11403C21B0FBF1F2B8
:1010B00001FB1200074988700B46DA799979988804
:1010C00000F028F803490872002070BD805101002B
:1010D00046000020A4030020EEFB00080021034886
:1010E0000188001F008841EA004070471C2800402A
:1010F00001460020064A12880A40D0B2044A121F54
:1011000012880A4012B108B1012000E000207047A7
:1011100004280040F0B503460C461546642093FBB6
:10112000F0F0C6B2642093FBF0F700FB1730C1B2B9
:10113000132E02DD01F16400C1B20846CF1701EBA6
:10114000977701EBA707BAB2072092FBF0F700FBF5
:10115000172082B25719601EDFF82CC01CF800005F
:10116000384482B2CF1701EB9777BF10A1EB870706
:101170001FB9032C01DA501E82B2072092FBF0F750
:1011800000FB1720C0B2F0BDE2FB000810B5012043
:10119000FFF7AEFF68B10A480078401C08490870A4
:1011A0000848407A012802D0012006494872FFF71A
:1011B00015FF0520FFF7F6FE00F02EF910BD000028
:1011C00044000020A403002029B1064A12880243EB
:1011D000044B1A8004E0034A12888243014B1A80B0
:1011E00070470000002800401CB5002401214FF08A
:1011F000C050FFF76BFE0120FFF750FE0420FFF701
:101200006DF9B0F5A04F44D0FFF75FF90120FFF76B
:10121000A1FE04E0601CC4B20A2003F019FC4120C6
:10122000FFF77AFE08B9FA2CF4DBFA2C01DB012077
:101230001CBD4FF48070FFF7ADFE0120FFF7A4FE48
:1012400000F0EAF800F0F2F801210846FFF7BCFFD1
:1012500001210220FFF7B8FF00F0DEF8FFF7AAFE39
:1012600047F6FF7000F0C8F800F0D6F800202521FE
:101270000A231C22CDE90010042140F2E27000F0A4
:1012800049F8FFF7A1FE4FF4A0410420FFF734F91D
:1012900007E000F0CBF801210846FFF795FF00F0CA
:1012A000BBF800F004F8FFF799FE0020C0E70EB588
:1012B00003208DF8080002208DF8090001208DF828
:1012C0000A008DF80B0002A8FFF778FD29208DF8A1
:1012D000080001208DF8090002208DF80A00012085
:1012E0008DF80B0002A8FFF769FD4FF40030FFF7FF
:1012F00015F900208DF804004FF40030009008200C
:101300008DF8050001208DF806006846FFF70CF9FE
:101310000EBD00002DE9F05F06460F469046994647
:10132000DDE90AAB002440F2B270864203DB40F6EE
:101330003300864202DD0120BDE8F09F40F2B27525
:101340000AE02846FFF742FC10B12048044401E0BF
:101350001F480444681C85B2B542F2DB781EC7B250
:10136000002510E01B48405D40F2A321484304EBF8
:10137000C0143046FFF72AFC18B1012D01D11648E0
:101380000444681C85B2BD42ECDBA8F1010040F2C8
:10139000A321484304EBC014C9EB4910C0EB09205A
:1013A00004EB0014CAEB0A1004EB80045C44012136
:1013B0004FF0C050FFF78AFD0120FFF76FFD204678
:1013C00000F00CF800F028F80020B5E70085E201F5
:1013D0008033E101EEFB00088051010000B50246B8
:1013E000FFF7E8FD100C03490880091D0A80FFF78C
:1013F000EBFD00BD1828004000B50246FFF7DAFDFE
:10140000C2F3034003490880091D0A80FFF7DCFD91
:1014100000BD00000828004000BF0348008800F01D
:1014200020000028F9D070470428004007480088B1
:101430004FF6F77108400549088000BF034800884F
:1014400000F008000028F9D0704700000428004090
:10145000704710B500F002F810BD00000CB5002078
:10146000019000903348006840F4803031490860B2
:1014700000BF3048006800F4003000900198401C24
:101480000190009818B90198B0F5A06FF1D12948E2
:10149000006800F4003010B10120009001E000204D
:1014A00000900098012843D12348006840F01000C4
:1014B000214908600846006820F0030008600846DB
:1014C000006840F0020008601A4840681949486006
:1014D0000846406848600846406840F480604860BC
:1014E0000846406820F47C1048600846406840F494
:1014F000E81048600846006840F08070086000BF4F
:101500000C48006800F000700028F9D009484068D5
:1015100020F00300074948600846406840F0020098
:10152000486000BF0348406800F00C000828F9D16B
:101530000CBD0000001002400020024030B58DB00C
:1015400004461422204908A8FEF7A0FE14221E49D2
:10155000143103A8FEF79AFE012C1ED10020009042
:101560001A486C2351222021C56A0020A847052073
:1015700008A9CDE90010154814235022202105693F
:101580000020A84701200021CDE900101048872342
:101590004B227D2185694120A8479CB900200090FD
:1015A0000A486C2347223221C56A5520A8470520E6
:1015B00003A9CDE90010054814234622322105690C
:1015C0005520A8470DB030BDFCFB0008F0000020FE
:1015D00020000020042808D14FF0E021096941F0E3
:1015E00004014FF0E022116107E04FF0E0210969AA
:1015F00021F004014FF0E0221161704770470000B4
:1016000010B51348006840F0010011490860084611
:101610004068104908400E494860084600680E4975
:1016200008400B4908600846006820F480200860E4
:101630000846406820F4FE0048604FF41F008860B0
:10164000FFF707FF4FF000600449086010BD00007D
:10165000001002400000FFF8FFFFF6FE08ED00E07A
:1016600037B50446154601231A46BDF80410204636
:10167000FFF7E6FB01A8FFF79BFBBDF80410202055
:10168000FFF78AFB21462120FFF786FB2220FFF788
:101690007BFB2846FFF770FB3EBD00002DE9FF4FA6
:1016A00081B082468B461C4600260120009003989C
:1016B0002038C7B2102C05D1374800EB071010F8BE
:1016C000068014E0182C07D107EBC700334901EB63
:1016D000800010F806800AE0202C05D1304800EB8D
:1016E000871010F8068002E005B0BDE8F08F4FF0DB
:1016F000000949E00AEB0900DC2800DBF4E70025DB
:101700003CE0E91705EB5171C910A5EBC10101BB24
:101710000098D0B9701CC6B2102C05D11E4800EB41
:10172000071010F8068010E0182C07D107EBC7004F
:101730001A4901EB800010F8068006E0202C04D145
:10174000174800EB871010F80680009808B10020B9
:1017500000900BEB0500B02800DBC5E708F00100A6
:1017600040B10BEB050291B20AEB090290B20E9A5E
:10177000FFF776FF4FEA6808681CC5B2A542C0DBD8
:1017800009F1010000F0FF0904EBD471B9EB610F1E
:10179000B0DB00BFA8E700006ACE00085AD40008FA
:1017A000B6E1000800B597B001210802FFF77EFB03
:1017B00001216020FFF79AFB4CF6B300ADF858000A
:1017C00018208DF85B0003208DF85A0016A92E48CA
:1017D000FEF7BAFF4FF4F060ADF8580018208DF80E
:1017E0005B0003208DF85A0016A92848FEF7ACFFCD
:1017F0000120ADF8580010208DF85B0003208DF813
:101800005A0016A92148FEF79FFF4FF40050ADF88B
:10181000580010208DF85B0003208DF85A0016A99F
:101820001948FEF791FF0120194908600520009032
:101830000020019005200290002003900490059064
:101840004FF08050069000200790089008200990E3
:1018500000200A900B900D900E900F904FF4805046
:10186000109000201190129013900C90CDF850D051
:10187000CDF854D007A8FEF7BBFE01210020FEF7EB
:101880009DFE17B000BD000000140140001801408B
:10189000B48122422DE9FF4F85B0804614461F4691
:1018A000DDF848903A4894FBF0F0C0B28DF80C0097
:1018B000374894FBF0F100FB114042F2107190FBAD
:1018C000F1F0C0B28DF80D00084694FBF0F100FB7A
:1018D00011404FF47A7190FBF1F0C0B28DF80E0018
:1018E000084694FBF0F100FB1140642190FBF1F0FD
:1018F000C0B28DF80F00642094FBF0F100FB1140A2
:101900000A2190FBF1F0C0B28DF810000A2094FB80
:10191000F0F100FB1140C0B28DF8110000250AE083
:1019200003A8405D10B94FF0000B02E04FF0010B2F
:1019300003E0681CC5B2062DF2DB00BFAA46BBF16E
:10194000010F1AD1002613E007EBD771491006FBEF
:10195000018188B2A91903ABCDF800900297595CB8
:101960003031CAB23B460699FFF798FE701CC6B2EA
:10197000CAF10600B042E7DC07E03B463022CDF872
:10198000009040460699FFF789FE09B0BDE8F08F48
:10199000A08601002DE9F84306460F4614461D4671
:1019A000DDF820800EE0CDF8008022782B46394605
:1019B0003046FFF773FE284605EBD07106EB610158
:1019C0008EB2641C20787E2802DC20782028EADA97
:1019D000BDE8F8832DE9F05F06460F46904699462C
:1019E0004FF0000A002521E000241BE0E11704EB82
:1019F0005171C910A4EBC10131B90B9810F80AB0AC
:101A00000AF101001FFA80FA0BF0010030B13A1917
:101A100091B2721990B20A9AFFF722FE4FEA6B0B4D
:101A2000601C84B24C45E1DB681C85B24545DBDBBC
:101A3000BDE8F09F2DE9FF4F85B0074614461D46CF
:101A4000129E594894FBF0F0C0B28DF80C00564835
:101A500094FBF0F100FB114042F2107190FBF1F0A9
:101A6000C0B28DF80D00084694FBF0F100FB114068
:101A70004FF47A7190FBF1F0C0B28DF80E00084679
:101A800094FBF0F100FB1140642190FBF1F0C0B237
:101A90008DF80F00642094FBF0F100FB11400A2147
:101AA00090FBF1F0C0B28DF810000A2094FBF0F129
:101AB00000FB1140C0B28DF811004FF000080DE09E
:101AC00003A810F8080010B94FF0000B02E04FF027
:101AD000010B06E008F1010000F0FF08B8F1060F65
:101AE000EEDB00BFC246BBF1010F53D1092C3EDD36
:101AF0004FF0000915E005EBD571491009FB0171A4
:101B000088B208EB090103AB00960295595C3031AD
:101B1000CAB22B460699FFF7C1FD09F1010000F09A
:101B2000FF09CAF105004845E5DC05EBD571491010
:101B3000CAF1050202FB017188B22B462E220096E3
:101B400002950699FFF7AAFD05EBD5714910CAF178
:101B5000060303FB017188B2009602959DF81110EF
:101B60003031CAB22B460699FFF798FD19E02B4693
:101B70000EA2009638460699FFF70CFF00969DF8D6
:101B800011103031CAB2791988B22B460699FFF785
:101B900085FD06E02B462246009638460699FFF75B
:101BA00079FE09B0BDE8F08FA0860100302E00005C
:101BB0002DE9F84F0746884614461D460A9E201E0A
:101BC00001DB014600E041428946002C13DD2B4633
:101BD0002B22414638460096FFF760FDAA4605EBEA
:101BE000DA7107EB610188B22B4622464146009626
:101BF000FFF750FE1BE03CB92B46224641463846D3
:101C00000096FFF747FE12E02B462D22414638464C
:101C10000096FFF743FDAA4605EBDA7107EB610179
:101C200088B22B464A4641460096FFF733FEBDE890
:101C3000F88F2DE9F84F0746884614461D460A9E40
:101C4000201E01DB014600E041428946002C13DDE5
:101C50002B462B22414638460096FFF71FFDAA4629
:101C600005EBDA7107EB610188B22B46224641464B
:101C70000096FFF7DFFE1BE03CB92B4622464146AB
:101C800038460096FFF706FE12E02B462D2241460D
:101C900038460096FFF702FDAA4605EBDA7107EB1E
:101CA000610188B22B464A4641460096FFF7C2FEC4
:101CB000BDE8F88F10B5FFF775FD322002F0C8FEC1
:101CC00001205D490860642002F0C2FE00205B49EB
:101CD000C1F880014FF4967002F0BAFE0120564917
:101CE0000860642002F0B4FE4FF48E710120FFF70B
:101CF00053F84FF480710220FFF74EF84FF48151F2
:101D00000320FFF749F840F608010820FFF744F8E0
:101D100000210C20FFF740F840F601010F20FFF7EB
:101D20003BF800212020FFF737F800212120FFF7A2
:101D300033F8052002F08CFE4FF420611020FFF7ED
:101D40002BF841F23B011120FFF726F8052002F0A5
:101D50007FFE46F221111220FFF71EF86F2113209B
:101D6000FFF71AF843F245711420FFF715F8002128
:101D70003020FFF711F8DB213120FFF70DF80021AB
:101D80003220FFF709F800213320FFF705F8DB21A7
:101D90003420FFF701F800213520FEF7FDFFAF21C9
:101DA0003620FEF7F9FF00213720FEF7F5FFDB2193
:101DB0003820FEF7F1FF00213920FEF7EDFF4FF448
:101DC00080615020FEF7E8FF40F60B015120FEF73E
:101DD000E3FF40F60C615220FEF7DEFF40F20311F4
:101DE0005320FEF7D9FF40F60E415420FEF7D4FFF2
:101DF00040F608315520FEF7CFFF04215620FEF7AC
:101E0000CBFF40F201315720FEF7C6FF4FF460616F
:101E10005820FEF7C1FF0E215920FEF7BDFF052017
:101E200002F016FE41F217010720FEF7B5FF14205D
:101E300002F00EFE10BD000080012342000023428C
:101E40002DE9F04F89B04FF000080020049000BF4A
:101E50001F20FE4908804FF6FF70FD490880FEF7FD
:101E6000D2FE4FF47840F94908804FF6FF70FEF734
:101E7000CAFE0020F54908804FF478421421084634
:101E800000F09CFA0020F34981F82000486282E2C9
:101E9000F048416801208847EE4890F8200000F0A3
:101EA000C000402879D100200490EA4890F8200032
:101EB00020F04000E74981F820000846808905A904
:101EC00021F82800E348C08A01EB8801488008F126
:101ED000010000F0FF08B8F1010F09D0B8F1020FBE
:101EE00013D0B8F1030F1DD0B8F1040F0CD126E0C8
:101EF0004FF6FF721421084600F060FA4FF4784262
:101F00001421C82000F05AFA35E24FF6FF7214216E
:101F1000C82000F053FA4FF478429C21142000F0BE
:101F20004DFA28E24FF6FF729C21142000F046FA89
:101F30004FF478429C21C82000F040FA1BE2BDF823
:101F40001410BDF81820881A002801DB014600E0B3
:101F500041420C46BDF81620BDF81A10501A002850
:101F600001DB014600E041420D4664436D436019C8
:101F70000AF0B9FACDE9000108F0A4FCCDE90201AC
:101F80000AF084FA1FFA80FABDF81C10BDF8202070
:101F9000881A002802DB014601E0EDE141420C46CF
:101FA000BDF81E20BDF82210501A002801DB0146A2
:101FB00000E041420D4664436D4360190AF093FA14
:101FC000CDE9000108F07EFCCDE902010AF05EFADD
:101FD0001FFA80FB58460AF0E9FD039050460AF0CC
:101FE000E5FD029003990AF0CBFC81460AF03AFC29
:101FF00006460F464FF06632974B304639460AF098
:1020000085FA0CD3954A964B304639460AF00EFBBA
:1020100005D3BAF1000F02D0BBF1000F0ED14FF083
:1020200000084FF6FF729C21C82000F0C7F94FF45A
:1020300078421421084600F0C1F9ACE1BDF8141053
:10204000BDF81C20881A002801DB014600E041424F
:102050000C46BDF81620BDF81E10501A002801DBF2
:10206000014600E041420D4664436D4360190AF0A9
:102070003AFACDE9000108F025FCCDE902010AF0A9
:1020800005FA1FFA80FABDF81810BDF82020881A4A
:10209000002801DB014600E041420C46BDF81A2051
:1020A000BDF82210501A002801DB014600E0414231
:1020B0000D4664436D4360190AF015FACDE900013D
:1020C00008F000FCCDE902010AF0E0F91FFA80FBFC
:1020D00058460AF06BFD039050460AF067FD0290E7
:1020E00003990AF04DFC81460AF0BCFB06460F46F8
:1020F0004FF06632584B304639460AF007FA06D39D
:10210000564A574B304639460AF090FA0ED24FF0F5
:1021100000084FF6FF729C21C82000F04FF94FF4E1
:1021200078421421084600F049F934E1BDF818104E
:10213000BDF81C20881A002801DB014600E041425E
:102140000C46BDF81A20BDF81E10501A002801DBFD
:10215000014600E041420D4664436D4360190AF0B8
:10216000C2F9CDE9000108F0ADFBCDE902010AF0AA
:102170008DF91FFA80FABDF81410BDF82020881AD6
:10218000002801DB014600E041420C46BDF8162064
:10219000BDF82210501A002801DB014600E0414240
:1021A0000D4664436D4360190AF09DF9CDE90001C5
:1021B00008F088FBCDE902010AF068F91FFA80FBFC
:1021C00058460AF0F3FC039050460AF0EFFC0290E8
:1021D00003990AF0D5FB81460AF044FB06460F46F8
:1021E0004FF066321C4B304639460AF08FF906D361
:1021F0001A4A1B4B304639460AF018FA0ED24FF0F5
:1022000000084FF6FF729C21C82000F0D7F84FF469
:1022100078421421084600F0D1F8BCE0BDF818104F
:10222000BDF81420881A0AF0A9FC814649460D48D9
:102230000AF0A6FB07494862BDF81810BDF8142043
:1022400088180AF09BFC019002480DE07000002005
:1022500072000020740000206666EE3FCDCCCCCC2E
:10226000CCCCF03F00003443416A01980AF0B2FC44
:102270004B4902900AF07AFD4FF0804103900AF03A
:102280007FFB81460AF03EFC00B246498885BDF8D6
:102290001E10BDF81620881A0AF070FC81464946C7
:1022A00041480AF06DFB3F498862BDF81E10BDF839
:1022B000162088180AF062FC01903A48816A019859
:1022C0000AF088FC394902900AF050FD81464FF02F
:1022D00080410AF055FB03900AF014FC00B231492A
:1022E000C885486A0AF00EFC0390002801DB0398B9
:1022F00001E00398404202280CDC2A49886A0AF06F
:1023000001FCB0F1000901DB484601E0C9F1000021
:1023100002281DDD4FF000084FF6FF729C21C820F7
:1023200000F04CF84FF478421421084600F046F8CB
:102330001C4890F8300008B9012000E0002019493D
:1023400081F8300090201A490870D020194908708F
:102350001F20194908804FF6FF70FEF754FC4FF418
:102360007A7002F075FB00F0DFF90020FEF74BFCFD
:1023700009B0BDE8F08F00BF0A2002F069FB0498A5
:10238000401C80B204900498B0F57A7F02DD00F022
:1023900059F801E000BF7BE500BF00BFE8E700009F
:1023A00000005C437400002000000843000030433C
:1023B000A8000020A900002070000020F8B5044605
:1023C0000D4616461E48068004F10D018AB21939E1
:1023D00088B22B4629460096FEF71FFC05F10D003A
:1023E00083B2193881B2224620460096FEF715FCCA
:1023F0006A1C91B2621C90B2114A1288FFF730F940
:102400006A1C91B2621E90B20D4A1288FFF728F939
:102410006A1E91B2621C90B2094A1288FFF720F935
:102420006A1E91B2621E90B2054A1288FFF718F92F
:10243000334602222946204604F085FBF8BD000001
:102440007000002010B50E20FDF7C2FF04460A2CD4
:102450000CD10E2206490020FDF791FF902005497E
:102460000870D02004490870012010BD0020FCE74E
:1024700098000020A8000020A900002008B5012134
:102480004020FEF733FD1020ADF800008DF803006A
:1024900003208DF8020069462348FEF755F9102104
:1024A0002148FEF7E7F92020ADF8000048208DF81C
:1024B000030069461C48FEF747F920211A48FEF739
:1024C000D9F94820ADF8000010208DF80300032052
:1024D0008DF8020069461448FEF736F94821124883
:1024E000FEF7C8F90420ADF8000048208DF803007D
:1024F00069460D48FEF728F904210B48FEF7BAF9A2
:102500000A49A1F10A0000F097F8FDF734FFFFF740
:1025100099FF08B1002008BD4FF6FF70FEF773FB6E
:10252000FFF78EFC0120F6E7001801408A0000202A
:1025300070B506460025002400201F4908601F4989
:10254000C1F898011C49091F0860304600F082F963
:10255000062002F0A3FA00201849C1F890010120DA
:1025600002F09CFA01201449086002F097FA00205A
:102570001249C1F8900100BF15E04FF6FF7000EA64
:10258000440400200C490860012002F087FA012071
:102590000A49C1F8900108487C38006808B1601CFD
:1025A00084B2681CC5B2102DE7DB2411012002495A
:1025B000091F0860204670BD90012342000023429D
:1025C0002DE9FE4380460027002406E04046FFF741
:1025D000AFFF2DF81400601C84B2052CF6DB00243C
:1025E00016E0601C85B20FE03DF814003DF81510B0
:1025F000884207DD3DF814603DF815002DF8140001
:102600002DF81560681C85B2052DEDDB601C84B2C9
:10261000042CE6DB0027012405E03DF814003844D3
:1026200087B2601C84B2042CF7DB032097FBF0F028
:1026300086B23046BDE8FE832DE9F04104460D46E2
:1026400007480078FFF7BCFF064606480078FFF70A
:10265000B7FF074626802F800120BDE8F0810000EB
:10266000A9000020A80000207FB504460D4602A95D
:1026700003A8FFF7E1FF064616B9002004B070BDBD
:10268000694601A8FFF7D8FF06460EB90020F5E716
:10269000BDF80400BDF80C10884206DCBDF80C1033
:1026A000BDF80400323081420CDBBDF80C00BDF8EF
:1026B0000410884236DCBDF80410BDF80C0032303E
:1026C00081422FDABDF80000BDF80810884206DC10
:1026D000BDF80810BDF80000323081420CDBBDF8B7
:1026E0000800BDF8001088421CDCBDF80010BDF8E1
:1026F00008003230814215DABDF80C10BDF8042014
:10270000881800EBD071C1F34F012180BDF808108B
:10271000BDF80020881800EBD071C1F34F0129806B
:102720000120ABE70020A9E710B50E2204490020E4
:10273000FDF77BFE0A210E20FDF79EFE10BD000076
:10274000980000202DE9F041044640480068002828
:1027500056D12CB13E49A1F10A00FFF785FF3DE0BB
:102760003B49A1F10A00FFF77FFFB8B3384916399A
:10277000B1F92C000AF002FA074635491639888962
:102780000AF014FA804632481638416A40460AF088
:1027900021FA064639460AF091F805460AF0CEF9C4
:1027A0002B4916398881B1F92E000AF0E7F907465E
:1027B00027491639C88A0AF0F9F98046244816389C
:1027C000816A40460AF006FA064639460AF076F86B
:1027D00005460AF0B3F91E491639C8821C48163856
:1027E00090F8200000F0800038BBC020184916394E
:1027F00081F82000084681898182C18AC1831CE05A
:102800001348163890F8200000F0800050B11048AE
:10281000163890F8200020F080000D49163981F814
:1028200020000AE000210A4816388182C1834FF651
:10283000FF70074916398881C8820548163890F814
:10284000200000F08000BDE8F08100000801234274
:102850008A00002070B50446002500BF18E004F08F
:10286000800018B101200C49086002E000200A49EC
:1028700008606006040E002007490839086001203E
:1028800002F00CF901200549C1F89001681CC5B29D
:10289000082DE4DB70BD00009801234200002342B4
:1028A00010B540F225511D4800F03EF810B31B480A
:1028B00000F064F8C4B21A48008800F40040C8B9B7
:1028C0001748008800F4804060B10A2C03D0002033
:1028D0001349088020E01248008840F40040104965
:1028E000088019E00D2C06D10D48008840F4804086
:1028F0000B49088010E00A480088C0F30D00094920
:102900000C5407480088401C054908800846008888
:10291000C72801DD0020088010BD000000380140FC
:102920001C000020DC02002070B5024600240023B9
:102930000025002040F66A16B14200D100BFC1F365
:10294000421501F01F03012606FA03F3012D02D1FF
:102950009689334006E0022D02D1168A334001E009
:10296000968A33400C12012606FA04F41688344085
:1029700013B10CB1012000E0002070BD0146888831
:10298000C0F30800704700BFFEE700002DE9FF4FCD
:1029900087B0DDE915ABDDF85090DDE91778BAF1C5
:1029A000000001DB014600E041420C46594894FB1F
:1029B000F0F0C0B28DF80800564894FBF0F100FB2F
:1029C000114042F2107190FBF1F0C0B28DF8090095
:1029D000084694FBF0F100FB11404FF47A7190FB34
:1029E000F1F0C0B28DF80A00084694FBF0F100FB4C
:1029F0001140642190FBF1F0C0B28DF80B0064200F
:102A000094FBF0F100FB11400A2190FBF1F0C0B201
:102A10008DF80C000A2094FBF0F100FB1140C0B2CD
:102A20008DF80D00002605E002A8805D00B103E0EE
:102A3000701CC6B2062EF7DB00BF052E03DCC6F104
:102A40000600C5B200E00125012F01D1681CC5B206
:102A5000B8F1010F05D1681CC5B20A2C01DA681C57
:102A6000C5B2BAF1000F00D10125484609EBD0717B
:102A70004910694389B20691089A0A99891AA1EB0B
:102A8000090000EBD0714A100899114489B20491F1
:102A9000079A09998A1A0699501A00EBD0714A10C0
:102AA0000799114489B2059157B9B8F1000F07D1C0
:102AB0004B465246CDF800B0DDE90410FEF7EAFEC1
:102AC000012F0AD1B8F1000F07D14B465246CDF87D
:102AD00000B0DDE90410FFF76BF857B9B8F1010F4A
:102AE00007D14B465246CDF800B0DDE90410FEF7A1
:102AF000A1FF012F0AD1B8F1010F07D14B46524671
:102B0000CDF800B0DDE90410FFF793F80BB0BDE895
:102B1000F08F0000A08601002DE9FF5F05460E46FC
:102B200017469846DDE90F9A0E9C4846FDF78FFB45
:102B300000F0FF0B204604EBD071491001FB0BF1B4
:102B400089B20391A8EB0601081B00EBD07106EBDC
:102B5000610189B201917A1B0399501A00EBD0717F
:102B600005EB610189B2029123464A46CDF800A0E7
:102B7000DDE90110FEF70EFFBDE8FF9F014600BF33
:102B8000704710B5029C20706170A270E37010BD98
:102B9000012806D0022812D003281ED0042838D1DC
:102BA00029E01D4909781D4A11801B494978518047
:102BB0001949897891801849C978D18029E0164946
:102BC0000979164A11801449497951801249897945
:102BD00091801149C979D1801BE0114909780F4AC8
:102BE00011800F49497851800D49897891800C49AD
:102BF000C978D1800DE00A490979084A118008494D
:102C0000497951800649897991800549C979D180EE
:102C100000BF00BF704700004C0100205C01002095
:102C20005401002010B504E00549086A804700F00F
:102C300009F80348807A0249097A8842F4D010BD25
:102C4000B001002010B58CB001F0CCFF0B90F8481B
:102C500080690BA90990F748099A90470A90F548AE
:102C6000007808B100200B9001200090F048006926
:102C70001E234622002109900A20099CA047012812
:102C800003D1ED49087006200B9002200090EB481C
:102C9000C0790990E94880790890E8484079079020
:102CA000E64800790690E24800690590DDE90540B4
:102CB00007A90EC9A047022803D1DF4908700620E2
:102CC0000B9002200090DD48C07A0990DB48807AA2
:102CD0000890DA48407A0790D848007A0690D4489D
:102CE00000690590DDE9054007A90EC9A047022843
:102CF00004D10320D049087006200B9002200090D8
:102D0000CE48C07B0990CD48807B0890CB48407B63
:102D10000790CA48007B0690C54800690590DDE928
:102D2000054007A90EC9A047022804D10420C249C2
:102D3000087006200B9002200090C048C07C0990CB
:102D4000BE48807C0890BD48407C0790BB48007C12
:102D50000690B74800690590DDE9054007A90EC94E
:102D6000A047022804D10520B349087006200B9023
:102D700002200090B148C07D0990B048807D089045
:102D8000AE48407D0790AD48007D0690A848006998
:102D90000590DDE9054007A90EC9A047022803D127
:102DA0000620A54908700B9002200090A348C07E21
:102DB0000990A248807E0890A048407E07909F48D6
:102DC000007E06909A4800690590DDE9054007A954
:102DD0000EC9A047022804D1072097490870062091
:102DE0000B90022000909548C07F09909348807F07
:102DF00008909248407F07909048007F06908C484A
:102E000000690590DDE9054007A90EC9A047022821
:102E100008D18B480078012804D108208649087021
:102E200006200B9002200090844890F8230009901F
:102E3000824890F822000890804890F8210007907E
:102E40007E4890F820000690794800690590DDE9F9
:102E5000054007A90EC9A047022808D17848007884
:102E6000012804D109207449087006200B90022023
:102E70000090724890F827000990704890F826005A
:102E800008906E4890F8250007906C4890F8240050
:102E90000690674800690590DDE9054007A90EC95D
:102EA000A047022808D166480078012804D10A20EA
:102EB0006149087006200B90022000905F4890F84E
:102EC0002B0009905D4890F82A0008905B4890F824
:102ED00029000790594890F8280006905448006946
:102EE0000590DDE9054007A90EC9A047022808D1D1
:102EF00053480078012804D10B204F490870062060
:102F00000B90022000904D4890F82F0009904B48FC
:102F100090F82E000890494890F82D0007904748F7
:102F200090F82C000690424800690590DDE90540C4
:102F300007A90EC9A047022808D1414800780128F6
:102F400004D10C203C49087006200B900220009010
:102F50003A4890F833000990384890F832000890C9
:102F6000364890F831000790344890F830000690C9
:102F70002F4800690590DDE9054007A90EC9A04763
:102F8000022808D12E480078012804D10D202A49B2
:102F9000087006200B9002200090284890F8370017
:102FA0000990264890F836000890244890F835009B
:102FB0000790224890F8340006901D48006905905B
:102FC000DDE9054007A90EC9A047022808D11C4821
:102FD0000078012804D10E201749087006200B90B4
:102FE00002200090154890F83B000990134890F893
:102FF0003A000890114890F8390007900F4890F86F
:10300000380006900A4800690590DDE9054007A9E7
:103010000EC9A047022804D10F20074908700620D6
:103020000B900A9801280DD002287DD1ABE1000059
:10303000B00100207102002070020020A0040020D6
:103040003F020020FE480078092815DAFD48007884
:10305000022811D1FA480078401CF9490870084646
:1030600000780990F848806B002340F21D520890C8
:10307000F648DDE90841A047F1484078092816DA0A
:10308000F0480078032812D1ED484078401CEC4904
:103090004870084640780990EB48806B002340F266
:1030A0001D520890E948001DDDE90841A047E448A9
:1030B0008078092816DAE3480078042812D1E0481D
:1030C0008078401CDE498870084680780990DE4888
:1030D000806B002340F21D520890DC480830DDE987
:1030E0000841A047D648C078092816DAD5480078A4
:1030F000052812D1D248C078401CD149C870084672
:10310000C0780990D048806B002340F21D5208908F
:10311000CE480C30DDE90841A047C94800790928AC
:1031200018DAC848007800E0AFE2062812D1C44897
:103130000079401CC2490871084600790990C248CC
:10314000806B002340F21D520890C0481030DDE92A
:103150000841A047BA484079092816DAB9480078EA
:10316000072812D1B6484079401CB5494871084635
:1031700040790990B448806B002340F21D520890BA
:10318000B2481430DDE90841A047B1480078092869
:1031900019DAAC480078082815D1AD480078401CF1
:1031A000AB490870084600780990A748806B002357
:1031B00040F21D520890A5481830DDE90841A047AB
:1031C0000120A4490870A2484078092819DA9D48CE
:1031D0000078092815D19E484078401C9C494870C9
:1031E0000846407809909848806B002340F21D52B1
:1031F000089096481C30DDE90841A0470120954918
:10320000087093488078092819DA8E4800780A28CF
:1032100015D18F488078401C8D4988700846807889
:1032200009908948806B002340F21D52089087481E
:103230002030DDE90841A047012086490870844814
:10324000C078092819DA7F4800780B2815D1804802
:10325000C078401C7E49C8700846C07809907A48FA
:10326000806B002340F21D52089078482430DDE93D
:103270000841A0470120774908707548007909285E
:1032800019DA704800780C2815D171480079401C73
:103290006F4908710846007909906B48806B0023DC
:1032A00040F21D52089069482830DDE90841A047E6
:1032B00001206849087066484079092819DA614890
:1032C00000780D2815D162484079401C604948714A
:1032D0000846407909905C48806B002340F21D52FB
:1032E00008905A482C30DDE90841A047012059498F
:1032F000087059480078642817DA524800780E2878
:1033000013D155480078401C534908704E48806BD3
:10331000002340F21D520990084601784B48303096
:10332000099CA04701204B4908704B48007864284D
:1033300028D1444800780E2824D14FF6FF7040F27F
:103340001D5146A2CDE9002102904048001F90F88F
:10335000370008903D48001F90F8360007903B4822
:10336000001F90F8350006903848001F90F8340090
:103370000590354840690490DDE9044006A90EC96E
:10338000A047099081E12E480078002815DD2D48DE
:103390000078022811D12A480078401E2849087078
:1033A0000846007809902848806B002340F21D529F
:1033B00008902648DDE90841A047214840780028C8
:1033C00016DD20480078032812D11D484078401EA1
:1033D0001B4948700846407809901B48806B0023C1
:1033E00040F21D5208901948001DDDE90841A04730
:1033F00013488078002816DD12480078042812D17E
:103400000F488078401E0E498870084680780990E1
:103410000D48806B002340F21D5208900B48083085
:10342000DDE90841A0470648C078002826DD0548A8
:103430000078052822D10248C078401E00490FE0DC
:103440002C02002070020020F0000020A4040020C4
:1034500038020020730200203E0200204D41580037
:10346000C8700846C0780990FD48806B002340F280
:103470001D520890FB48DDE90841A047FA48007951
:10348000002816DDF9480078062812D1F6480079A0
:10349000401EF5490871084600790990F048806B94
:1034A000002340F21D520890EE48001DDDE908415E
:1034B000A047ED484079002816DDEC480078072841
:1034C00012D1E9484079401EE749487108464079E1
:1034D0000990E348806B002340F21D520890E148B8
:1034E0000830DDE90841A047E1480078002819DDEF
:1034F000DE480078082815D1DD480078401EDC49F8
:103500000870084600780990D548806B002340F287
:103510001D520890D3480C30DDE90841A047012036
:10352000D4490870D2484078002819DDCF48007887
:10353000092815D1CE484078401ECD49487008462C
:1035400040780990C648806B002340F21D520890D5
:10355000C4481030DDE90841A0470120C549087082
:10356000C3488078002819DDC04800780A2815D1A2
:10357000BF488078401EBE49887008468078099010
:10358000B748806B002340F21D520890B5481430B4
:10359000DDE90841A0470120B6490870B448C07869
:1035A000002819DDB14800780B2815D1B048C07843
:1035B000401EAF49C8700846C0780990A848806B83
:1035C000002340F21D520890A6481830DDE908415A
:1035D000A0470120A7490870A5480079002819DDF7
:1035E000A24800780C2815D1A1480079401EA049B6
:1035F00008710846007909909948806B002340F2D1
:103600001D52089097481C30DDE90841A047012071
:103610009849087096484079002819DD9348007849
:103620000D2815D192484079401E914948710846AD
:10363000407909908A48806B002340F21D5208901F
:1036400088482030DDE90841A047012089490870F9
:1036500089480078052817DD844800780E2813D1A2
:1036600085480078401E844908707D48806B00239F
:1036700040F21D520990084601787A482430099C8E
:10368000A04701207B49087000BF00BF9DF82C00B7
:10369000012819D0022802D0062814D129E0734845
:1036A00000780F280BDA71480078401CC0B26F49CF
:1036B0000870099071480178099801F021FB6B4866
:1036C00000786E4908702CE16848007801280BDD0D
:1036D00066480078401EC0B2644908700990674887
:1036E0000178099801F00CFB604800786349087084
:1036F00017E15E480078012807D16148407A6049A7
:1037000088720020594908700AE158480078022858
:1037100013D05648007803280FD054480078042866
:103720000BD052480078052807D05048007806286A
:1037300003D04E48007807280DD1504801784B48F7
:10374000007801F0DDFA494800784C490870012002
:103750004C490870E4E045480078082817D04348F1
:103760000078092813D0414800780A280FD03F4834
:1037700000780B280BD03D4800780C2807D03B4838
:1037800000780D2803D0394800780E2810D13B4826
:1037900001783648007801F0B3FA344800783749A8
:1037A000087039480078012801D136490870B7E01F
:1037B0002E4800780F287DD134492B4800F0A6FC14
:1037C00006282AD10120304908702A48007818BB01
:1037D0004FF6FF701F212EA2CDE900210290204854
:1037E0004069122350229D2108904620089CA04742
:1037F00009904FF47A7001F02BF91F2024A2CDE933
:103800000020029016484069122350229D21089002
:103810004620089CA04709904FE04FF6FF701F21FB
:1038200020A2CDE9002102900D48406912235022C8
:103830009D2108904620089CA04709904FF47A707B
:1038400001F006F91F2017A2CDE9002002900448DC
:103850004069122350229D2108904620089C2AE0AE
:10386000F0000020B00400202C0200207002002094
:1038700038020020730200203E0200207202002065
:10388000B0010020710200203F020020320200201F
:1038900041555A20434F444520434F5252454354CB
:1038A0000000000041555A20434F444520455252E4
:1038B0004F52000034E0A04709901B4800780128CF
:1038C0002ED11A48007801282AD100201649087004
:1038D0001649087005F03EFF4FF6FF701F2114A235
:1038E000CDE90021029014484069122350229D2105
:1038F00008904620089CA04709904FF47A7001F088
:10390000A7F81F200AA2CDE9002002900A484069CA
:10391000122350229D2108904620089CA047099020
:1039200000BF00BF0CB010BD3F020020730200209A
:103930005355434345535300F000002010B586B063
:10394000B148807AB049097A88427CD1AF49086889
:10395000804704204FF6FF711F22ADA3CDE900324E
:10396000CDE90210A9481E234622002144680A20FE
:10397000A0470590A748059901604FF6FF7042F6F1
:103980001231A5A2CDE900210290A04814235022B3
:103990003C2144690F20A04705904FF6FF7042F686
:1039A0001231A0A2CDE900210290984814235022A0
:1039B000552144690F20A047059000204FF6FF7164
:1039C000CDE9000102909148142312223C21446C5D
:1039D0005F20A04705908F480599416000204FF671
:1039E000FF71CDE9000102908848142312223C2186
:1039F000446C7120A047059086480599816000209D
:103A00004FF6FF71CDE90001029080481423122285
:103A10003C21446C8320A04705907E480599C160F5
:103A200000204FF6FF71CDE9000102907748142382
:103A300012223C21446C9520A047059075480599B9
:103A40000161002000E0DBE04FF6FF71CDE90001ED
:103A500002906E48142312223C21446CA720A047F8
:103A600005906C480599416100204FF6FF71CDE942
:103A7000000102906548142312223C21446CB920B5
:103A8000A047059063480599816100204FF6FF71BA
:103A9000CDE9000102905D48142312225521446CA7
:103AA0005F20A04705905B480599C16100204FF653
:103AB000FF71CDE9000102905448142312225521D0
:103AC000446C7120A047059052480599016200207E
:103AD0004FF6FF71CDE9000102904C4814231222E9
:103AE0005521446C8320A04705904A4805994162BE
:103AF00000204FF6FF71CDE90001029043481423E6
:103B000012225521446C9520A04705904148059903
:103B1000816200204FF6FF71CDE9000102903B4821
:103B2000142312225521446CA720A0470590394840
:103B30000599C16200204FF6FF71CDE900010290A6
:103B40003248142312225521446CB920A047059015
:103B50003048059901634FF6FF7042F6123134A2E6
:103B6000CDE9002102902948142350226E21446996
:103B70000F20A047059031480078642813DA00210F
:103B80004FF6FF702D4A1278CDE9002002911F48B0
:103B900014236C226E21446C5F20A04705901D48C1
:103BA0000599416311E000204FF6FF7124A2CDE991
:103BB00000210290154814236C226E2144695F2075
:103BC000A04705901348059941631F2000900F48B6
:103BD0001223DC229D21C46A0020A0474FF6FF700B
:103BE0001F2118A2CDE900210290084812232822A3
:103BF0009D214469AF20A04705900648059981633F
:103C0000FFF710F806B010BDB0010020F000002052
:103C100041555A00A004002041555A20434F4445C5
:103C2000000000005553455220434F44450000001A
:103C30004652454520444159000000003E02002004
:103C40004D4158004F4B000010B586B003F058FEB0
:103C500002287DD1012005904FF6FF7000214EA271
:103C6000CDE9002102904F4814233C2241214469B0
:103C70001846A04704904FF6FF7000904A4814235E
:103C80009622552104680A20A04700204FF6FF71B4
:103C9000CDE9000102904348142312225521446CBF
:103CA0001E20A047049041480499016000204FF66F
:103CB000FF71CDE9000102903A48142312225521E8
:103CC000446C3020A047049038480499416000209B
:103CD0004FF6FF71CDE90001029032481423122201
:103CE0005521446C4220A0470490304804998160DB
:103CF00000204FF6FF71CDE90001029029481423FE
:103D000012225521446C5420A0470490274804995E
:103D1000C16000204FF6FF71CDE9000102902148FB
:103D2000142312225521446C6620A04704901F489A
:103D30000499016100204FF6FF71CDE90001029066
:103D40001848142312225521446C7820A04700E023
:103D500020E004901548049941614FF6FF7042F647
:103D6000123113A2CDE9002102900E48142328221B
:103D700055214469AA20A04704900C480499816108
:103D800003E005A90B4800F017F89DF8140000287F
:103D9000F7D100BF06B010BD5553455220434F44E4
:103DA000453A0000F000002020000020DC04002044
:103DB0004F4B000040020020F0B585B004460D4690
:103DC00000F010FF0490C64804A98269C5489047D6
:103DD0000646C448007808B10020049001200090F5
:103DE000BF481E234622002107690A20B847012840
:103DF00003D1BD49087006200490012E02D0022E86
:103E000071D171E0207809280EDAB74800780128CE
:103E10000AD12078401C20702178B448002340F259
:103E20001D52876BB248B847607809280FDAAE4850
:103E3000007802280BD16078401C60706178AB4834
:103E4000002340F21D52876BA948001DB847A07897
:103E500009280FDAA448007803280BD1A078401C69
:103E6000A070A178A148002340F21D52876BA048A2
:103E70000830B847E07809280FDA9B480078042812
:103E80000BD1E078401CE070E1789848002340F2C4
:103E90001D52876B96480C30B847207909280FDAF5
:103EA0009148007805280BD12079401C2071217998
:103EB0008E48002340F21D52876B8D481030B84762
:103EC000607909280FDA8848007806280BD16079D4
:103ED000401C607161798548002340F21D52876B58
:103EE00083481430B84771E0207800280EDD7E4802
:103EF000007801280AD12078401E207021787B4864
:103F0000002340F21D52876B7948B847607800283B
:103F10000FDD7548007802280BD16078401E607074
:103F200061787248002340F21D52876B7048001D73
:103F3000B847A07800280FDD6B48007803280BD124
:103F4000A078401EA070A1786848002340F21D525E
:103F5000876B67480830B847E07800280FDD624873
:103F6000007804280BD1E078401EE070E1785F48CB
:103F7000002340F21D52876B5D480C30B847207912
:103F800000280FDD5848007805280BD12079401E05
:103F9000207121795548002340F21D52876B544807
:103FA0001030B847607900280FDD4F4800780628A8
:103FB0000BD16079401E607161794C48002340F25A
:103FC0001D52876B4A481430B84700BF00BF9DF8A8
:103FD0001000012818D0022802D006287CD127E042
:103FE0004148007807280ADA3F490978491CC9B2D4
:103FF0003D4A117008463F49097802F047FB3A48AC
:1040000000783C49087067E03748007801280ADDED
:1040100035490978491EC9B2334A117008463549F5
:10402000097802F033FB304800783249087053E0D9
:104030002D480078012813D02B48007802280FD093
:104040002948007803280BD027480078042807D097
:1040500025480078052803D023480078062803D196
:1040600001202049087036E01F480078072832D127
:104070002149886980472149204600F047F80628F1
:1040800009D10020287064201D4908700122DD201C
:10409000FCF7CBF91FE04FF6FF70002119A2CDE924
:1040A00000210290114814233C226E2147695020C0
:1040B000B84703904FF47A7000F0CAFC002011A2B8
:1040C000CDE900200290094814233C226E21476963
:1040D0005020B847039000BF00BF05B0F0BD0000FE
:1040E000B00100206D0200206C020020F0000020D2
:1040F000DC0400206E0200204C020020460200205A
:104100003E0200204552524F5200000010B50246B8
:10411000002013780C78A34201D1431CD8B2537805
:104120004C78A34201D1431CD8B293788C78A34237
:1041300001D1431CD8B2D378CC78A34201D1431C1F
:10414000D8B213790C79A34201D1431CD8B2537968
:104150004C79A34201D1431CD8B210BD10B5024620
:10416000002013780C78A34201D1431CD8B25378B5
:104170004C78A34201D1431CD8B293788C78A342E7
:1041800001D1431CD8B2D378CC78A34201D1431CCF
:10419000D8B210BD2DE9F84304460D4616461F4619
:1041A000DDF820803B46324629462046CDF8008087
:1041B000FCF791FABDE8F88308B500209123DC22D2
:1041C0001F210090FCF787FA08BD08B50020B02336
:1041D000DC2201460090FCF77EFA08BD10B50446CB
:1041E00036480078A04209D135498868804735496A
:1041F000086880473349C86880475EE02F484078A8
:10420000A04206D12E49886880472F4948688047D8
:1042100053E02A488078A04206D12949886880471F
:104220002A490868804748E024480079A04206D11E
:104230002349886880472649086880473DE01F4831
:10424000C078A04206D11E49886880472149086885
:10425000804732E019484079A04206D11849886861
:1042600080471D490868804727E014488079A042AC
:1042700006D11349886880471849086880471CE0C0
:104280000E48007AA04206D10D498868804714493B
:104290000868804711E00948C079A04206D1084962
:1042A000886880470F490868804706E00348407ADD
:1042B000A04202D10C490868804710BDB00100201F
:1042C000F0000020C80000206401002094010020BC
:1042D000D8010020A8010020F401002010020020D5
:1042E0004C02002078020020A40200202DE9F043B7
:1042F00085B000F077FC0490DFF8749499F80330EF
:1043000099F8022099F8011099F80000DFF86494F8
:10431000D9F814C0E0470546DFF8549499F80730FF
:1043200099F8062099F8051099F80400DFF84494EC
:10433000D9F814C0E0470646DFF8349499F80B30FA
:1043400099F80A2099F8091099F80800DFF82494E0
:10435000D9F814C0E0470746DFF8149499F80F30F5
:1043600099F80E2099F80D1099F80C00DFF80494D4
:10437000D9F814C0E0478046484604A98269FE483F
:1043800090470446FC48007808B100200490012DB5
:1043900001D0022D02D10320F8490870012E01D06E
:1043A000022E02D10420F5490870012F01D0022FFE
:1043B00002D10520F1490870B8F1010F02D0B8F11F
:1043C000020F02D10620ED49087001200090E94853
:1043D0001E2346220021D0F810C00A20E047012801
:1043E00003D1E6490870062004900220DFF880938C
:1043F000009099F8173099F8162099F8151099F847
:104400001400DFF87093D9F810C0E047022803D1F8
:10441000DA490870062004900220DFF854930090D7
:1044200099F8033099F8022099F8011099F80000E2
:10443000DFF84093D9F810C0E047022804D10320E8
:10444000CE490870062004900220DFF824930090E3
:1044500099F8073099F8062099F8051099F80400A2
:10446000DFF81093D9F810C0E047022804D10420E7
:10447000C2490870062004900220DFF8F4920090F0
:1044800099F80B3099F80A2099F8091099F8080062
:10449000DFF8E092D9F810C0E047022804D10520E7
:1044A000B6490870062004900220DFF8C4920090FC
:1044B00099F80F3099F80E2099F80D1099F80C0022
:1044C000DFF8B092D9F810C0E047022803D10620E7
:1044D000AA49087004900220DFF89492009099F89D
:1044E000133099F8122099F8111099F81000DFF89C
:1044F0008492D9F810C0E047022804D107209F49D0
:1045000008700620049044EA05003043384340EA2E
:104510000800012802D002284FD14FE0012C03D11E
:1045200096480078032801D0012D08D194480088CE
:104530007F2804DA92480088401C91490880012CA9
:1045400003D18E480078042801D0012E08D18C4870
:1045500040887F2804DA8A484088401C884948807F
:10456000012C03D185480078052801D0012F08D1FE
:10457000834880887F2804DA81488088401C8049ED
:104580008880012C03D17D480078062802D0B8F13C
:10459000010F08D17A48C0887F2804DA7848C0889B
:1045A000401C7749C880774801787448007801F04A
:1045B00097F872480078734908704FE0022C03D1D5
:1045C0006E480078032801D0022D08D16C4800887D
:1045D000012804DD6A480088401E69490880022CD1
:1045E00003D166480078042801D0022E08D164481F
:1045F0004088012804DD62484088401E60494880A8
:10460000022C03D15D480078052801D0022F08D183
:104610005B488088012804DD59488088401E58493D
:104620008880022C03D155480078062802D0B8F1C2
:10463000020F08D15248C088012804DD5048C088C4
:10464000401E4F49C8804F4801784C48007801F01F
:1046500047F84A4800784B49087000BF00BF9DF8F2
:104660001000012818D0022802D0062813D127E014
:104670004248007807280ADA40490978491CC9B23B
:104680003E4A117008463F49097801F029F83B4835
:1046900000783C490870A0E03848007801280ADD1D
:1046A00036490978491EC9B2344A1170084635495D
:1046B000097801F015F831480078324908708CE02B
:1046C0002E480078012808D12A48407A2949887262
:1046D00000202949087029490870284800780328D3
:1046E0000BD026480078042807D0244800780528F5
:1046F00003D02248007806280CD1224801781F48B0
:10470000007800F0EDFF1D4800781E490870012078
:104710001949087019480078022816D10020164956
:10472000087004201849CDE90010184814235A22B3
:104730002121D0F810C08220E047154908600120EF
:104740001449087200200D4908700C4800780728A9
:1047500042D10020084908700E49087805F028F871
:104760004FF6FF701F210CA2CDE90021029017E047
:1047700012040020B00100208701002086010020E3
:104780005C010020880100203C010020F000002096
:1047900080010020640100205355434345535300DA
:1047A000104812233C229D21D0F814C04620E04737
:1047B00003904FF47A7000F04BF91F20AFF22802FB
:1047C000CDE900200290074812233C229D21D0F819
:1047D00014C04620E047039000BF00BF05B0BDE80D
:1047E000F0830000F000002010B501240AE0094821
:1047F000007A08B9FFF77AFD0648007A012801D14E
:1048000000F03EF80448807A034949788842EED0A7
:1048100010BD000064010020B001002010B586B07A
:104820001248807A1149497888421BD1104908788A
:10483000FEF7AEF90F490868804704204FF6FF7174
:104840001F220DA3CDE90032CDE9021009481E2335
:104850004622002144680A20A047059004490878B0
:1048600001F0CCFAFFF7C0FF06B010BDB001002088
:1048700064010020F000002044454C415900000034
:10488000F8B500F0AFF9044601205B4E00903668A1
:10489000F378594E3668B278574E36687178564E6E
:1048A00036683078554E3569A847012802D15449F9
:1048B000087006240220504E00903668F3794E4E60
:1048C0003668B2794C4E366871794B4E366830791D
:1048D0004A4E3569A847022802D149490870062482
:1048E0000220454E00903668F37A434E3668B27A1D
:1048F000414E3668717A404E3668307A3F4E35699F
:10490000A847022803D103203D490870062402204D
:10491000394E00903668F37B374E3668B27B364EA0
:104920003668717B344E3668307B344E3569A84723
:10493000022803D10420324908700624012C18D023
:10494000022C02D0062C55D127E02D4800780428EF
:104950000ADA2B490978491CC9B2294A117008465C
:104960002849097800F0D2FD2548007825490870CB
:1049700040E02348007801280ADD21490978491ED2
:10498000C9B21F4A117008461E49097800F0BEFDE1
:104990001B4800781B4908702CE019480078012852
:1049A00006D002280AD003280ED0042818D111E01E
:1049B0000120154908700020087211E002201249F8
:1049C0000870002008720BE003200F4908700020D7
:1049D000087205E004200C4908700020087200BF2E
:1049E00000BF09490878FEF7D3F80749087801F0B5
:1049F00005FA00BF00BFF8BD80010020B001002013
:104A000084010020850100206401002010B56FF0B2
:104A10000400FCF7DFFD0A4800680A49B0FBF1F02A
:104A2000094908700846007800EB4001C1EBC0104E
:104A30004FF6FF7101EAC0000449088010BD000074
:104A40000000002000127A00140000201600002050
:104A50000146114A12884A434FF0E0235A6100226E
:104A60009A611A46126942F001021A6100BF4FF0C2
:104A7000E022106900F001021AB100F48032002A2D
:104A8000F5D04FF0E022126922F001024FF0E0234E
:104A90001A6100229A617047160000200146114AEF
:104AA00012784A434FF0E0235A6100229A611A4675
:104AB000126942F001021A6100BF4FF0E022106952
:104AC00000F001021AB100F48032002AF5D04FF054
:104AD000E022126922F001024FF0E0231A61002265
:104AE0009A617047140000202DE9F04786B0044613
:104AF0000D4690462678677894F8029094F803A0C3
:104B0000B01CC0B28DF81400B81CC0B28DF81500EE
:104B10003DBB00204FF6FF712EA2CDE9002102908F
:104B20009DF815109DF814002B4A1423D2F814C0D8
:104B30001E22E04704904FF6FF7040F21D5127A25D
:104B4000CDE9002102909DF815109DF814201E3229
:104B5000D0B2214A1423D2F814C01E22E047049098
:104B600028E0012D26D14FF6FF7040F21D5119A209
:104B7000CDE9002102909DF815109DF81400164A09
:104B80001423D2F814C01E22E047049000204FF6F0
:104B9000FF7112A2CDE9002102909DF815109DF839
:104BA00014201E32D0B20C4A1423D2F814C01E2294
:104BB000E0470490012007EB0A0306EB0902CDE968
:104BC000000807483946D0F814C03046E04706B020
:104BD000BDE8F0874F4E0000F00000204F46460031
:104BE0002000002010B52248006822490978884238
:104BF0003BD0C820FFF752FF1D4800681D490978C7
:104C0000884232D01B48007801280BD11848001D7B
:104C10000068012802D11849087022E001201749D4
:104C200008701EE014480078012808D11048001DC3
:104C3000006888B9002010490870012010BD0F4895
:104C40000078012808D10A48001D006820B1002022
:104C50000A4908700220F1E7002008490870064957
:104C60000870034800680349087000F021F8E5E780
:104C7000388121424D0000204C0000204B000020D4
:104C800002461078012810D10878022801D10120AD
:104C900070470878012801D10220F9E70878062832
:104CA00001D100201070002008700020F0E7000003
:104CB00010B50C48007868B10B48006850B9642002
:104CC000FFF7C6FE0020074908700748006838B99A
:104CD000062010BD04480068012801D10149087070
:104CE0000020F6E7500000203081214210B5034833
:104CF0004168103088470149087210BD54000020F7
:104D000070B586B004460D46102C1AD2DFE804F0C8
:104D1000CD081A242F3A45505B66717C87929DBC62
:104D2000042040F21D511F22CBA3CDE90032CDE972
:104D30000210CA481E234622002146680A20B047B6
:104D40000590B2E0C6480178C448002340F21D52E5
:104D5000866BC448B047A8E0C1484178BF480023EB
:104D600040F21D52866BBF48001DB0479DE0BC4815
:104D70008178BA48002340F21D52866BB94808304A
:104D8000B04792E0B648C178B448002340F21D52C3
:104D9000866BB4480C30B04787E0B1480179AF4822
:104DA000002340F21D52866BAE481030B0477CE0C5
:104DB000AB484179A948002340F21D52866BA948AF
:104DC0001430B04771E0A8480178A448002340F2AD
:104DD0001D52866BA3481830B04766E0A248417860
:104DE0009E48002340F21D52866B9E481C30B047FF
:104DF0005BE09D4881789948002340F21D52866B04
:104E000098482030B04750E09748C1789348002335
:104E100040F21D52866B93482430B04745E09248DB
:104E200001798E48002340F21D52866B8D48283050
:104E3000B0473AE08C4841798848002340F21D523F
:104E4000866B88482C30B0472FE08848007864286B
:104E50000ADA8248002340F21D52866B83480178AB
:104E600080483030B0470EE0002040F21D5180A253
:104E7000CDE900210290794814236C226E21466905
:104E80005F20B047059010E04FF6FF7040F21D51D3
:104E900078A2CDE9002102907048122328229D219A
:104EA0004669AF20B047059000BF00BFAC4274D048
:104EB000102D1AD2DFE805F0CD081A242F3A4550FC
:104EC0005B66727D88939EBD04204FF6FF711F22A2
:104ED00061A3CDE90032CDE9021060481E234622CD
:104EE000002146680A20B0470590B2E05C4801788E
:104EF0005A4800234FF6FF72866B5A48B047A8E025
:104F000057484178554800234FF6FF72866B554845
:104F1000001DB0479DE052488178504800234FF66D
:104F2000FF72866B4F480830B04792E04C48C1781A
:104F30004A4800234FF6FF72866B4A480C30B04750
:104F400087E047480179454800234FF6FF72866B9A
:104F500044481030B0477CE0414841793F48002345
:104F60004FF6FF72866B3F481430B04771E03E4801
:104F700001783A4800234FF6FF72866B39481830A3
:104F8000B04766E038484178344800234FF6FF7256
:104F9000866B34481C30B0475BE05BE03248817878
:104FA0002E4800234FF6FF72866B2E482030B04704
:104FB0004FE02D48C178294800234FF6FF72866BD9
:104FC00028482430B04744E027480179234800238B
:104FD0004FF6FF72866B23482830B04739E02248ED
:104FE00041791E4800234FF6FF72866B1D482C3016
:104FF000B0472EE01D48007864280ADA17480023DD
:105000004FF6FF72866B1948017816483030B0476A
:105010000EE000204FF6FF7115A2CDE900210290AD
:105020000E4814236C226E2146695F20B04705901C
:105030000FE04FF6FF701F210EA2CDE90021029074
:105040000648122328229D214669AF20B0470590CB
:1050500000BF00BF06B070BD41555A00F0000020EF
:105060002C020020A4040020380200203E02002070
:105070004D4158004F4B000030B585B00446092C17
:105080002ED2DFE804F02D052E5780A9D2FDFB00BB
:105090000121A648FBF7E3FB88B118204FF47841C3
:1050A0000122A3A3CDE90032CDE90210A1482823B3
:1050B0001A465A21456A0520A847049010E0182096
:1050C0004FF4784100229AA3CDE90032CDE90210D5
:1050D000984828231A465A21456A0520A847049073
:1050E00020E102219148FBF7BAFB88B118204FF468
:1050F0007841012290A3CDE90032CDE902108D481C
:1051000028231A465A21456A3D20A847049010E0FA
:1051100018204FF47841002287A3CDE90032CDE971
:105120000210844828231A465A21456A3D20A84780
:105130000490F7E004217D48FBF791FB88B118202B
:105140004FF4784101227DA3CDE90032CDE9021070
:10515000784828231A465A21456A7520A8470490A2
:1051600010E018204FF47841002274A3CDE90032FA
:10517000CDE902106F4828231A465A21456A752046
:10518000A8470490CEE008216848FBF768FB88B187
:1051900018204FF47841012269A3CDE90032CDE90E
:1051A0000210644828231A465A21456AAD20A847B0
:1051B000049010E018204FF47841002260A3CDE95C
:1051C0000032CDE902105B4828231A465A21456A6D
:1051D000AD20A8470490A5E010215448FBF73FFB01
:1051E00088B118204FF47841012256A3CDE900324E
:1051F000CDE902104F4828231A468721456A052029
:10520000A847049010E018204FF4784100224DA3E5
:10521000CDE90032CDE90210464828231A468721FD
:10522000456A0520A84704907CE020213F48FBF711
:1052300016FB88B118204FF47841012242A3CDE932
:105240000032CDE902103B4828231A468721456ADF
:105250003D20A847049010E018204FF47841002228
:1052600039A3CDE90032CDE90210324828231A468D
:105270008721456A3D20A847049053E029E0FFE7D5
:1052800040212A48FBF7EBFA88B118204FF4784107
:1052900001222EA3CDE90032CDE9021025482823B2
:1052A0001A468721456A7520A847049010E0182007
:1052B0004FF47841002225A3CDE90032CDE9021058
:1052C0001C4828231A468721456A7520A847049060
:1052D00028E080211548FBF7C2FA88B118204FF466
:1052E000784101221AA3CDE90032CDE9021011481C
:1052F00028231A468721456AAD20A847049010E06C
:1053000018204FF47841002211A3CDE90032CDE9F5
:105310000210084828231A468721456AAD20A8476D
:10532000049000BF00BF05B030BD00000010014078
:1053300031000000F00000203200000033000000C7
:105340003400000035000000360000003700000087
:105350003800000010B50446002C01DD601EC4B208
:10536000404840690078A04202D10120FFF784FE46
:105370003C4840694078A04202D10220FFF77CFE01
:10538000384840698078A04202D10320FFF774FEBC
:1053900034484069C078A04202D10420FFF76CFE77
:1053A000304840690079A04202D10520FFF764FE31
:1053B0002C4840694079A04202D10620FFF75CFEEC
:1053C000284840698079A04202D10720FFF754FEA7
:1053D00024484069C079A04202D10820FFF74CFE62
:1053E000204880690078A04202D10120FFF744FEE6
:1053F0001C4880694078A04202D10220FFF73CFEA1
:10540000184880698078A04202D10320FFF734FE5B
:1054100014488069C078A04202D10420FFF72CFE16
:10542000104880690079A04202D10520FFF724FED0
:105430000C4880694079A04202D10620FFF71CFE8B
:10544000084880698079A04202D10720FFF714FE46
:1054500004488069C079A04202D10820FFF70CFE01
:1054600010BD0000640100202DE9FE4F04460D46EA
:1054700016461F4694F8008094F8019094F802A014
:1054800094F803B05B465246494640460096FBF707
:1054900022F9102009EB0B0308EB0A028DE8A100AA
:1054A00003484946D0F808C04046E047BDE8FE8FB3
:1054B000200000202DE9F04F85B004460D46164629
:1054C0001F4694F8008094F8019094F802A094F894
:1054D00003B05B465246494640460096FBF7FBF850
:1054E0000020CDE9027001950490102009EB0B0318
:1054F00008EB0A02009004484946D0F820C0404614
:10550000E04705B0BDE8F08F20000020FEB504465E
:105510000D46012C06D0022C13D0032C20D0042CD5
:105520003CD12CE040F21D500021414ACDE9002140
:105530000290404814235A22212186688220B047D5
:105540002CE040F21D500121394ACDE900210290A2
:10555000384814235A22212186688220B0471DE052
:1055600040F21D500221324ACDE90021029031481B
:1055700014235A22212186688220B0470EE040F28F
:105580001D5003212A4ACDE9002102902948142305
:105590005A22212186688220B04700BF00BFAC425A
:1055A00045D0012D06D0022D13D0032D20D0042D7F
:1055B0003CD12CE049F6DD6000211D4ACDE90021F7
:1055C00002901C4814235A22212186688220B04769
:1055D0002CE049F6DD600121154ACDE90021029059
:1055E000144814235A22212186688220B0471DE0E6
:1055F00049F6DD6002210E4ACDE9002102900D48F6
:1056000014235A22212186688220B0470EE049F6F1
:10561000DD600321064ACDE90021029005481423EC
:105620005A22212186688220B04700BF00BFFEBDFC
:105630003C010020A402002070B586B004460D464F
:10564000012C02D0022C1CD111E0042040F21D518B
:105650001F221FA3CDE90032CDE902101D481E23F1
:105660004622002146680A20B047059009E01A4802
:1056700001781848002340F21D52866B1748B04746
:1056800000BF00BFAC4221D0012D02D0022D1CD1A1
:1056900011E004204FF6FF711F220DA3CDE9003267
:1056A000CDE902100B481E234622002146680A203D
:1056B000B047059009E008480178064800234FF6F6
:1056C000FF72866B0548B04700BF00BF06B070BDD3
:1056D00049500000F0000020200200202502002098
:1056E00070B586B004460D46082C16D2DFE804F0EB
:1056F000A004166A747F8A95042040F21D511F226F
:10570000A0A3CDE90032CDE90210A0481E23462215
:10571000002146680A20B047059089E09C4800783F
:10572000012810D1042040F21D511F2299A3CDE978
:105730000032CDE9021095481E2350220021466810
:105740008220B047059092480078022810D10420AA
:1057500040F21D511F2291A3CDE90032CDE9021084
:105760008A481E235022002146688220B0470590B7
:1057700087480078032810D1042040F21D511F22D1
:1057800088A3CDE90032CDE9021080481E235022C3
:10579000002146688220B04705907D4800780428A3
:1057A0000FD140F21D511F2281A3CDE90032CDE976
:1057B000021076481E235022002146688220B047FE
:1057C000059035E07D4801887048002340F21D5265
:1057D000866B7B48B0472BE0784841886B480023B4
:1057E00040F21D52866B7648001DB04720E073489A
:1057F00081886648002340F21D52866B704808304D
:10580000B04715E06D48C1886048002340F21D5242
:10581000866B6B480C30B0470AE05C484FF6FF736C
:1058200040F21D5267A1C66B65481030B04700BFFB
:1058300000BFAC4277D0082D16D2DFE805F0A004F7
:10584000166A75808B9604204FF6FF711F224DA3B8
:10585000CDE90032CDE902104C481E23462200213A
:1058600046680A20B047059089E049480078012839
:1058700010D104204FF6FF711F2246A3CDE900325C
:10588000CDE9021041481E235022002146688220A3
:10589000B04705903E480078022810D104204FF60A
:1058A000FF711F223DA3CDE90032CDE90210374838
:1058B0001E235022002146688220B04705903448BC
:1058C0000078032810D104204FF6FF711F2235A362
:1058D000CDE90032CDE902102C481E2350220021D0
:1058E00046688220B04705902948007804280FD1E7
:1058F0004FF6FF711F222EA3CDE90032CDE9021031
:1059000022481E235022002146688220B04705907D
:1059100035E02A4801881D4800234FF6FF72866B48
:105920002748B0472BE02BE0244841881748002344
:105930004FF6FF72866B2248001DB0471FE01F48DC
:105940008188124800234FF6FF72866B1C4808308E
:10595000B04714E01948C1880C4800234FF6FF7285
:10596000866B17480C30B04709E008484FF6FF73C4
:105970001F2214A1C66B12481030B04700BF00BFF1
:1059800006B070BD44454C4159000000F0000020B5
:10599000640100204F50454E312F32004F50454E8C
:1059A000322F3200436C4F5345312F32000000003C
:1059B000434C4F5345322F32000000005C01002061
:1059C0001204002053415645000000007FB50446F4
:1059D0000D46072C6CD2DFE804F06B04303A4550DA
:1059E0005B006D48007C012811D140F21D501F2141
:1059F0006AA2CDE9002102906A4811233C220D21C0
:105A000046695F20B0470390674803994162624846
:105A1000007C88B940F21D501F2164A2CDE900210D
:105A20000290604811233C220D2146695F20B04757
:105A300003905D48039941623AE05E480178594815
:105A4000002340F21D52866B5B48B04730E0594856
:105A500041785448002340F21D52866B5648001D81
:105A6000B04725E0534881784E48002340F21D524C
:105A7000866B51480830B0471AE04E48C178494813
:105A8000002340F21D52866B4B480C30B0470FE0AC
:105A9000002040F21D5149A2CDE900210290414869
:105AA00018231E2230214669AF20B047039000BF63
:105AB00000BFAC426FD0072D6CD2DFE805F06B045D
:105AC000303A45505B003448007C012811D14FF634
:105AD000FF701F2131A2CDE900210290314811232E
